{
  "_format": "hh-sol-artifact-1",
  "contractName": "ArbixExecutor",
  "sourceName": "contracts/ArbixExecutor.sol",
  "abi": [
    {
      "inputs": [
        {
          "internalType": "address",
          "name": "_agent",
          "type": "address"
        }
      ],
      "stateMutability": "nonpayable",
      "type": "constructor"
    },
    {
      "anonymous": false,
      "inputs": [
        {
          "indexed": false,
          "internalType": "address",
          "name": "oldAgent",
          "type": "address"
        },
        {
          "indexed": false,
          "internalType": "address",
          "name": "newAgent",
          "type": "address"
        }
      ],
      "name": "AgentUpdated",
      "type": "event"
    },
    {
      "anonymous": false,
      "inputs": [
        {
          "indexed": true,
          "internalType": "address",
          "name": "tokenIn",
          "type": "address"
        },
        {
          "indexed": true,
          "internalType": "address",
          "name": "tokenOut",
          "type": "address"
        },
        {
          "indexed": false,
          "internalType": "uint256",
          "name": "amountIn",
          "type": "uint256"
        },
        {
          "indexed": false,
          "internalType": "uint256",
          "name": "profit",
          "type": "uint256"
        },
        {
          "indexed": false,
          "internalType": "address",
          "name": "dexBuy",
          "type": "address"
        },
        {
          "indexed": false,
          "internalType": "address",
          "name": "dexSell",
          "type": "address"
        },
        {
          "indexed": false,
          "internalType": "uint256",
          "name": "timestamp",
          "type": "uint256"
        }
      ],
      "name": "ArbitrageExecuted",
      "type": "event"
    },
    {
      "anonymous": false,
      "inputs": [
        {
          "indexed": false,
          "internalType": "string",
          "name": "reason",
          "type": "string"
        },
        {
          "indexed": false,
          "internalType": "uint256",
          "name": "value",
          "type": "uint256"
        },
        {
          "indexed": false,
          "internalType": "uint256",
          "name": "limit",
          "type": "uint256"
        },
        {
          "indexed": false,
          "internalType": "uint256",
          "name": "timestamp",
          "type": "uint256"
        }
      ],
      "name": "CircuitBreakerTriggered",
      "type": "event"
    },
    {
      "anonymous": false,
      "inputs": [
        {
          "indexed": false,
          "internalType": "string",
          "name": "param",
          "type": "string"
        },
        {
          "indexed": false,
          "internalType": "uint256",
          "name": "oldValue",
          "type": "uint256"
        },
        {
          "indexed": false,
          "internalType": "uint256",
          "name": "newValue",
          "type": "uint256"
        }
      ],
      "name": "ConfigUpdated",
      "type": "event"
    },
    {
      "anonymous": false,
      "inputs": [
        {
          "indexed": true,
          "internalType": "address",
          "name": "pair",
          "type": "address"
        },
        {
          "indexed": true,
          "internalType": "address",
          "name": "tokenBorrow",
          "type": "address"
        },
        {
          "indexed": false,
          "internalType": "uint256",
          "name": "amountBorrowed",
          "type": "uint256"
        },
        {
          "indexed": false,
          "internalType": "uint256",
          "name": "profit",
          "type": "uint256"
        },
        {
          "indexed": false,
          "internalType": "uint256",
          "name": "timestamp",
          "type": "uint256"
        }
      ],
      "name": "FlashArbitrageExecuted",
      "type": "event"
    },
    {
      "stateMutability": "payable",
      "type": "fallback"
    },
    {
      "inputs": [],
      "name": "BABYSWAP_ROUTER",
      "outputs": [
        {
          "internalType": "address",
          "name": "",
          "type": "address"
        }
      ],
      "stateMutability": "view",
      "type": "function"
    },
    {
      "inputs": [],
      "name": "BISWAP_ROUTER",
      "outputs": [
        {
          "internalType": "address",
          "name": "",
          "type": "address"
        }
      ],
      "stateMutability": "view",
      "type": "function"
    },
    {
      "inputs": [],
      "name": "BTCB",
      "outputs": [
        {
          "internalType": "address",
          "name": "",
          "type": "address"
        }
      ],
      "stateMutability": "view",
      "type": "function"
    },
    {
      "inputs": [],
      "name": "BUSD",
      "outputs": [
        {
          "internalType": "address",
          "name": "",
          "type": "address"
        }
      ],
      "stateMutability": "view",
      "type": "function"
    },
    {
      "inputs": [],
      "name": "ETH",
      "outputs": [
        {
          "internalType": "address",
          "name": "",
          "type": "address"
        }
      ],
      "stateMutability": "view",
      "type": "function"
    },
    {
      "inputs": [],
      "name": "PANCAKESWAP_ROUTER",
      "outputs": [
        {
          "internalType": "address",
          "name": "",
          "type": "address"
        }
      ],
      "stateMutability": "view",
      "type": "function"
    },
    {
      "inputs": [],
      "name": "THENA_ROUTER",
      "outputs": [
        {
          "internalType": "address",
          "name": "",
          "type": "address"
        }
      ],
      "stateMutability": "view",
      "type": "function"
    },
    {
      "inputs": [],
      "name": "USDC",
      "outputs": [
        {
          "internalType": "address",
          "name": "",
          "type": "address"
        }
      ],
      "stateMutability": "view",
      "type": "function"
    },
    {
      "inputs": [],
      "name": "USDT",
      "outputs": [
        {
          "internalType": "address",
          "name": "",
          "type": "address"
        }
      ],
      "stateMutability": "view",
      "type": "function"
    },
    {
      "inputs": [],
      "name": "WBNB",
      "outputs": [
        {
          "internalType": "address",
          "name": "",
          "type": "address"
        }
      ],
      "stateMutability": "view",
      "type": "function"
    },
    {
      "inputs": [],
      "name": "agent",
      "outputs": [
        {
          "internalType": "address",
          "name": "",
          "type": "address"
        }
      ],
      "stateMutability": "view",
      "type": "function"
    },
    {
      "inputs": [
        {
          "internalType": "address",
          "name": "router",
          "type": "address"
        },
        {
          "internalType": "bool",
          "name": "approved",
          "type": "bool"
        }
      ],
      "name": "approveRouter",
      "outputs": [],
      "stateMutability": "nonpayable",
      "type": "function"
    },
    {
      "inputs": [
        {
          "internalType": "address",
          "name": "token",
          "type": "address"
        },
        {
          "internalType": "address",
          "name": "router",
          "type": "address"
        },
        {
          "internalType": "uint256",
          "name": "amount",
          "type": "uint256"
        }
      ],
      "name": "approveToken",
      "outputs": [],
      "stateMutability": "nonpayable",
      "type": "function"
    },
    {
      "inputs": [
        {
          "internalType": "address",
          "name": "",
          "type": "address"
        }
      ],
      "name": "approvedRouters",
      "outputs": [
        {
          "internalType": "bool",
          "name": "",
          "type": "bool"
        }
      ],
      "stateMutability": "view",
      "type": "function"
    },
    {
      "inputs": [
        {
          "internalType": "address",
          "name": "tokenIn",
          "type": "address"
        },
        {
          "internalType": "address",
          "name": "tokenOut",
          "type": "address"
        },
        {
          "internalType": "uint256",
          "name": "amountIn",
          "type": "uint256"
        },
        {
          "internalType": "address",
          "name": "dexBuy",
          "type": "address"
        },
        {
          "internalType": "address",
          "name": "dexSell",
          "type": "address"
        }
      ],
      "name": "calculateArbitrageProfit",
      "outputs": [
        {
          "internalType": "uint256",
          "name": "profit",
          "type": "uint256"
        },
        {
          "internalType": "uint256",
          "name": "profitBps",
          "type": "uint256"
        }
      ],
      "stateMutability": "view",
      "type": "function"
    },
    {
      "inputs": [],
      "name": "dailyLoss",
      "outputs": [
        {
          "internalType": "uint256",
          "name": "",
          "type": "uint256"
        }
      ],
      "stateMutability": "view",
      "type": "function"
    },
    {
      "inputs": [],
      "name": "dailyLossLimit",
      "outputs": [
        {
          "internalType": "uint256",
          "name": "",
          "type": "uint256"
        }
      ],
      "stateMutability": "view",
      "type": "function"
    },
    {
      "inputs": [
        {
          "internalType": "address",
          "name": "token",
          "type": "address"
        },
        {
          "internalType": "uint256",
          "name": "amount",
          "type": "uint256"
        }
      ],
      "name": "emergencyWithdraw",
      "outputs": [],
      "stateMutability": "nonpayable",
      "type": "function"
    },
    {
      "inputs": [],
      "name": "emergencyWithdrawBNB",
      "outputs": [],
      "stateMutability": "nonpayable",
      "type": "function"
    },
    {
      "inputs": [
        {
          "internalType": "address",
          "name": "tokenIn",
          "type": "address"
        },
        {
          "internalType": "address",
          "name": "tokenOut",
          "type": "address"
        },
        {
          "internalType": "uint256",
          "name": "amountIn",
          "type": "uint256"
        },
        {
          "internalType": "address",
          "name": "dexBuy",
          "type": "address"
        },
        {
          "internalType": "address",
          "name": "dexSell",
          "type": "address"
        },
        {
          "internalType": "uint256",
          "name": "minProfit",
          "type": "uint256"
        },
        {
          "internalType": "uint256",
          "name": "deadline",
          "type": "uint256"
        }
      ],
      "name": "executeCrossDexArbitrage",
      "outputs": [],
      "stateMutability": "nonpayable",
      "type": "function"
    },
    {
      "inputs": [
        {
          "internalType": "address",
          "name": "pair",
          "type": "address"
        },
        {
          "internalType": "address",
          "name": "tokenBorrow",
          "type": "address"
        },
        {
          "internalType": "uint256",
          "name": "amount",
          "type": "uint256"
        },
        {
          "internalType": "address",
          "name": "dexSell",
          "type": "address"
        },
        {
          "internalType": "address",
          "name": "tokenOut",
          "type": "address"
        }
      ],
      "name": "executeFlashArbitrage",
      "outputs": [],
      "stateMutability": "nonpayable",
      "type": "function"
    },
    {
      "inputs": [
        {
          "internalType": "address",
          "name": "router",
          "type": "address"
        },
        {
          "internalType": "address",
          "name": "tokenA",
          "type": "address"
        },
        {
          "internalType": "address",
          "name": "tokenB",
          "type": "address"
        },
        {
          "internalType": "address",
          "name": "tokenC",
          "type": "address"
        },
        {
          "internalType": "uint256",
          "name": "amountIn",
          "type": "uint256"
        },
        {
          "internalType": "uint256",
          "name": "minProfit",
          "type": "uint256"
        },
        {
          "internalType": "uint256",
          "name": "deadline",
          "type": "uint256"
        }
      ],
      "name": "executeTriangularArbitrage",
      "outputs": [],
      "stateMutability": "nonpayable",
      "type": "function"
    },
    {
      "inputs": [
        {
          "internalType": "address",
          "name": "tokenIn",
          "type": "address"
        },
        {
          "internalType": "address",
          "name": "tokenOut",
          "type": "address"
        },
        {
          "internalType": "uint256",
          "name": "amountIn",
          "type": "uint256"
        }
      ],
      "name": "getBestPrice",
      "outputs": [
        {
          "internalType": "address",
          "name": "bestRouter",
          "type": "address"
        },
        {
          "internalType": "uint256",
          "name": "bestAmountOut",
          "type": "uint256"
        },
        {
          "internalType": "uint256[4]",
          "name": "prices",
          "type": "uint256[4]"
        }
      ],
      "stateMutability": "view",
      "type": "function"
    },
    {
      "inputs": [
        {
          "internalType": "uint256",
          "name": "count",
          "type": "uint256"
        }
      ],
      "name": "getRecentTrades",
      "outputs": [
        {
          "components": [
            {
              "internalType": "uint256",
              "name": "timestamp",
              "type": "uint256"
            },
            {
              "internalType": "address",
              "name": "tokenIn",
              "type": "address"
            },
            {
              "internalType": "address",
              "name": "tokenOut",
              "type": "address"
            },
            {
              "internalType": "uint256",
              "name": "amountIn",
              "type": "uint256"
            },
            {
              "internalType": "uint256",
              "name": "amountOut",
              "type": "uint256"
            },
            {
              "internalType": "uint256",
              "name": "profit",
              "type": "uint256"
            },
            {
              "internalType": "address",
              "name": "dexBuy",
              "type": "address"
            },
            {
              "internalType": "address",
              "name": "dexSell",
              "type": "address"
            },
            {
              "internalType": "bool",
              "name": "success",
              "type": "bool"
            }
          ],
          "internalType": "struct ArbixExecutor.TradeRecord[]",
          "name": "",
          "type": "tuple[]"
        }
      ],
      "stateMutability": "view",
      "type": "function"
    },
    {
      "inputs": [],
      "name": "getStats",
      "outputs": [
        {
          "internalType": "uint256",
          "name": "_totalTrades",
          "type": "uint256"
        },
        {
          "internalType": "uint256",
          "name": "_successfulTrades",
          "type": "uint256"
        },
        {
          "internalType": "uint256",
          "name": "_totalProfit",
          "type": "uint256"
        },
        {
          "internalType": "uint256",
          "name": "_totalVolume",
          "type": "uint256"
        },
        {
          "internalType": "uint256",
          "name": "_dailyLoss",
          "type": "uint256"
        },
        {
          "internalType": "bool",
          "name": "_paused",
          "type": "bool"
        }
      ],
      "stateMutability": "view",
      "type": "function"
    },
    {
      "inputs": [],
      "name": "getTradeCount",
      "outputs": [
        {
          "internalType": "uint256",
          "name": "",
          "type": "uint256"
        }
      ],
      "stateMutability": "view",
      "type": "function"
    },
    {
      "inputs": [],
      "name": "lastResetDay",
      "outputs": [
        {
          "internalType": "uint256",
          "name": "",
          "type": "uint256"
        }
      ],
      "stateMutability": "view",
      "type": "function"
    },
    {
      "inputs": [],
      "name": "maxTradeSize",
      "outputs": [
        {
          "internalType": "uint256",
          "name": "",
          "type": "uint256"
        }
      ],
      "stateMutability": "view",
      "type": "function"
    },
    {
      "inputs": [],
      "name": "minProfitBps",
      "outputs": [
        {
          "internalType": "uint256",
          "name": "",
          "type": "uint256"
        }
      ],
      "stateMutability": "view",
      "type": "function"
    },
    {
      "inputs": [],
      "name": "owner",
      "outputs": [
        {
          "internalType": "address",
          "name": "",
          "type": "address"
        }
      ],
      "stateMutability": "view",
      "type": "function"
    },
    {
      "inputs": [
        {
          "internalType": "address",
          "name": "sender",
          "type": "address"
        },
        {
          "internalType": "uint256",
          "name": "amount0",
          "type": "uint256"
        },
        {
          "internalType": "uint256",
          "name": "amount1",
          "type": "uint256"
        },
        {
          "internalType": "bytes",
          "name": "data",
          "type": "bytes"
        }
      ],
      "name": "pancakeCall",
      "outputs": [],
      "stateMutability": "nonpayable",
      "type": "function"
    },
    {
      "inputs": [],
      "name": "paused",
      "outputs": [
        {
          "internalType": "bool",
          "name": "",
          "type": "bool"
        }
      ],
      "stateMutability": "view",
      "type": "function"
    },
    {
      "inputs": [
        {
          "internalType": "address",
          "name": "_agent",
          "type": "address"
        }
      ],
      "name": "setAgent",
      "outputs": [],
      "stateMutability": "nonpayable",
      "type": "function"
    },
    {
      "inputs": [
        {
          "internalType": "uint256",
          "name": "_limit",
          "type": "uint256"
        }
      ],
      "name": "setDailyLossLimit",
      "outputs": [],
      "stateMutability": "nonpayable",
      "type": "function"
    },
    {
      "inputs": [
        {
          "internalType": "uint256",
          "name": "_max",
          "type": "uint256"
        }
      ],
      "name": "setMaxTradeSize",
      "outputs": [],
      "stateMutability": "nonpayable",
      "type": "function"
    },
    {
      "inputs": [
        {
          "internalType": "uint256",
          "name": "_bps",
          "type": "uint256"
        }
      ],
      "name": "setMinProfitBps",
      "outputs": [],
      "stateMutability": "nonpayable",
      "type": "function"
    },
    {
      "inputs": [
        {
          "internalType": "bool",
          "name": "_paused",
          "type": "bool"
        }
      ],
      "name": "setPaused",
      "outputs": [],
      "stateMutability": "nonpayable",
      "type": "function"
    },
    {
      "inputs": [],
      "name": "successfulTrades",
      "outputs": [
        {
          "internalType": "uint256",
          "name": "",
          "type": "uint256"
        }
      ],
      "stateMutability": "view",
      "type": "function"
    },
    {
      "inputs": [],
      "name": "totalProfit",
      "outputs": [
        {
          "internalType": "uint256",
          "name": "",
          "type": "uint256"
        }
      ],
      "stateMutability": "view",
      "type": "function"
    },
    {
      "inputs": [],
      "name": "totalTrades",
      "outputs": [
        {
          "internalType": "uint256",
          "name": "",
          "type": "uint256"
        }
      ],
      "stateMutability": "view",
      "type": "function"
    },
    {
      "inputs": [],
      "name": "totalVolume",
      "outputs": [
        {
          "internalType": "uint256",
          "name": "",
          "type": "uint256"
        }
      ],
      "stateMutability": "view",
      "type": "function"
    },
    {
      "inputs": [
        {
          "internalType": "uint256",
          "name": "",
          "type": "uint256"
        }
      ],
      "name": "tradeHistory",
      "outputs": [
        {
          "internalType": "uint256",
          "name": "timestamp",
          "type": "uint256"
        },
        {
          "internalType": "address",
          "name": "tokenIn",
          "type": "address"
        },
        {
          "internalType": "address",
          "name": "tokenOut",
          "type": "address"
        },
        {
          "internalType": "uint256",
          "name": "amountIn",
          "type": "uint256"
        },
        {
          "internalType": "uint256",
          "name": "amountOut",
          "type": "uint256"
        },
        {
          "internalType": "uint256",
          "name": "profit",
          "type": "uint256"
        },
        {
          "internalType": "address",
          "name": "dexBuy",
          "type": "address"
        },
        {
          "internalType": "address",
          "name": "dexSell",
          "type": "address"
        },
        {
          "internalType": "bool",
          "name": "success",
          "type": "bool"
        }
      ],
      "stateMutability": "view",
      "type": "function"
    },
    {
      "stateMutability": "payable",
      "type": "receive"
    }
  ],
  "bytecode": "0x60803461013957601f62002c4238819003918201601f191683019291906001600160401b0384118385101761013e57816020928492604096875283398101031261013957516001600160a01b038116908190036101395769021e19e0c9bab24000006002556005600355681b1ae4d6e2ef50000060045560018060a01b031960009133828454161783556001918254161781556201518042046006557310ed43c718714eb63d5aa57b78b54704e256024e8252600b602052828083209260ff19938385825416179055733a6d8ca21d1cf76f653a67577fa0d27453350dd88152818120838582541617905573d4ae6eca985340dd434d38f470accce4dc78d1098152818120838582541617905573325e343f1de602396e256b67efd1f61c3a6b38bd8152209182541617905551612aed9081620001558239f35b600080fd5b634e487b7160e01b600052604160045260246000fdfe60806040526004361015610018575b361561001657005b005b6000803560e01c80630b33c64214611db957806310fa79e214611d9b578063121a0bae14611d6c5780631259a5c814611d4e57806316c38b3c14611cfb5780632a9d339d14611c9a578063383aeeae14611c7c578063445b1e4b14611c3d57806347bcf478146116ad578063484f4ea91461167e5780634b3f3378146115f95780635439dc861461157257806359f73318146115435780635b0c5dbd146114a45780635c975abb1461147e5780635f81a57c14611460578063611c60b61461120d578063658a6bc4146111ef578063778ffbda146111c0578063779e306b146111a25780638322fff2146111735780638480081214610ce25780638600151914610cc457806389a3027114610c955780638da5cb5b14610c6e5780638dd9500214610c3f57806395ccea6714610bd0578063a3031b7714610bb2578063bcf685ed14610b37578063c54e44eb14610b08578063c59d484714610ab8578063c63877eb1461088b578063d6d2aedb14610605578063da3e33971461055b578063e1a504e51461052c578063e275c9971461050e578063e943f09014610341578063e9c9f44f14610312578063f26b854f146102c0578063f5ff5c7614610297578063fc213996146102795763fcff2c28146101f2575061000e565b346102765760203660031901126102765760043561021a60018060a01b038354163314612a78565b7fd7474166e78731bc168caca1fe1ccebbd6f3c95baee64997902e6b48f442b81a60a06003546040519060608252600c60608301526b6d696e50726f66697442707360a01b60808301526020820152836040820152a160035580f35b80fd5b50346102765780600319360112610276576020600a54604051908152f35b50346102765780600319360112610276576001546040516001600160a01b039091168152602090f35b50346102765780600319360112610276578080808060018060a01b038154166102ea813314612a78565b4790828215610309575bf1156102fd5780f35b604051903d90823e3d90fd5b506108fc6102f4565b50346102765780600319360112610276576020604051737130d2a12b9bcbfae4f2634d864a1ee1ce3ead9c8152f35b50346102765761035036612548565b85929594939194508583958495856103fd6040519361036e856127c1565b6002855260403660208701376103838561287b565b6001600160a01b039485169081905293948594856103a083612888565b9a16809a52604051996103b28b6127c1565b60028b5260403660208d01376103c78b61287b565b526103d18a612888565b5260405194858094819363d06ca61f60e01b9a8b84526004840152604060248401526044830190612926565b0392165afa8691816104f2575b50610420575b6040888882519182526020820152f35b918593916104316104559694612888565b51916040519687958694859384526004840152604060248401526044830190612926565b0392165afa8291816104ce575b50610471575b80808080610410565b61047a90612888565b51848111156104685784919350610491925061299d565b90612710908183029183830414831517156104ba57506040926104b391612654565b3880610468565b634e487b7160e01b81526011600452602490fd5b6104eb9192503d8085833e6104e381836127dd565b8101906128ac565b9038610462565b6105079192503d8089833e6104e381836127dd565b903861040a565b50346102765780600319360112610276576020600754604051908152f35b503461027657806003193601126102765760206040517310ed43c718714eb63d5aa57b78b54704e256024e8152f35b5034610276576105bc602061056f36612596565b91908560018060a01b03610587818354163314612a78565b60405163095ea7b360e01b81526001600160a01b03909316600484015260248301949094529094859384929183906044820190565b0393165af180156105fa576105cf575080f35b6105ef9060203d81116105f3575b6105e781836127dd565b81019061284b565b5080f35b503d6105dd565b6040513d84823e3d90fd5b50346102765761061436612596565b6040519284919067ffffffffffffffff6080860181811187821017610875576040526080368737604051906080820190811182821017610875576040969496527310ed43c718714eb63d5aa57b78b54704e256024e8152602094733a6d8ca21d1cf76f653a67577fa0d27453350dd88683015273d4ae6eca985340dd434d38f470accce4dc78d109604083015273325e343f1de602396e256b67efd1f61c3a6b38bd6060830152604051906106c8826127c1565b60028252604036888401376106dc8261287b565b6001600160a01b039485169052836106f383612888565b911690528693875b6004811061073c57505050506040519516855282850152604084019092905b600482106107275760c085f35b8280600192865181520194019101909261071a565b8461074a82869b999b612a67565b511660405163d06ca61f60e01b815283600482015288816024936040858301528180610779604482018b612926565b03915afa899181610859575b506107a9575050808761079b6107a1938c612a67565b52612a4b565b9795976106fb565b80516000199290838101908111610846576107d0856107c98f9386612898565b5192612a67565b528151838101908111610846576107e88a9184612898565b51116107fb575b5050506107a190612a4b565b9193975080929b505192830192831161083457509061081991612898565b51936107a1846108298b86612a67565b5116999038806107ef565b634e487b7160e01b8852601160045287fd5b50634e487b7160e01b8a52601160045289fd5b61086e9192503d808c833e6104e381836127dd565b9038610785565b634e487b7160e01b600052604160045260246000fd5b503461027657602080600319360112610ab457600c549160043580841115610aa7576108ba6108c2918561299d565b80929461299d565b6108cb81612863565b916108d960405193846127dd565b818352601f196108e883612863565b01855b818110610a54575050845b8281106109a2575050506040519180830190808452825180925280604085019301945b8281106109265784840385f35b855180518552808301516001600160a01b0390811686850152604080830151821690870152606080830151908701526080808301519087015260a0808301519087015260c08083015182169087015260e08083015190911690860152610100908101511515908501529481019461012090930192600101610919565b806109bb6109b6610a4c9385999799612a5a565b6124f8565b5060ff604051916109cb836127a4565b8054835260018060a01b0390816001820154168a8501528160028201541660408501526003810154606085015260048101546080850152600760058201549160a092838701528360068201541660c0870152015491821660e08501521c161515610100820152610a3b8289612898565b52610a468188612898565b50612a4b565b9492946108f6565b8590604097959751610a65816127a4565b86815286838201528660408201528660608201528660808201528660a08201528660c08201528660e08201528661010082015282828a010152019593956108eb565b506108c28180929461299d565b5080fd5b503461027657806003193601126102765760c060075460ff600a546008546009546005549160015493604051968752602087015260408601526060850152608084015260a01c16151560a0820152f35b503461027657806003193601126102765760206040517355d398326f99059ff775485246999027b31979558152f35b503461027657602036600319011261027657610b516124a2565b81546001600160a01b0390610b699082163314612a78565b7fee7760cb405d3beb1072ae2e716857daa45a5dd52bc1383a21173199d32c7dee60406001549281519481851686521693846020820152a16001600160a01b0319161760015580f35b50346102765780600319360112610276576020600c54604051908152f35b503461027657604036600319011261027657610bea6124a2565b81546001600160a01b03916020916105bc91908416610c0a338214612a78565b60405163a9059cbb60e01b81526001600160a01b03909116600482015260248035908201529384928391879183906044820190565b5034610276578060031936011261027657602060405173bb4cdb9cbd36b01bd1cbaebf2de08d9173bc095c8152f35b5034610276578060031936011261027657546040516001600160a01b039091168152602090f35b50346102765780600319360112610276576020604051738ac76a51cc950d9822d68b83fe1ad97b32cd580d8152f35b50346102765780600319360112610276576020600854604051908152f35b503461027657608036600319011261027657610cfc6124a2565b60248035906064359267ffffffffffffffff80851161116f573660238601121561116f57846004013590811161116f578401368382011161116f576001600160a01b039130908316036111335784608091031261112f57610d5e8285016124e4565b908080610d796064610d7260448a016124e4565b98016124e4565b9316951691169280151560001461112557925b6003840284810460031485151715611112576103e890046001810180911161111257610db89085612a5a565b60405163095ea7b360e01b8082526001600160a01b0384166004830152602482018790526020949093909185816044818d8d5af18015611107576110ea575b5060405190610e05826127c1565b600282526040368784013788610e1a8361287b565b5282610e2583612888565b5260784201908142116110d75790610e5e8b82819695948c836040518096819582946338ed173960e01b9b8c8552309160048601612963565b03925af1801561104857610e799186916110bd575b50612888565b51906040519687527310ed43c718714eb63d5aa57b78b54704e256024e92836004890152828a890152888860448189895af191821561107057610f129887936110a0575b5060405195610ecb876127c1565b600287526040368c890137610edf8761287b565b528c610eea87612888565b526040519889968795869485526004850152898d85015260a0604485015260a4840190612926565b90306064840152608483015203925af190811561109557610f5c92849261107b575b5060405163a9059cbb60e01b8152336004820152602481019190915291829081906044820190565b038189895af1801561107057611053575b508060405180936370a0823160e01b825230600483015281875afa918215611048578592611014575b50610fa2600754612a4b565b60075581610ff2575b610fb783600954612a5a565b6009556040519283528201524260408201527ff912d4b5f28d0115563a297c7e01bb967c15e8bed5915ac113d29af5e239393660603392a380f35b610ffd600a54612a4b565b600a5561100c82600854612a5a565b600855610fab565b9080925081813d8311611041575b61102c81836127dd565b8101031261103c57519038610f96565b600080fd5b503d611022565b6040513d87823e3d90fd5b61106990823d84116105f3576105e781836127dd565b5038610f6d565b6040513d88823e3d90fd5b61108e903d808b833e6104e381836127dd565b5038610f34565b6040513d89823e3d90fd5b6110b6908b3d8d116105f3576105e781836127dd565b5038610ebd565b6110d191503d8088833e6104e381836127dd565b38610e73565b634e487b7160e01b8b526011600452878bfd5b61110090863d88116105f3576105e781836127dd565b5038610df7565b6040513d8c823e3d90fd5b634e487b7160e01b875260116004528387fd5b5060443592610d8c565b8480fd5b60405162461bcd60e51b8152602060048201526015818501527420a92124ac1d1024b73b30b634b21039b2b73232b960591b6044820152606490fd5b8580fd5b50346102765780600319360112610276576020604051732170ed0880ac9a755fd29b2688956bd959f933f88152f35b50346102765780600319360112610276576020600454604051908152f35b50346102765780600319360112610276576020604051733a6d8ca21d1cf76f653a67577fa0d27453350dd88152f35b50346102765780600319360112610276576020600554604051908152f35b50346102765760ff61121e36612548565b60015490956001600160a01b039593949392869290916112579133858216148015611454575b61124d906125cb565b60a01c161561260f565b6201518042046006548111611447575b5061127760055460045411612674565b6112856002548611156126c0565b169283875284602092600b84526112a260ff60408b205416612758565b1693604051630dfe168160e01b81528381600481895afa94851561143c5787918a966113fc575b5081169416841495866000146113f55782965b156113ee5788975b6040519585870152166040850152606084015260808301526080825260a082019467ffffffffffffffff86119483871086176113da5786604052843b156113d6579186939188959363022c0d9f60e01b865260a484015260c48301523060e4830152608061010483015281519081610124840152855b8281106113bb57505080820161014401859052601f01601f191681010360a40190829084905af180156113b05761138f578280f35b61139c5760405238808280f35b634e487b7160e01b82526041600452602482fd5b6040513d85823e3d90fd5b8084018083015161014490910152899650889550810161135a565b8780fd5b634e487b7160e01b88526041600452602488fd5b82976112e4565b88966112dc565b85809297508193503d8311611435575b61141681836127dd565b810103126114315751868116810361143157938690816112c9565b8880fd5b503d61140c565b6040513d8b823e3d90fd5b8860055560065538611267565b508a5485163314611244565b50346102765780600319360112610276576020600954604051908152f35b5034610276578060031936011261027657602060ff60015460a01c166040519015158152f35b50346102765760203660031901126102765760043590600c54821015610276576101206114d0836124f8565b5060ff81549160018060a01b03806001830154169181600282015416600382015460048301549060058401549260078660068701541695015496604051998a5260208a015260408901526060880152608087015260a086015260c0850152811660e084015260a01c161515610100820152f35b5034610276578060031936011261027657602060405173d4ae6eca985340dd434d38f470accce4dc78d1098152f35b50346102765760203660031901126102765760043561159b60018060a01b038354163314612a78565b7fd7474166e78731bc168caca1fe1ccebbd6f3c95baee64997902e6b48f442b81a60a06004546040519060608252600e60608301526d19185a5b1e531bdcdcd31a5b5a5d60921b60808301526020820152836040820152a160045580f35b50346102765760203660031901126102765760043561162260018060a01b038354163314612a78565b7fd7474166e78731bc168caca1fe1ccebbd6f3c95baee64997902e6b48f442b81a60a06002546040519060608252600c60608301526b6d6178547261646553697a6560a01b60808301526020820152836040820152a160025580f35b5034610276578060031936011261027657602060405173e9e7cea3dedca5984780bafc599bd69add087d568152f35b50346102765760e0366003190112610276576116c76124a2565b6116cf6124b8565b906044356001600160a01b0381168103611c39576116eb6124ce565b9061170e60ff60015460018060a01b03811633148015611c265761124d906125cb565b6201518042046006548111611c19575b5061172e60055460045411612674565b61173e60025460843511156126c0565b61174c60c43542111561270c565b6001600160a01b0383168552600b602052604085205461176e9060ff16612758565b6040516370a0823160e01b8152306004820152916020836024816001600160a01b0389165afa928315611070578693611be5575b506117b16084358410156127ff565b60405163095ea7b360e01b81526001600160a01b03851660048201526084356024820152602081806044810103818a6001600160a01b038b165af1801561109557611bc6575b508561186081604051611809816127c1565b6002815260403660208301376001600160a01b0389166118288261287b565b526001600160a01b03861661183c82612888565b52604051809381926338ed173960e01b835260c43590309060843560048601612963565b0381836001600160a01b038b165af180156105fa57611885918391611b935750612888565b5160405163095ea7b360e01b81526001600160a01b0387166004820152602481018290529060208280604481010381866001600160a01b038a165af19081156113b05761193a928492611ba7575b50604051906118e1826127c1565b6002825260403660208401376001600160a01b0387166119008361287b565b5261190a82612888565b6001600160a01b03909616958690526040516338ed173960e01b8152938492839260c43591309160048601612963565b0381836001600160a01b038b165af180156105fa5761195f918391611b935750612888565b5160405163095ea7b360e01b81526001600160a01b038716600482015260248101829052929060208460448186865af19384156113b0576119f894611b74575b50604051916119ad836127c1565b6002835260403660208501376119c28361287b565b526001600160a01b0388166119d683612888565b526040516338ed173960e01b8152938492839260c43591309160048601612963565b0381836001600160a01b0389165af1801561107057611b5a575b506040516370a0823160e01b81523060048201526020816024816001600160a01b0389165afa908115611070578691611b08575b508281611a787f5ceb8bc0f4d35e514334c2a5c191990e2c466a5a7d67104dabc48c314e69208095611a7d94116129c0565b61299d565b90611a8c60a4358310156129ff565b611a97600754612a4b565b600755611aa5600a54612a4b565b600a55611ab482600854612a5a565b600855611ac5608435600954612a5a565b60095560408051608435815260208101939093526001600160a01b039485169083018190526060830152426080830152831693909216918060a081015b0390a380f35b90506020813d602011611b52575b81611b23602093836127dd565b8101031261116f57517f5ceb8bc0f4d35e514334c2a5c191990e2c466a5a7d67104dabc48c314e692080611a46565b3d9150611b16565b611b6d903d8088833e6104e381836127dd565b5038611a12565b611b8c9060203d6020116105f3576105e781836127dd565b503861199f565b6110d191503d8085833e6104e381836127dd565b611bbf9060203d6020116105f3576105e781836127dd565b50386118d3565b611bde9060203d6020116105f3576105e781836127dd565b50386117f7565b9092506020813d602011611c11575b81611c01602093836127dd565b8101031261116f575191386117a2565b3d9150611bf4565b856005556006553861171e565b5087546001600160a01b03163314611244565b8380fd5b50346102765760203660031901126102765760209060ff906040906001600160a01b03611c686124a2565b168152600b84522054166040519015158152f35b50346102765780600319360112610276576020600354604051908152f35b503461027657604036600319011261027657611cb46124a2565b60243590811515809203611cf75782546001600160a01b039190611cdb9083163314612a78565b168252600b602052604082209060ff8019835416911617905580f35b8280fd5b503461027657602036600319011261027657600435801515809103610ab457611d2e60018060a01b038354163314612a78565b6001805460ff60a01b191660a09290921b60ff60a01b1691909117905580f35b50346102765780600319360112610276576020600654604051908152f35b5034610276578060031936011261027657602060405173325e343f1de602396e256b67efd1f61c3a6b38bd8152f35b50346102765780600319360112610276576020600254604051908152f35b50346102765760e036600319011261027657611dd36124a2565b611ddb6124b8565b611de36124ce565b6084356001600160a01b0381169003611c3957600154611e1b9060ff90336001600160a01b03821614801561248f5761124d906125cb565b6201518042046006548111612482575b50611e3b60055460045411612674565b611e4b60025460443511156126c0565b611e5960c43542111561270c565b6001600160a01b0381168452600b602052604084205460ff1680612466575b611e8190612758565b6001600160a01b038181166084359091161461242f576040516370a0823160e01b8152306004820152916020836024816001600160a01b0388165afa9283156110485785936123fb575b50611eda6044358410156127ff565b60405163095ea7b360e01b81526001600160a01b03838116600483015260448035602484015260209183919082908a908a165af18015611070576123dc575b50611f8485604051611f2a816127c1565b6002815260403660208301376001600160a01b038716611f498261287b565b52611f5381612888565b6001600160a01b03851690526040516338ed173960e01b815292839182919060c43590309060443560048601612963565b0381836001600160a01b0388165af19081156110705786916123c2575b5080518060001981011161233d5790611fbe916000190190612898565b5160405163095ea7b360e01b81526001600160a01b0360843516600482015260248101829052909390602081806044810103818a6001600160a01b0388165af18015611095576123a3575b5061206f8660405161201a816127c1565b6002815260403660208301376001600160a01b0385166120398261287b565b526001600160a01b03881661204d82612888565b52604051809381926338ed173960e01b835260c4359030908b60048601612963565b0381836084356001600160a01b03165af1801561109557612389575b506040516370a0823160e01b8152306004820152906020826024816001600160a01b038a165afa8015611095578790612351575b6120cf9250611a788282116129c0565b926120de60a4358510156129ff565b61271080850290858204148515171561233d576120fe9060443590612654565b600354116122f857612111600754612a4b565b60075561211f600a54612a4b565b600a5561212e84600854612a5a565b60085561213f604435600954612a5a565b6009556040519061214f826127a4565b4282526001600160a01b03868116602084015283811660408401526044356060840152608083019190915260a0820185905283811660c08301526084351660e08201526001610100820152600c54680100000000000000008110156122e4578060016121be9201600c556124f8565b6122d057815181556020808301516001830180546001600160a01b039283166001600160a01b0319918216179091556040808601516002860180549185169184169190911790556060808701516003870155608080880151600488015560a080890151600589015560c0890151600689018054918816919096161790945560e0880151600790970180546101009099015160ff60a01b901515861b169786166001600160a81b03199099169890981796909617909655805160443581529384019890985295811696820196909652608435861692810192909252429082015290831693909216917f5ceb8bc0f4d35e514334c2a5c191990e2c466a5a7d67104dabc48c314e6920809181908101611b02565b634e487b7160e01b87526004879052602487fd5b634e487b7160e01b87526041600452602487fd5b60405162461bcd60e51b815260206004820152601b60248201527f41524249583a2042656c6f77206d696e2070726f6669742062707300000000006044820152606490fd5b634e487b7160e01b87526011600452602487fd5b506020823d602011612381575b8161236b602093836127dd565b8101031261237d576120cf91516120bf565b8680fd5b3d915061235e565b61239c903d8089833e6104e381836127dd565b503861208b565b6123bb9060203d6020116105f3576105e781836127dd565b5038612009565b6123d691503d8088833e6104e381836127dd565b38611fa1565b6123f49060203d6020116105f3576105e781836127dd565b5038611f19565b9092506020813d602011612427575b81612417602093836127dd565b8101031261112f57519138611ecb565b3d915061240a565b60405162461bcd60e51b815260206004820152600f60248201526e082a48492b07440a6c2daca40888ab608b1b6044820152606490fd5b506084356001600160a01b03168452604084205460ff16611e78565b8460055560065538611e2b565b5086546001600160a01b03163314611244565b600435906001600160a01b038216820361103c57565b602435906001600160a01b038216820361103c57565b606435906001600160a01b038216820361103c57565b35906001600160a01b038216820361103c57565b600c5481101561253257600c60005260031b7fdf6966c971051c3d54ec59162606531493a51404a002842f56009d7e5cf4a8c70190600090565b634e487b7160e01b600052603260045260246000fd5b60a090600319011261103c576001600160a01b03600435818116810361103c5791602435828116810361103c579160443591606435828116810361103c5791608435908116810361103c5790565b606090600319011261103c576001600160a01b0390600435828116810361103c5791602435908116810361103c579060443590565b156125d257565b60405162461bcd60e51b815260206004820152601560248201527410549092560e88139bdd08185d5d1a1bdc9a5e9959605a1b6044820152606490fd5b1561261657565b60405162461bcd60e51b815260206004820152601660248201527510549092560e8810dbdb9d1c9858dd081c185d5cd95960521b6044820152606490fd5b811561265e570490565b634e487b7160e01b600052601260045260246000fd5b1561267b57565b60405162461bcd60e51b815260206004820152601f60248201527f41524249583a204461696c79206c6f7373206c696d69742072656163686564006044820152606490fd5b156126c757565b60405162461bcd60e51b815260206004820152601d60248201527f41524249583a2045786365656473206d61782074726164652073697a650000006044820152606490fd5b1561271357565b60405162461bcd60e51b815260206004820152601760248201527f41524249583a20446561646c696e6520657870697265640000000000000000006044820152606490fd5b1561275f57565b60405162461bcd60e51b815260206004820152601860248201527f41524249583a20556e617070726f76656420726f7574657200000000000000006044820152606490fd5b610120810190811067ffffffffffffffff82111761087557604052565b6060810190811067ffffffffffffffff82111761087557604052565b90601f8019910116810190811067ffffffffffffffff82111761087557604052565b1561280657565b60405162461bcd60e51b815260206004820152601b60248201527f41524249583a20496e73756666696369656e742062616c616e636500000000006044820152606490fd5b9081602091031261103c5751801515810361103c5790565b67ffffffffffffffff81116108755760051b60200190565b8051156125325760200190565b8051600110156125325760400190565b80518210156125325760209160051b010190565b602090818184031261103c5780519067ffffffffffffffff821161103c57019180601f8401121561103c5782516128e281612863565b936128f060405195866127dd565b818552838086019260051b82010192831161103c578301905b828210612917575050505090565b81518152908301908301612909565b90815180825260208080930193019160005b828110612946575050505090565b83516001600160a01b031685529381019392810192600101612938565b90608092612989919695949683526000602084015260a0604084015260a0830190612926565b6001600160a01b0390951660608201520152565b919082039182116129aa57565b634e487b7160e01b600052601160045260246000fd5b156129c757565b60405162461bcd60e51b815260206004820152601060248201526f10549092560e88139bc81c1c9bd99a5d60821b6044820152606490fd5b15612a0657565b60405162461bcd60e51b815260206004820152601760248201527f41524249583a2042656c6f77206d696e2070726f6669740000000000000000006044820152606490fd5b60001981146129aa5760010190565b919082018092116129aa57565b9060048110156125325760051b0190565b15612a7f57565b60405162461bcd60e51b815260206004820152601060248201526f20a92124ac1d102737ba1037bbb732b960811b6044820152606490fdfea26469706673582212207f093e5dcccf73133b2b6ec03d2c7c8c43879de3635181caa02f1a69160db4d564736f6c63430008130033",
  "linkReferences": {},
  "deployedLinkReferences": {}
}