{"contracts/ArbixExecutor.sol":{"ArbixExecutor":{"abi":[{"inputs":[{"internalType":"address","name":"_agent","type":"address"}],"stateMutability":"nonpayable","type":"constructor"},{"anonymous":false,"inputs":[{"indexed":false,"internalType":"address","name":"oldAgent","type":"address"},{"indexed":false,"internalType":"address","name":"newAgent","type":"address"}],"name":"AgentUpdated","type":"event"},{"anonymous":false,"inputs":[{"indexed":true,"internalType":"address","name":"tokenIn","type":"address"},{"indexed":true,"internalType":"address","name":"tokenOut","type":"address"},{"indexed":false,"internalType":"uint256","name":"amountIn","type":"uint256"},{"indexed":false,"internalType":"uint256","name":"profit","type":"uint256"},{"indexed":false,"internalType":"address","name":"dexBuy","type":"address"},{"indexed":false,"internalType":"address","name":"dexSell","type":"address"},{"indexed":false,"internalType":"uint256","name":"timestamp","type":"uint256"}],"name":"ArbitrageExecuted","type":"event"},{"anonymous":false,"inputs":[{"indexed":false,"internalType":"string","name":"reason","type":"string"},{"indexed":false,"internalType":"uint256","name":"value","type":"uint256"},{"indexed":false,"internalType":"uint256","name":"limit","type":"uint256"},{"indexed":false,"internalType":"uint256","name":"timestamp","type":"uint256"}],"name":"CircuitBreakerTriggered","type":"event"},{"anonymous":false,"inputs":[{"indexed":false,"internalType":"string","name":"param","type":"string"},{"indexed":false,"internalType":"uint256","name":"oldValue","type":"uint256"},{"indexed":false,"internalType":"uint256","name":"newValue","type":"uint256"}],"name":"ConfigUpdated","type":"event"},{"anonymous":false,"inputs":[{"indexed":true,"internalType":"address","name":"pair","type":"address"},{"indexed":true,"internalType":"address","name":"tokenBorrow","type":"address"},{"indexed":false,"internalType":"uint256","name":"amountBorrowed","type":"uint256"},{"indexed":false,"internalType":"uint256","name":"profit","type":"uint256"},{"indexed":false,"internalType":"uint256","name":"timestamp","type":"uint256"}],"name":"FlashArbitrageExecuted","type":"event"},{"stateMutability":"payable","type":"fallback"},{"inputs":[],"name":"BABYSWAP_ROUTER","outputs":[{"internalType":"address","name":"","type":"address"}],"stateMutability":"view","type":"function"},{"inputs":[],"name":"BISWAP_ROUTER","outputs":[{"internalType":"address","name":"","type":"address"}],"stateMutability":"view","type":"function"},{"inputs":[],"name":"BTCB","outputs":[{"internalType":"address","name":"","type":"address"}],"stateMutability":"view","type":"function"},{"inputs":[],"name":"BUSD","outputs":[{"internalType":"address","name":"","type":"address"}],"stateMutability":"view","type":"function"},{"inputs":[],"name":"ETH","outputs":[{"internalType":"address","name":"","type":"address"}],"stateMutability":"view","type":"function"},{"inputs":[],"name":"PANCAKESWAP_ROUTER","outputs":[{"internalType":"address","name":"","type":"address"}],"stateMutability":"view","type":"function"},{"inputs":[],"name":"THENA_ROUTER","outputs":[{"internalType":"address","name":"","type":"address"}],"stateMutability":"view","type":"function"},{"inputs":[],"name":"USDC","outputs":[{"internalType":"address","name":"","type":"address"}],"stateMutability":"view","type":"function"},{"inputs":[],"name":"USDT","outputs":[{"internalType":"address","name":"","type":"address"}],"stateMutability":"view","type":"function"},{"inputs":[],"name":"WBNB","outputs":[{"internalType":"address","name":"","type":"address"}],"stateMutability":"view","type":"function"},{"inputs":[],"name":"agent","outputs":[{"internalType":"address","name":"","type":"address"}],"stateMutability":"view","type":"function"},{"inputs":[{"internalType":"address","name":"router","type":"address"},{"internalType":"bool","name":"approved","type":"bool"}],"name":"approveRouter","outputs":[],"stateMutability":"nonpayable","type":"function"},{"inputs":[{"internalType":"address","name":"token","type":"address"},{"internalType":"address","name":"router","type":"address"},{"internalType":"uint256","name":"amount","type":"uint256"}],"name":"approveToken","outputs":[],"stateMutability":"nonpayable","type":"function"},{"inputs":[{"internalType":"address","name":"","type":"address"}],"name":"approvedRouters","outputs":[{"internalType":"bool","name":"","type":"bool"}],"stateMutability":"view","type":"function"},{"inputs":[{"internalType":"address","name":"tokenIn","type":"address"},{"internalType":"address","name":"tokenOut","type":"address"},{"internalType":"uint256","name":"amountIn","type":"uint256"},{"internalType":"address","name":"dexBuy","type":"address"},{"internalType":"address","name":"dexSell","type":"address"}],"name":"calculateArbitrageProfit","outputs":[{"internalType":"uint256","name":"profit","type":"uint256"},{"internalType":"uint256","name":"profitBps","type":"uint256"}],"stateMutability":"view","type":"function"},{"inputs":[],"name":"dailyLoss","outputs":[{"internalType":"uint256","name":"","type":"uint256"}],"stateMutability":"view","type":"function"},{"inputs":[],"name":"dailyLossLimit","outputs":[{"internalType":"uint256","name":"","type":"uint256"}],"stateMutability":"view","type":"function"},{"inputs":[{"internalType":"address","name":"token","type":"address"},{"internalType":"uint256","name":"amount","type":"uint256"}],"name":"emergencyWithdraw","outputs":[],"stateMutability":"nonpayable","type":"function"},{"inputs":[],"name":"emergencyWithdrawBNB","outputs":[],"stateMutability":"nonpayable","type":"function"},{"inputs":[{"internalType":"address","name":"tokenIn","type":"address"},{"internalType":"address","name":"tokenOut","type":"address"},{"internalType":"uint256","name":"amountIn","type":"uint256"},{"internalType":"address","name":"dexBuy","type":"address"},{"internalType":"address","name":"dexSell","type":"address"},{"internalType":"uint256","name":"minProfit","type":"uint256"},{"internalType":"uint256","name":"deadline","type":"uint256"}],"name":"executeCrossDexArbitrage","outputs":[],"stateMutability":"nonpayable","type":"function"},{"inputs":[{"internalType":"address","name":"pair","type":"address"},{"internalType":"address","name":"tokenBorrow","type":"address"},{"internalType":"uint256","name":"amount","type":"uint256"},{"internalType":"address","name":"dexSell","type":"address"},{"internalType":"address","name":"tokenOut","type":"address"}],"name":"executeFlashArbitrage","outputs":[],"stateMutability":"nonpayable","type":"function"},{"inputs":[{"internalType":"address","name":"router","type":"address"},{"internalType":"address","name":"tokenA","type":"address"},{"internalType":"address","name":"tokenB","type":"address"},{"internalType":"address","name":"tokenC","type":"address"},{"internalType":"uint256","name":"amountIn","type":"uint256"},{"internalType":"uint256","name":"minProfit","type":"uint256"},{"internalType":"uint256","name":"deadline","type":"uint256"}],"name":"executeTriangularArbitrage","outputs":[],"stateMutability":"nonpayable","type":"function"},{"inputs":[{"internalType":"address","name":"tokenIn","type":"address"},{"internalType":"address","name":"tokenOut","type":"address"},{"internalType":"uint256","name":"amountIn","type":"uint256"}],"name":"getBestPrice","outputs":[{"internalType":"address","name":"bestRouter","type":"address"},{"internalType":"uint256","name":"bestAmountOut","type":"uint256"},{"internalType":"uint256[4]","name":"prices","type":"uint256[4]"}],"stateMutability":"view","type":"function"},{"inputs":[{"internalType":"uint256","name":"count","type":"uint256"}],"name":"getRecentTrades","outputs":[{"components":[{"internalType":"uint256","name":"timestamp","type":"uint256"},{"internalType":"address","name":"tokenIn","type":"address"},{"internalType":"address","name":"tokenOut","type":"address"},{"internalType":"uint256","name":"amountIn","type":"uint256"},{"internalType":"uint256","name":"amountOut","type":"uint256"},{"internalType":"uint256","name":"profit","type":"uint256"},{"internalType":"address","name":"dexBuy","type":"address"},{"internalType":"address","name":"dexSell","type":"address"},{"internalType":"bool","name":"success","type":"bool"}],"internalType":"struct ArbixExecutor.TradeRecord[]","name":"","type":"tuple[]"}],"stateMutability":"view","type":"function"},{"inputs":[],"name":"getStats","outputs":[{"internalType":"uint256","name":"_totalTrades","type":"uint256"},{"internalType":"uint256","name":"_successfulTrades","type":"uint256"},{"internalType":"uint256","name":"_totalProfit","type":"uint256"},{"internalType":"uint256","name":"_totalVolume","type":"uint256"},{"internalType":"uint256","name":"_dailyLoss","type":"uint256"},{"internalType":"bool","name":"_paused","type":"bool"}],"stateMutability":"view","type":"function"},{"inputs":[],"name":"getTradeCount","outputs":[{"internalType":"uint256","name":"","type":"uint256"}],"stateMutability":"view","type":"function"},{"inputs":[],"name":"lastResetDay","outputs":[{"internalType":"uint256","name":"","type":"uint256"}],"stateMutability":"view","type":"function"},{"inputs":[],"name":"maxTradeSize","outputs":[{"internalType":"uint256","name":"","type":"uint256"}],"stateMutability":"view","type":"function"},{"inputs":[],"name":"minProfitBps","outputs":[{"internalType":"uint256","name":"","type":"uint256"}],"stateMutability":"view","type":"function"},{"inputs":[],"name":"owner","outputs":[{"internalType":"address","name":"","type":"address"}],"stateMutability":"view","type":"function"},{"inputs":[{"internalType":"address","name":"sender","type":"address"},{"internalType":"uint256","name":"amount0","type":"uint256"},{"internalType":"uint256","name":"amount1","type":"uint256"},{"internalType":"bytes","name":"data","type":"bytes"}],"name":"pancakeCall","outputs":[],"stateMutability":"nonpayable","type":"function"},{"inputs":[],"name":"paused","outputs":[{"internalType":"bool","name":"","type":"bool"}],"stateMutability":"view","type":"function"},{"inputs":[{"internalType":"address","name":"_agent","type":"address"}],"name":"setAgent","outputs":[],"stateMutability":"nonpayable","type":"function"},{"inputs":[{"internalType":"uint256","name":"_limit","type":"uint256"}],"name":"setDailyLossLimit","outputs":[],"stateMutability":"nonpayable","type":"function"},{"inputs":[{"internalType":"uint256","name":"_max","type":"uint256"}],"name":"setMaxTradeSize","outputs":[],"stateMutability":"nonpayable","type":"function"},{"inputs":[{"internalType":"uint256","name":"_bps","type":"uint256"}],"name":"setMinProfitBps","outputs":[],"stateMutability":"nonpayable","type":"function"},{"inputs":[{"internalType":"bool","name":"_paused","type":"bool"}],"name":"setPaused","outputs":[],"stateMutability":"nonpayable","type":"function"},{"inputs":[],"name":"successfulTrades","outputs":[{"internalType":"uint256","name":"","type":"uint256"}],"stateMutability":"view","type":"function"},{"inputs":[],"name":"totalProfit","outputs":[{"internalType":"uint256","name":"","type":"uint256"}],"stateMutability":"view","type":"function"},{"inputs":[],"name":"totalTrades","outputs":[{"internalType":"uint256","name":"","type":"uint256"}],"stateMutability":"view","type":"function"},{"inputs":[],"name":"totalVolume","outputs":[{"internalType":"uint256","name":"","type":"uint256"}],"stateMutability":"view","type":"function"},{"inputs":[{"internalType":"uint256","name":"","type":"uint256"}],"name":"tradeHistory","outputs":[{"internalType":"uint256","name":"timestamp","type":"uint256"},{"internalType":"address","name":"tokenIn","type":"address"},{"internalType":"address","name":"tokenOut","type":"address"},{"internalType":"uint256","name":"amountIn","type":"uint256"},{"internalType":"uint256","name":"amountOut","type":"uint256"},{"internalType":"uint256","name":"profit","type":"uint256"},{"internalType":"address","name":"dexBuy","type":"address"},{"internalType":"address","name":"dexSell","type":"address"},{"internalType":"bool","name":"success","type":"bool"}],"stateMutability":"view","type":"function"},{"stateMutability":"payable","type":"receive"}],"evm":{"bytecode":{"linkReferences":{},"object":"60803461013957601f62002c4238819003918201601f191683019291906001600160401b0384118385101761013e57816020928492604096875283398101031261013957516001600160a01b038116908190036101395769021e19e0c9bab24000006002556005600355681b1ae4d6e2ef50000060045560018060a01b031960009133828454161783556001918254161781556201518042046006557310ed43c718714eb63d5aa57b78b54704e256024e8252600b602052828083209260ff19938385825416179055733a6d8ca21d1cf76f653a67577fa0d27453350dd88152818120838582541617905573d4ae6eca985340dd434d38f470accce4dc78d1098152818120838582541617905573325e343f1de602396e256b67efd1f61c3a6b38bd8152209182541617905551612aed9081620001558239f35b600080fd5b634e487b7160e01b600052604160045260246000fdfe60806040526004361015610018575b361561001657005b005b6000803560e01c80630b33c64214611db957806310fa79e214611d9b578063121a0bae14611d6c5780631259a5c814611d4e57806316c38b3c14611cfb5780632a9d339d14611c9a578063383aeeae14611c7c578063445b1e4b14611c3d57806347bcf478146116ad578063484f4ea91461167e5780634b3f3378146115f95780635439dc861461157257806359f73318146115435780635b0c5dbd146114a45780635c975abb1461147e5780635f81a57c14611460578063611c60b61461120d578063658a6bc4146111ef578063778ffbda146111c0578063779e306b146111a25780638322fff2146111735780638480081214610ce25780638600151914610cc457806389a3027114610c955780638da5cb5b14610c6e5780638dd9500214610c3f57806395ccea6714610bd0578063a3031b7714610bb2578063bcf685ed14610b37578063c54e44eb14610b08578063c59d484714610ab8578063c63877eb1461088b578063d6d2aedb14610605578063da3e33971461055b578063e1a504e51461052c578063e275c9971461050e578063e943f09014610341578063e9c9f44f14610312578063f26b854f146102c0578063f5ff5c7614610297578063fc213996146102795763fcff2c28146101f2575061000e565b346102765760203660031901126102765760043561021a60018060a01b038354163314612a78565b7fd7474166e78731bc168caca1fe1ccebbd6f3c95baee64997902e6b48f442b81a60a06003546040519060608252600c60608301526b6d696e50726f66697442707360a01b60808301526020820152836040820152a160035580f35b80fd5b50346102765780600319360112610276576020600a54604051908152f35b50346102765780600319360112610276576001546040516001600160a01b039091168152602090f35b50346102765780600319360112610276578080808060018060a01b038154166102ea813314612a78565b4790828215610309575bf1156102fd5780f35b604051903d90823e3d90fd5b506108fc6102f4565b50346102765780600319360112610276576020604051737130d2a12b9bcbfae4f2634d864a1ee1ce3ead9c8152f35b50346102765761035036612548565b85929594939194508583958495856103fd6040519361036e856127c1565b6002855260403660208701376103838561287b565b6001600160a01b039485169081905293948594856103a083612888565b9a16809a52604051996103b28b6127c1565b60028b5260403660208d01376103c78b61287b565b526103d18a612888565b5260405194858094819363d06ca61f60e01b9a8b84526004840152604060248401526044830190612926565b0392165afa8691816104f2575b50610420575b6040888882519182526020820152f35b918593916104316104559694612888565b51916040519687958694859384526004840152604060248401526044830190612926565b0392165afa8291816104ce575b50610471575b80808080610410565b61047a90612888565b51848111156104685784919350610491925061299d565b90612710908183029183830414831517156104ba57506040926104b391612654565b3880610468565b634e487b7160e01b81526011600452602490fd5b6104eb9192503d8085833e6104e381836127dd565b8101906128ac565b9038610462565b6105079192503d8089833e6104e381836127dd565b903861040a565b50346102765780600319360112610276576020600754604051908152f35b503461027657806003193601126102765760206040517310ed43c718714eb63d5aa57b78b54704e256024e8152f35b5034610276576105bc602061056f36612596565b91908560018060a01b03610587818354163314612a78565b60405163095ea7b360e01b81526001600160a01b03909316600484015260248301949094529094859384929183906044820190565b0393165af180156105fa576105cf575080f35b6105ef9060203d81116105f3575b6105e781836127dd565b81019061284b565b5080f35b503d6105dd565b6040513d84823e3d90fd5b50346102765761061436612596565b6040519284919067ffffffffffffffff6080860181811187821017610875576040526080368737604051906080820190811182821017610875576040969496527310ed43c718714eb63d5aa57b78b54704e256024e8152602094733a6d8ca21d1cf76f653a67577fa0d27453350dd88683015273d4ae6eca985340dd434d38f470accce4dc78d109604083015273325e343f1de602396e256b67efd1f61c3a6b38bd6060830152604051906106c8826127c1565b60028252604036888401376106dc8261287b565b6001600160a01b039485169052836106f383612888565b911690528693875b6004811061073c57505050506040519516855282850152604084019092905b600482106107275760c085f35b8280600192865181520194019101909261071a565b8461074a82869b999b612a67565b511660405163d06ca61f60e01b815283600482015288816024936040858301528180610779604482018b612926565b03915afa899181610859575b506107a9575050808761079b6107a1938c612a67565b52612a4b565b9795976106fb565b80516000199290838101908111610846576107d0856107c98f9386612898565b5192612a67565b528151838101908111610846576107e88a9184612898565b51116107fb575b5050506107a190612a4b565b9193975080929b505192830192831161083457509061081991612898565b51936107a1846108298b86612a67565b5116999038806107ef565b634e487b7160e01b8852601160045287fd5b50634e487b7160e01b8a52601160045289fd5b61086e9192503d808c833e6104e381836127dd565b9038610785565b634e487b7160e01b600052604160045260246000fd5b503461027657602080600319360112610ab457600c549160043580841115610aa7576108ba6108c2918561299d565b80929461299d565b6108cb81612863565b916108d960405193846127dd565b818352601f196108e883612863565b01855b818110610a54575050845b8281106109a2575050506040519180830190808452825180925280604085019301945b8281106109265784840385f35b855180518552808301516001600160a01b0390811686850152604080830151821690870152606080830151908701526080808301519087015260a0808301519087015260c08083015182169087015260e08083015190911690860152610100908101511515908501529481019461012090930192600101610919565b806109bb6109b6610a4c9385999799612a5a565b6124f8565b5060ff604051916109cb836127a4565b8054835260018060a01b0390816001820154168a8501528160028201541660408501526003810154606085015260048101546080850152600760058201549160a092838701528360068201541660c0870152015491821660e08501521c161515610100820152610a3b8289612898565b52610a468188612898565b50612a4b565b9492946108f6565b8590604097959751610a65816127a4565b86815286838201528660408201528660608201528660808201528660a08201528660c08201528660e08201528661010082015282828a010152019593956108eb565b506108c28180929461299d565b5080fd5b503461027657806003193601126102765760c060075460ff600a546008546009546005549160015493604051968752602087015260408601526060850152608084015260a01c16151560a0820152f35b503461027657806003193601126102765760206040517355d398326f99059ff775485246999027b31979558152f35b503461027657602036600319011261027657610b516124a2565b81546001600160a01b0390610b699082163314612a78565b7fee7760cb405d3beb1072ae2e716857daa45a5dd52bc1383a21173199d32c7dee60406001549281519481851686521693846020820152a16001600160a01b0319161760015580f35b50346102765780600319360112610276576020600c54604051908152f35b503461027657604036600319011261027657610bea6124a2565b81546001600160a01b03916020916105bc91908416610c0a338214612a78565b60405163a9059cbb60e01b81526001600160a01b03909116600482015260248035908201529384928391879183906044820190565b5034610276578060031936011261027657602060405173bb4cdb9cbd36b01bd1cbaebf2de08d9173bc095c8152f35b5034610276578060031936011261027657546040516001600160a01b039091168152602090f35b50346102765780600319360112610276576020604051738ac76a51cc950d9822d68b83fe1ad97b32cd580d8152f35b50346102765780600319360112610276576020600854604051908152f35b503461027657608036600319011261027657610cfc6124a2565b60248035906064359267ffffffffffffffff80851161116f573660238601121561116f57846004013590811161116f578401368382011161116f576001600160a01b039130908316036111335784608091031261112f57610d5e8285016124e4565b908080610d796064610d7260448a016124e4565b98016124e4565b9316951691169280151560001461112557925b6003840284810460031485151715611112576103e890046001810180911161111257610db89085612a5a565b60405163095ea7b360e01b8082526001600160a01b0384166004830152602482018790526020949093909185816044818d8d5af18015611107576110ea575b5060405190610e05826127c1565b600282526040368784013788610e1a8361287b565b5282610e2583612888565b5260784201908142116110d75790610e5e8b82819695948c836040518096819582946338ed173960e01b9b8c8552309160048601612963565b03925af1801561104857610e799186916110bd575b50612888565b51906040519687527310ed43c718714eb63d5aa57b78b54704e256024e92836004890152828a890152888860448189895af191821561107057610f129887936110a0575b5060405195610ecb876127c1565b600287526040368c890137610edf8761287b565b528c610eea87612888565b526040519889968795869485526004850152898d85015260a0604485015260a4840190612926565b90306064840152608483015203925af190811561109557610f5c92849261107b575b5060405163a9059cbb60e01b8152336004820152602481019190915291829081906044820190565b038189895af1801561107057611053575b508060405180936370a0823160e01b825230600483015281875afa918215611048578592611014575b50610fa2600754612a4b565b60075581610ff2575b610fb783600954612a5a565b6009556040519283528201524260408201527ff912d4b5f28d0115563a297c7e01bb967c15e8bed5915ac113d29af5e239393660603392a380f35b610ffd600a54612a4b565b600a5561100c82600854612a5a565b600855610fab565b9080925081813d8311611041575b61102c81836127dd565b8101031261103c57519038610f96565b600080fd5b503d611022565b6040513d87823e3d90fd5b61106990823d84116105f3576105e781836127dd565b5038610f6d565b6040513d88823e3d90fd5b61108e903d808b833e6104e381836127dd565b5038610f34565b6040513d89823e3d90fd5b6110b6908b3d8d116105f3576105e781836127dd565b5038610ebd565b6110d191503d8088833e6104e381836127dd565b38610e73565b634e487b7160e01b8b526011600452878bfd5b61110090863d88116105f3576105e781836127dd565b5038610df7565b6040513d8c823e3d90fd5b634e487b7160e01b875260116004528387fd5b5060443592610d8c565b8480fd5b60405162461bcd60e51b8152602060048201526015818501527420a92124ac1d1024b73b30b634b21039b2b73232b960591b6044820152606490fd5b8580fd5b50346102765780600319360112610276576020604051732170ed0880ac9a755fd29b2688956bd959f933f88152f35b50346102765780600319360112610276576020600454604051908152f35b50346102765780600319360112610276576020604051733a6d8ca21d1cf76f653a67577fa0d27453350dd88152f35b50346102765780600319360112610276576020600554604051908152f35b50346102765760ff61121e36612548565b60015490956001600160a01b039593949392869290916112579133858216148015611454575b61124d906125cb565b60a01c161561260f565b6201518042046006548111611447575b5061127760055460045411612674565b6112856002548611156126c0565b169283875284602092600b84526112a260ff60408b205416612758565b1693604051630dfe168160e01b81528381600481895afa94851561143c5787918a966113fc575b5081169416841495866000146113f55782965b156113ee5788975b6040519585870152166040850152606084015260808301526080825260a082019467ffffffffffffffff86119483871086176113da5786604052843b156113d6579186939188959363022c0d9f60e01b865260a484015260c48301523060e4830152608061010483015281519081610124840152855b8281106113bb57505080820161014401859052601f01601f191681010360a40190829084905af180156113b05761138f578280f35b61139c5760405238808280f35b634e487b7160e01b82526041600452602482fd5b6040513d85823e3d90fd5b8084018083015161014490910152899650889550810161135a565b8780fd5b634e487b7160e01b88526041600452602488fd5b82976112e4565b88966112dc565b85809297508193503d8311611435575b61141681836127dd565b810103126114315751868116810361143157938690816112c9565b8880fd5b503d61140c565b6040513d8b823e3d90fd5b8860055560065538611267565b508a5485163314611244565b50346102765780600319360112610276576020600954604051908152f35b5034610276578060031936011261027657602060ff60015460a01c166040519015158152f35b50346102765760203660031901126102765760043590600c54821015610276576101206114d0836124f8565b5060ff81549160018060a01b03806001830154169181600282015416600382015460048301549060058401549260078660068701541695015496604051998a5260208a015260408901526060880152608087015260a086015260c0850152811660e084015260a01c161515610100820152f35b5034610276578060031936011261027657602060405173d4ae6eca985340dd434d38f470accce4dc78d1098152f35b50346102765760203660031901126102765760043561159b60018060a01b038354163314612a78565b7fd7474166e78731bc168caca1fe1ccebbd6f3c95baee64997902e6b48f442b81a60a06004546040519060608252600e60608301526d19185a5b1e531bdcdcd31a5b5a5d60921b60808301526020820152836040820152a160045580f35b50346102765760203660031901126102765760043561162260018060a01b038354163314612a78565b7fd7474166e78731bc168caca1fe1ccebbd6f3c95baee64997902e6b48f442b81a60a06002546040519060608252600c60608301526b6d6178547261646553697a6560a01b60808301526020820152836040820152a160025580f35b5034610276578060031936011261027657602060405173e9e7cea3dedca5984780bafc599bd69add087d568152f35b50346102765760e0366003190112610276576116c76124a2565b6116cf6124b8565b906044356001600160a01b0381168103611c39576116eb6124ce565b9061170e60ff60015460018060a01b03811633148015611c265761124d906125cb565b6201518042046006548111611c19575b5061172e60055460045411612674565b61173e60025460843511156126c0565b61174c60c43542111561270c565b6001600160a01b0383168552600b602052604085205461176e9060ff16612758565b6040516370a0823160e01b8152306004820152916020836024816001600160a01b0389165afa928315611070578693611be5575b506117b16084358410156127ff565b60405163095ea7b360e01b81526001600160a01b03851660048201526084356024820152602081806044810103818a6001600160a01b038b165af1801561109557611bc6575b508561186081604051611809816127c1565b6002815260403660208301376001600160a01b0389166118288261287b565b526001600160a01b03861661183c82612888565b52604051809381926338ed173960e01b835260c43590309060843560048601612963565b0381836001600160a01b038b165af180156105fa57611885918391611b935750612888565b5160405163095ea7b360e01b81526001600160a01b0387166004820152602481018290529060208280604481010381866001600160a01b038a165af19081156113b05761193a928492611ba7575b50604051906118e1826127c1565b6002825260403660208401376001600160a01b0387166119008361287b565b5261190a82612888565b6001600160a01b03909616958690526040516338ed173960e01b8152938492839260c43591309160048601612963565b0381836001600160a01b038b165af180156105fa5761195f918391611b935750612888565b5160405163095ea7b360e01b81526001600160a01b038716600482015260248101829052929060208460448186865af19384156113b0576119f894611b74575b50604051916119ad836127c1565b6002835260403660208501376119c28361287b565b526001600160a01b0388166119d683612888565b526040516338ed173960e01b8152938492839260c43591309160048601612963565b0381836001600160a01b0389165af1801561107057611b5a575b506040516370a0823160e01b81523060048201526020816024816001600160a01b0389165afa908115611070578691611b08575b508281611a787f5ceb8bc0f4d35e514334c2a5c191990e2c466a5a7d67104dabc48c314e69208095611a7d94116129c0565b61299d565b90611a8c60a4358310156129ff565b611a97600754612a4b565b600755611aa5600a54612a4b565b600a55611ab482600854612a5a565b600855611ac5608435600954612a5a565b60095560408051608435815260208101939093526001600160a01b039485169083018190526060830152426080830152831693909216918060a081015b0390a380f35b90506020813d602011611b52575b81611b23602093836127dd565b8101031261116f57517f5ceb8bc0f4d35e514334c2a5c191990e2c466a5a7d67104dabc48c314e692080611a46565b3d9150611b16565b611b6d903d8088833e6104e381836127dd565b5038611a12565b611b8c9060203d6020116105f3576105e781836127dd565b503861199f565b6110d191503d8085833e6104e381836127dd565b611bbf9060203d6020116105f3576105e781836127dd565b50386118d3565b611bde9060203d6020116105f3576105e781836127dd565b50386117f7565b9092506020813d602011611c11575b81611c01602093836127dd565b8101031261116f575191386117a2565b3d9150611bf4565b856005556006553861171e565b5087546001600160a01b03163314611244565b8380fd5b50346102765760203660031901126102765760209060ff906040906001600160a01b03611c686124a2565b168152600b84522054166040519015158152f35b50346102765780600319360112610276576020600354604051908152f35b503461027657604036600319011261027657611cb46124a2565b60243590811515809203611cf75782546001600160a01b039190611cdb9083163314612a78565b168252600b602052604082209060ff8019835416911617905580f35b8280fd5b503461027657602036600319011261027657600435801515809103610ab457611d2e60018060a01b038354163314612a78565b6001805460ff60a01b191660a09290921b60ff60a01b1691909117905580f35b50346102765780600319360112610276576020600654604051908152f35b5034610276578060031936011261027657602060405173325e343f1de602396e256b67efd1f61c3a6b38bd8152f35b50346102765780600319360112610276576020600254604051908152f35b50346102765760e036600319011261027657611dd36124a2565b611ddb6124b8565b611de36124ce565b6084356001600160a01b0381169003611c3957600154611e1b9060ff90336001600160a01b03821614801561248f5761124d906125cb565b6201518042046006548111612482575b50611e3b60055460045411612674565b611e4b60025460443511156126c0565b611e5960c43542111561270c565b6001600160a01b0381168452600b602052604084205460ff1680612466575b611e8190612758565b6001600160a01b038181166084359091161461242f576040516370a0823160e01b8152306004820152916020836024816001600160a01b0388165afa9283156110485785936123fb575b50611eda6044358410156127ff565b60405163095ea7b360e01b81526001600160a01b03838116600483015260448035602484015260209183919082908a908a165af18015611070576123dc575b50611f8485604051611f2a816127c1565b6002815260403660208301376001600160a01b038716611f498261287b565b52611f5381612888565b6001600160a01b03851690526040516338ed173960e01b815292839182919060c43590309060443560048601612963565b0381836001600160a01b0388165af19081156110705786916123c2575b5080518060001981011161233d5790611fbe916000190190612898565b5160405163095ea7b360e01b81526001600160a01b0360843516600482015260248101829052909390602081806044810103818a6001600160a01b0388165af18015611095576123a3575b5061206f8660405161201a816127c1565b6002815260403660208301376001600160a01b0385166120398261287b565b526001600160a01b03881661204d82612888565b52604051809381926338ed173960e01b835260c4359030908b60048601612963565b0381836084356001600160a01b03165af1801561109557612389575b506040516370a0823160e01b8152306004820152906020826024816001600160a01b038a165afa8015611095578790612351575b6120cf9250611a788282116129c0565b926120de60a4358510156129ff565b61271080850290858204148515171561233d576120fe9060443590612654565b600354116122f857612111600754612a4b565b60075561211f600a54612a4b565b600a5561212e84600854612a5a565b60085561213f604435600954612a5a565b6009556040519061214f826127a4565b4282526001600160a01b03868116602084015283811660408401526044356060840152608083019190915260a0820185905283811660c08301526084351660e08201526001610100820152600c54680100000000000000008110156122e4578060016121be9201600c556124f8565b6122d057815181556020808301516001830180546001600160a01b039283166001600160a01b0319918216179091556040808601516002860180549185169184169190911790556060808701516003870155608080880151600488015560a080890151600589015560c0890151600689018054918816919096161790945560e0880151600790970180546101009099015160ff60a01b901515861b169786166001600160a81b03199099169890981796909617909655805160443581529384019890985295811696820196909652608435861692810192909252429082015290831693909216917f5ceb8bc0f4d35e514334c2a5c191990e2c466a5a7d67104dabc48c314e6920809181908101611b02565b634e487b7160e01b87526004879052602487fd5b634e487b7160e01b87526041600452602487fd5b60405162461bcd60e51b815260206004820152601b60248201527f41524249583a2042656c6f77206d696e2070726f6669742062707300000000006044820152606490fd5b634e487b7160e01b87526011600452602487fd5b506020823d602011612381575b8161236b602093836127dd565b8101031261237d576120cf91516120bf565b8680fd5b3d915061235e565b61239c903d8089833e6104e381836127dd565b503861208b565b6123bb9060203d6020116105f3576105e781836127dd565b5038612009565b6123d691503d8088833e6104e381836127dd565b38611fa1565b6123f49060203d6020116105f3576105e781836127dd565b5038611f19565b9092506020813d602011612427575b81612417602093836127dd565b8101031261112f57519138611ecb565b3d915061240a565b60405162461bcd60e51b815260206004820152600f60248201526e082a48492b07440a6c2daca40888ab608b1b6044820152606490fd5b506084356001600160a01b03168452604084205460ff16611e78565b8460055560065538611e2b565b5086546001600160a01b03163314611244565b600435906001600160a01b038216820361103c57565b602435906001600160a01b038216820361103c57565b606435906001600160a01b038216820361103c57565b35906001600160a01b038216820361103c57565b600c5481101561253257600c60005260031b7fdf6966c971051c3d54ec59162606531493a51404a002842f56009d7e5cf4a8c70190600090565b634e487b7160e01b600052603260045260246000fd5b60a090600319011261103c576001600160a01b03600435818116810361103c5791602435828116810361103c579160443591606435828116810361103c5791608435908116810361103c5790565b606090600319011261103c576001600160a01b0390600435828116810361103c5791602435908116810361103c579060443590565b156125d257565b60405162461bcd60e51b815260206004820152601560248201527410549092560e88139bdd08185d5d1a1bdc9a5e9959605a1b6044820152606490fd5b1561261657565b60405162461bcd60e51b815260206004820152601660248201527510549092560e8810dbdb9d1c9858dd081c185d5cd95960521b6044820152606490fd5b811561265e570490565b634e487b7160e01b600052601260045260246000fd5b1561267b57565b60405162461bcd60e51b815260206004820152601f60248201527f41524249583a204461696c79206c6f7373206c696d69742072656163686564006044820152606490fd5b156126c757565b60405162461bcd60e51b815260206004820152601d60248201527f41524249583a2045786365656473206d61782074726164652073697a650000006044820152606490fd5b1561271357565b60405162461bcd60e51b815260206004820152601760248201527f41524249583a20446561646c696e6520657870697265640000000000000000006044820152606490fd5b1561275f57565b60405162461bcd60e51b815260206004820152601860248201527f41524249583a20556e617070726f76656420726f7574657200000000000000006044820152606490fd5b610120810190811067ffffffffffffffff82111761087557604052565b6060810190811067ffffffffffffffff82111761087557604052565b90601f8019910116810190811067ffffffffffffffff82111761087557604052565b1561280657565b60405162461bcd60e51b815260206004820152601b60248201527f41524249583a20496e73756666696369656e742062616c616e636500000000006044820152606490fd5b9081602091031261103c5751801515810361103c5790565b67ffffffffffffffff81116108755760051b60200190565b8051156125325760200190565b8051600110156125325760400190565b80518210156125325760209160051b010190565b602090818184031261103c5780519067ffffffffffffffff821161103c57019180601f8401121561103c5782516128e281612863565b936128f060405195866127dd565b818552838086019260051b82010192831161103c578301905b828210612917575050505090565b81518152908301908301612909565b90815180825260208080930193019160005b828110612946575050505090565b83516001600160a01b031685529381019392810192600101612938565b90608092612989919695949683526000602084015260a0604084015260a0830190612926565b6001600160a01b0390951660608201520152565b919082039182116129aa57565b634e487b7160e01b600052601160045260246000fd5b156129c757565b60405162461bcd60e51b815260206004820152601060248201526f10549092560e88139bc81c1c9bd99a5d60821b6044820152606490fd5b15612a0657565b60405162461bcd60e51b815260206004820152601760248201527f41524249583a2042656c6f77206d696e2070726f6669740000000000000000006044820152606490fd5b60001981146129aa5760010190565b919082018092116129aa57565b9060048110156125325760051b0190565b15612a7f57565b60405162461bcd60e51b815260206004820152601060248201526f20a92124ac1d102737ba1037bbb732b960811b6044820152606490fdfea26469706673582212207f093e5dcccf73133b2b6ec03d2c7c8c43879de3635181caa02f1a69160db4d564736f6c63430008130033","opcodes":"PUSH1 0x80 CALLVALUE PUSH2 0x139 JUMPI PUSH1 0x1F PUSH3 0x2C42 CODESIZE DUP2 SWAP1 SUB SWAP2 DUP3 ADD PUSH1 0x1F NOT AND DUP4 ADD SWAP3 SWAP2 SWAP1 PUSH1 0x1 PUSH1 0x1 PUSH1 0x40 SHL SUB DUP5 GT DUP4 DUP6 LT OR PUSH2 0x13E JUMPI DUP2 PUSH1 0x20 SWAP3 DUP5 SWAP3 PUSH1 0x40 SWAP7 DUP8 MSTORE DUP4 CODECOPY DUP2 ADD SUB SLT PUSH2 0x139 JUMPI MLOAD PUSH1 0x1 PUSH1 0x1 PUSH1 0xA0 SHL SUB DUP2 AND SWAP1 DUP2 SWAP1 SUB PUSH2 0x139 JUMPI PUSH10 0x21E19E0C9BAB2400000 PUSH1 0x2 SSTORE PUSH1 0x5 PUSH1 0x3 SSTORE PUSH9 0x1B1AE4D6E2EF500000 PUSH1 0x4 SSTORE PUSH1 0x1 DUP1 PUSH1 0xA0 SHL SUB NOT PUSH1 0x0 SWAP2 CALLER DUP3 DUP5 SLOAD AND OR DUP4 SSTORE PUSH1 0x1 SWAP2 DUP3 SLOAD AND OR DUP2 SSTORE PUSH3 0x15180 TIMESTAMP DIV PUSH1 0x6 SSTORE PUSH20 0x10ED43C718714EB63D5AA57B78B54704E256024E DUP3 MSTORE PUSH1 0xB PUSH1 0x20 MSTORE DUP3 DUP1 DUP4 KECCAK256 SWAP3 PUSH1 0xFF NOT SWAP4 DUP4 DUP6 DUP3 SLOAD AND OR SWAP1 SSTORE PUSH20 0x3A6D8CA21D1CF76F653A67577FA0D27453350DD8 DUP2 MSTORE DUP2 DUP2 KECCAK256 DUP4 DUP6 DUP3 SLOAD AND OR SWAP1 SSTORE PUSH20 0xD4AE6ECA985340DD434D38F470ACCCE4DC78D109 DUP2 MSTORE DUP2 DUP2 KECCAK256 DUP4 DUP6 DUP3 SLOAD AND OR SWAP1 SSTORE PUSH20 0x325E343F1DE602396E256B67EFD1F61C3A6B38BD DUP2 MSTORE KECCAK256 SWAP2 DUP3 SLOAD AND OR SWAP1 SSTORE MLOAD PUSH2 0x2AED SWAP1 DUP2 PUSH3 0x155 DUP3 CODECOPY RETURN JUMPDEST PUSH1 0x0 DUP1 REVERT JUMPDEST PUSH4 0x4E487B71 PUSH1 0xE0 SHL PUSH1 0x0 MSTORE PUSH1 0x41 PUSH1 0x4 MSTORE PUSH1 0x24 PUSH1 0x0 REVERT INVALID PUSH1 0x80 PUSH1 0x40 MSTORE PUSH1 0x4 CALLDATASIZE LT ISZERO PUSH2 0x18 JUMPI JUMPDEST CALLDATASIZE ISZERO PUSH2 0x16 JUMPI STOP JUMPDEST STOP JUMPDEST PUSH1 0x0 DUP1 CALLDATALOAD PUSH1 0xE0 SHR DUP1 PUSH4 0xB33C642 EQ PUSH2 0x1DB9 JUMPI DUP1 PUSH4 0x10FA79E2 EQ PUSH2 0x1D9B JUMPI DUP1 PUSH4 0x121A0BAE EQ PUSH2 0x1D6C JUMPI DUP1 PUSH4 0x1259A5C8 EQ PUSH2 0x1D4E JUMPI DUP1 PUSH4 0x16C38B3C EQ PUSH2 0x1CFB JUMPI DUP1 PUSH4 0x2A9D339D EQ PUSH2 0x1C9A JUMPI DUP1 PUSH4 0x383AEEAE EQ PUSH2 0x1C7C JUMPI DUP1 PUSH4 0x445B1E4B EQ PUSH2 0x1C3D JUMPI DUP1 PUSH4 0x47BCF478 EQ PUSH2 0x16AD JUMPI DUP1 PUSH4 0x484F4EA9 EQ PUSH2 0x167E JUMPI DUP1 PUSH4 0x4B3F3378 EQ PUSH2 0x15F9 JUMPI DUP1 PUSH4 0x5439DC86 EQ PUSH2 0x1572 JUMPI DUP1 PUSH4 0x59F73318 EQ PUSH2 0x1543 JUMPI DUP1 PUSH4 0x5B0C5DBD EQ PUSH2 0x14A4 JUMPI DUP1 PUSH4 0x5C975ABB EQ PUSH2 0x147E JUMPI DUP1 PUSH4 0x5F81A57C EQ PUSH2 0x1460 JUMPI DUP1 PUSH4 0x611C60B6 EQ PUSH2 0x120D JUMPI DUP1 PUSH4 0x658A6BC4 EQ PUSH2 0x11EF JUMPI DUP1 PUSH4 0x778FFBDA EQ PUSH2 0x11C0 JUMPI DUP1 PUSH4 0x779E306B EQ PUSH2 0x11A2 JUMPI DUP1 PUSH4 0x8322FFF2 EQ PUSH2 0x1173 JUMPI DUP1 PUSH4 0x84800812 EQ PUSH2 0xCE2 JUMPI DUP1 PUSH4 0x86001519 EQ PUSH2 0xCC4 JUMPI DUP1 PUSH4 0x89A30271 EQ PUSH2 0xC95 JUMPI DUP1 PUSH4 0x8DA5CB5B EQ PUSH2 0xC6E JUMPI DUP1 PUSH4 0x8DD95002 EQ PUSH2 0xC3F JUMPI DUP1 PUSH4 0x95CCEA67 EQ PUSH2 0xBD0 JUMPI DUP1 PUSH4 0xA3031B77 EQ PUSH2 0xBB2 JUMPI DUP1 PUSH4 0xBCF685ED EQ PUSH2 0xB37 JUMPI DUP1 PUSH4 0xC54E44EB EQ PUSH2 0xB08 JUMPI DUP1 PUSH4 0xC59D4847 EQ PUSH2 0xAB8 JUMPI DUP1 PUSH4 0xC63877EB EQ PUSH2 0x88B JUMPI DUP1 PUSH4 0xD6D2AEDB EQ PUSH2 0x605 JUMPI DUP1 PUSH4 0xDA3E3397 EQ PUSH2 0x55B JUMPI DUP1 PUSH4 0xE1A504E5 EQ PUSH2 0x52C JUMPI DUP1 PUSH4 0xE275C997 EQ PUSH2 0x50E JUMPI DUP1 PUSH4 0xE943F090 EQ PUSH2 0x341 JUMPI DUP1 PUSH4 0xE9C9F44F EQ PUSH2 0x312 JUMPI DUP1 PUSH4 0xF26B854F EQ PUSH2 0x2C0 JUMPI DUP1 PUSH4 0xF5FF5C76 EQ PUSH2 0x297 JUMPI DUP1 PUSH4 0xFC213996 EQ PUSH2 0x279 JUMPI PUSH4 0xFCFF2C28 EQ PUSH2 0x1F2 JUMPI POP PUSH2 0xE JUMP JUMPDEST CALLVALUE PUSH2 0x276 JUMPI PUSH1 0x20 CALLDATASIZE PUSH1 0x3 NOT ADD SLT PUSH2 0x276 JUMPI PUSH1 0x4 CALLDATALOAD PUSH2 0x21A PUSH1 0x1 DUP1 PUSH1 0xA0 SHL SUB DUP4 SLOAD AND CALLER EQ PUSH2 0x2A78 JUMP JUMPDEST PUSH32 0xD7474166E78731BC168CACA1FE1CCEBBD6F3C95BAEE64997902E6B48F442B81A PUSH1 0xA0 PUSH1 0x3 SLOAD PUSH1 0x40 MLOAD SWAP1 PUSH1 0x60 DUP3 MSTORE PUSH1 0xC PUSH1 0x60 DUP4 ADD MSTORE PUSH12 0x6D696E50726F666974427073 PUSH1 0xA0 SHL PUSH1 0x80 DUP4 ADD MSTORE PUSH1 0x20 DUP3 ADD MSTORE DUP4 PUSH1 0x40 DUP3 ADD MSTORE LOG1 PUSH1 0x3 SSTORE DUP1 RETURN JUMPDEST DUP1 REVERT JUMPDEST POP CALLVALUE PUSH2 0x276 JUMPI DUP1 PUSH1 0x3 NOT CALLDATASIZE ADD SLT PUSH2 0x276 JUMPI PUSH1 0x20 PUSH1 0xA SLOAD PUSH1 0x40 MLOAD SWAP1 DUP2 MSTORE RETURN JUMPDEST POP CALLVALUE PUSH2 0x276 JUMPI DUP1 PUSH1 0x3 NOT CALLDATASIZE ADD SLT PUSH2 0x276 JUMPI PUSH1 0x1 SLOAD PUSH1 0x40 MLOAD PUSH1 0x1 PUSH1 0x1 PUSH1 0xA0 SHL SUB SWAP1 SWAP2 AND DUP2 MSTORE PUSH1 0x20 SWAP1 RETURN JUMPDEST POP CALLVALUE PUSH2 0x276 JUMPI DUP1 PUSH1 0x3 NOT CALLDATASIZE ADD SLT PUSH2 0x276 JUMPI DUP1 DUP1 DUP1 DUP1 PUSH1 0x1 DUP1 PUSH1 0xA0 SHL SUB DUP2 SLOAD AND PUSH2 0x2EA DUP2 CALLER EQ PUSH2 0x2A78 JUMP JUMPDEST SELFBALANCE SWAP1 DUP3 DUP3 ISZERO PUSH2 0x309 JUMPI JUMPDEST CALL ISZERO PUSH2 0x2FD JUMPI DUP1 RETURN JUMPDEST PUSH1 0x40 MLOAD SWAP1 RETURNDATASIZE SWAP1 DUP3 RETURNDATACOPY RETURNDATASIZE SWAP1 REVERT JUMPDEST POP PUSH2 0x8FC PUSH2 0x2F4 JUMP JUMPDEST POP CALLVALUE PUSH2 0x276 JUMPI DUP1 PUSH1 0x3 NOT CALLDATASIZE ADD SLT PUSH2 0x276 JUMPI PUSH1 0x20 PUSH1 0x40 MLOAD PUSH20 0x7130D2A12B9BCBFAE4F2634D864A1EE1CE3EAD9C DUP2 MSTORE RETURN JUMPDEST POP CALLVALUE PUSH2 0x276 JUMPI PUSH2 0x350 CALLDATASIZE PUSH2 0x2548 JUMP JUMPDEST DUP6 SWAP3 SWAP6 SWAP5 SWAP4 SWAP2 SWAP5 POP DUP6 DUP4 SWAP6 DUP5 SWAP6 DUP6 PUSH2 0x3FD PUSH1 0x40 MLOAD SWAP4 PUSH2 0x36E DUP6 PUSH2 0x27C1 JUMP JUMPDEST PUSH1 0x2 DUP6 MSTORE PUSH1 0x40 CALLDATASIZE PUSH1 0x20 DUP8 ADD CALLDATACOPY PUSH2 0x383 DUP6 PUSH2 0x287B JUMP JUMPDEST PUSH1 0x1 PUSH1 0x1 PUSH1 0xA0 SHL SUB SWAP5 DUP6 AND SWAP1 DUP2 SWAP1 MSTORE SWAP4 SWAP5 DUP6 SWAP5 DUP6 PUSH2 0x3A0 DUP4 PUSH2 0x2888 JUMP JUMPDEST SWAP11 AND DUP1 SWAP11 MSTORE PUSH1 0x40 MLOAD SWAP10 PUSH2 0x3B2 DUP12 PUSH2 0x27C1 JUMP JUMPDEST PUSH1 0x2 DUP12 MSTORE PUSH1 0x40 CALLDATASIZE PUSH1 0x20 DUP14 ADD CALLDATACOPY PUSH2 0x3C7 DUP12 PUSH2 0x287B JUMP JUMPDEST MSTORE PUSH2 0x3D1 DUP11 PUSH2 0x2888 JUMP JUMPDEST MSTORE PUSH1 0x40 MLOAD SWAP5 DUP6 DUP1 SWAP5 DUP2 SWAP4 PUSH4 0xD06CA61F PUSH1 0xE0 SHL SWAP11 DUP12 DUP5 MSTORE PUSH1 0x4 DUP5 ADD MSTORE PUSH1 0x40 PUSH1 0x24 DUP5 ADD MSTORE PUSH1 0x44 DUP4 ADD SWAP1 PUSH2 0x2926 JUMP JUMPDEST SUB SWAP3 AND GAS STATICCALL DUP7 SWAP2 DUP2 PUSH2 0x4F2 JUMPI JUMPDEST POP PUSH2 0x420 JUMPI JUMPDEST PUSH1 0x40 DUP9 DUP9 DUP3 MLOAD SWAP2 DUP3 MSTORE PUSH1 0x20 DUP3 ADD MSTORE RETURN JUMPDEST SWAP2 DUP6 SWAP4 SWAP2 PUSH2 0x431 PUSH2 0x455 SWAP7 SWAP5 PUSH2 0x2888 JUMP JUMPDEST MLOAD SWAP2 PUSH1 0x40 MLOAD SWAP7 DUP8 SWAP6 DUP7 SWAP5 DUP6 SWAP4 DUP5 MSTORE PUSH1 0x4 DUP5 ADD MSTORE PUSH1 0x40 PUSH1 0x24 DUP5 ADD MSTORE PUSH1 0x44 DUP4 ADD SWAP1 PUSH2 0x2926 JUMP JUMPDEST SUB SWAP3 AND GAS STATICCALL DUP3 SWAP2 DUP2 PUSH2 0x4CE JUMPI JUMPDEST POP PUSH2 0x471 JUMPI JUMPDEST DUP1 DUP1 DUP1 DUP1 PUSH2 0x410 JUMP JUMPDEST PUSH2 0x47A SWAP1 PUSH2 0x2888 JUMP JUMPDEST MLOAD DUP5 DUP2 GT ISZERO PUSH2 0x468 JUMPI DUP5 SWAP2 SWAP4 POP PUSH2 0x491 SWAP3 POP PUSH2 0x299D JUMP JUMPDEST SWAP1 PUSH2 0x2710 SWAP1 DUP2 DUP4 MUL SWAP2 DUP4 DUP4 DIV EQ DUP4 ISZERO OR ISZERO PUSH2 0x4BA JUMPI POP PUSH1 0x40 SWAP3 PUSH2 0x4B3 SWAP2 PUSH2 0x2654 JUMP JUMPDEST CODESIZE DUP1 PUSH2 0x468 JUMP JUMPDEST PUSH4 0x4E487B71 PUSH1 0xE0 SHL DUP2 MSTORE PUSH1 0x11 PUSH1 0x4 MSTORE PUSH1 0x24 SWAP1 REVERT JUMPDEST PUSH2 0x4EB SWAP2 SWAP3 POP RETURNDATASIZE DUP1 DUP6 DUP4 RETURNDATACOPY PUSH2 0x4E3 DUP2 DUP4 PUSH2 0x27DD JUMP JUMPDEST DUP2 ADD SWAP1 PUSH2 0x28AC JUMP JUMPDEST SWAP1 CODESIZE PUSH2 0x462 JUMP JUMPDEST PUSH2 0x507 SWAP2 SWAP3 POP RETURNDATASIZE DUP1 DUP10 DUP4 RETURNDATACOPY PUSH2 0x4E3 DUP2 DUP4 PUSH2 0x27DD JUMP JUMPDEST SWAP1 CODESIZE PUSH2 0x40A JUMP JUMPDEST POP CALLVALUE PUSH2 0x276 JUMPI DUP1 PUSH1 0x3 NOT CALLDATASIZE ADD SLT PUSH2 0x276 JUMPI PUSH1 0x20 PUSH1 0x7 SLOAD PUSH1 0x40 MLOAD SWAP1 DUP2 MSTORE RETURN JUMPDEST POP CALLVALUE PUSH2 0x276 JUMPI DUP1 PUSH1 0x3 NOT CALLDATASIZE ADD SLT PUSH2 0x276 JUMPI PUSH1 0x20 PUSH1 0x40 MLOAD PUSH20 0x10ED43C718714EB63D5AA57B78B54704E256024E DUP2 MSTORE RETURN JUMPDEST POP CALLVALUE PUSH2 0x276 JUMPI PUSH2 0x5BC PUSH1 0x20 PUSH2 0x56F CALLDATASIZE PUSH2 0x2596 JUMP JUMPDEST SWAP2 SWAP1 DUP6 PUSH1 0x1 DUP1 PUSH1 0xA0 SHL SUB PUSH2 0x587 DUP2 DUP4 SLOAD AND CALLER EQ PUSH2 0x2A78 JUMP JUMPDEST PUSH1 0x40 MLOAD PUSH4 0x95EA7B3 PUSH1 0xE0 SHL DUP2 MSTORE PUSH1 0x1 PUSH1 0x1 PUSH1 0xA0 SHL SUB SWAP1 SWAP4 AND PUSH1 0x4 DUP5 ADD MSTORE PUSH1 0x24 DUP4 ADD SWAP5 SWAP1 SWAP5 MSTORE SWAP1 SWAP5 DUP6 SWAP4 DUP5 SWAP3 SWAP2 DUP4 SWAP1 PUSH1 0x44 DUP3 ADD SWAP1 JUMP JUMPDEST SUB SWAP4 AND GAS CALL DUP1 ISZERO PUSH2 0x5FA JUMPI PUSH2 0x5CF JUMPI POP DUP1 RETURN JUMPDEST PUSH2 0x5EF SWAP1 PUSH1 0x20 RETURNDATASIZE DUP2 GT PUSH2 0x5F3 JUMPI JUMPDEST PUSH2 0x5E7 DUP2 DUP4 PUSH2 0x27DD JUMP JUMPDEST DUP2 ADD SWAP1 PUSH2 0x284B JUMP JUMPDEST POP DUP1 RETURN JUMPDEST POP RETURNDATASIZE PUSH2 0x5DD JUMP JUMPDEST PUSH1 0x40 MLOAD RETURNDATASIZE DUP5 DUP3 RETURNDATACOPY RETURNDATASIZE SWAP1 REVERT JUMPDEST POP CALLVALUE PUSH2 0x276 JUMPI PUSH2 0x614 CALLDATASIZE PUSH2 0x2596 JUMP JUMPDEST PUSH1 0x40 MLOAD SWAP3 DUP5 SWAP2 SWAP1 PUSH8 0xFFFFFFFFFFFFFFFF PUSH1 0x80 DUP7 ADD DUP2 DUP2 GT DUP8 DUP3 LT OR PUSH2 0x875 JUMPI PUSH1 0x40 MSTORE PUSH1 0x80 CALLDATASIZE DUP8 CALLDATACOPY PUSH1 0x40 MLOAD SWAP1 PUSH1 0x80 DUP3 ADD SWAP1 DUP2 GT DUP3 DUP3 LT OR PUSH2 0x875 JUMPI PUSH1 0x40 SWAP7 SWAP5 SWAP7 MSTORE PUSH20 0x10ED43C718714EB63D5AA57B78B54704E256024E DUP2 MSTORE PUSH1 0x20 SWAP5 PUSH20 0x3A6D8CA21D1CF76F653A67577FA0D27453350DD8 DUP7 DUP4 ADD MSTORE PUSH20 0xD4AE6ECA985340DD434D38F470ACCCE4DC78D109 PUSH1 0x40 DUP4 ADD MSTORE PUSH20 0x325E343F1DE602396E256B67EFD1F61C3A6B38BD PUSH1 0x60 DUP4 ADD MSTORE PUSH1 0x40 MLOAD SWAP1 PUSH2 0x6C8 DUP3 PUSH2 0x27C1 JUMP JUMPDEST PUSH1 0x2 DUP3 MSTORE PUSH1 0x40 CALLDATASIZE DUP9 DUP5 ADD CALLDATACOPY PUSH2 0x6DC DUP3 PUSH2 0x287B JUMP JUMPDEST PUSH1 0x1 PUSH1 0x1 PUSH1 0xA0 SHL SUB SWAP5 DUP6 AND SWAP1 MSTORE DUP4 PUSH2 0x6F3 DUP4 PUSH2 0x2888 JUMP JUMPDEST SWAP2 AND SWAP1 MSTORE DUP7 SWAP4 DUP8 JUMPDEST PUSH1 0x4 DUP2 LT PUSH2 0x73C JUMPI POP POP POP POP PUSH1 0x40 MLOAD SWAP6 AND DUP6 MSTORE DUP3 DUP6 ADD MSTORE PUSH1 0x40 DUP5 ADD SWAP1 SWAP3 SWAP1 JUMPDEST PUSH1 0x4 DUP3 LT PUSH2 0x727 JUMPI PUSH1 0xC0 DUP6 RETURN JUMPDEST DUP3 DUP1 PUSH1 0x1 SWAP3 DUP7 MLOAD DUP2 MSTORE ADD SWAP5 ADD SWAP2 ADD SWAP1 SWAP3 PUSH2 0x71A JUMP JUMPDEST DUP5 PUSH2 0x74A DUP3 DUP7 SWAP12 SWAP10 SWAP12 PUSH2 0x2A67 JUMP JUMPDEST MLOAD AND PUSH1 0x40 MLOAD PUSH4 0xD06CA61F PUSH1 0xE0 SHL DUP2 MSTORE DUP4 PUSH1 0x4 DUP3 ADD MSTORE DUP9 DUP2 PUSH1 0x24 SWAP4 PUSH1 0x40 DUP6 DUP4 ADD MSTORE DUP2 DUP1 PUSH2 0x779 PUSH1 0x44 DUP3 ADD DUP12 PUSH2 0x2926 JUMP JUMPDEST SUB SWAP2 GAS STATICCALL DUP10 SWAP2 DUP2 PUSH2 0x859 JUMPI JUMPDEST POP PUSH2 0x7A9 JUMPI POP POP DUP1 DUP8 PUSH2 0x79B PUSH2 0x7A1 SWAP4 DUP13 PUSH2 0x2A67 JUMP JUMPDEST MSTORE PUSH2 0x2A4B JUMP JUMPDEST SWAP8 SWAP6 SWAP8 PUSH2 0x6FB JUMP JUMPDEST DUP1 MLOAD PUSH1 0x0 NOT SWAP3 SWAP1 DUP4 DUP2 ADD SWAP1 DUP2 GT PUSH2 0x846 JUMPI PUSH2 0x7D0 DUP6 PUSH2 0x7C9 DUP16 SWAP4 DUP7 PUSH2 0x2898 JUMP JUMPDEST MLOAD SWAP3 PUSH2 0x2A67 JUMP JUMPDEST MSTORE DUP2 MLOAD DUP4 DUP2 ADD SWAP1 DUP2 GT PUSH2 0x846 JUMPI PUSH2 0x7E8 DUP11 SWAP2 DUP5 PUSH2 0x2898 JUMP JUMPDEST MLOAD GT PUSH2 0x7FB JUMPI JUMPDEST POP POP POP PUSH2 0x7A1 SWAP1 PUSH2 0x2A4B JUMP JUMPDEST SWAP2 SWAP4 SWAP8 POP DUP1 SWAP3 SWAP12 POP MLOAD SWAP3 DUP4 ADD SWAP3 DUP4 GT PUSH2 0x834 JUMPI POP SWAP1 PUSH2 0x819 SWAP2 PUSH2 0x2898 JUMP JUMPDEST MLOAD SWAP4 PUSH2 0x7A1 DUP5 PUSH2 0x829 DUP12 DUP7 PUSH2 0x2A67 JUMP JUMPDEST MLOAD AND SWAP10 SWAP1 CODESIZE DUP1 PUSH2 0x7EF JUMP JUMPDEST PUSH4 0x4E487B71 PUSH1 0xE0 SHL DUP9 MSTORE PUSH1 0x11 PUSH1 0x4 MSTORE DUP8 REVERT JUMPDEST POP PUSH4 0x4E487B71 PUSH1 0xE0 SHL DUP11 MSTORE PUSH1 0x11 PUSH1 0x4 MSTORE DUP10 REVERT JUMPDEST PUSH2 0x86E SWAP2 SWAP3 POP RETURNDATASIZE DUP1 DUP13 DUP4 RETURNDATACOPY PUSH2 0x4E3 DUP2 DUP4 PUSH2 0x27DD JUMP JUMPDEST SWAP1 CODESIZE PUSH2 0x785 JUMP JUMPDEST PUSH4 0x4E487B71 PUSH1 0xE0 SHL PUSH1 0x0 MSTORE PUSH1 0x41 PUSH1 0x4 MSTORE PUSH1 0x24 PUSH1 0x0 REVERT JUMPDEST POP CALLVALUE PUSH2 0x276 JUMPI PUSH1 0x20 DUP1 PUSH1 0x3 NOT CALLDATASIZE ADD SLT PUSH2 0xAB4 JUMPI PUSH1 0xC SLOAD SWAP2 PUSH1 0x4 CALLDATALOAD DUP1 DUP5 GT ISZERO PUSH2 0xAA7 JUMPI PUSH2 0x8BA PUSH2 0x8C2 SWAP2 DUP6 PUSH2 0x299D JUMP JUMPDEST DUP1 SWAP3 SWAP5 PUSH2 0x299D JUMP JUMPDEST PUSH2 0x8CB DUP2 PUSH2 0x2863 JUMP JUMPDEST SWAP2 PUSH2 0x8D9 PUSH1 0x40 MLOAD SWAP4 DUP5 PUSH2 0x27DD JUMP JUMPDEST DUP2 DUP4 MSTORE PUSH1 0x1F NOT PUSH2 0x8E8 DUP4 PUSH2 0x2863 JUMP JUMPDEST ADD DUP6 JUMPDEST DUP2 DUP2 LT PUSH2 0xA54 JUMPI POP POP DUP5 JUMPDEST DUP3 DUP2 LT PUSH2 0x9A2 JUMPI POP POP POP PUSH1 0x40 MLOAD SWAP2 DUP1 DUP4 ADD SWAP1 DUP1 DUP5 MSTORE DUP3 MLOAD DUP1 SWAP3 MSTORE DUP1 PUSH1 0x40 DUP6 ADD SWAP4 ADD SWAP5 JUMPDEST DUP3 DUP2 LT PUSH2 0x926 JUMPI DUP5 DUP5 SUB DUP6 RETURN JUMPDEST DUP6 MLOAD DUP1 MLOAD DUP6 MSTORE DUP1 DUP4 ADD MLOAD PUSH1 0x1 PUSH1 0x1 PUSH1 0xA0 SHL SUB SWAP1 DUP2 AND DUP7 DUP6 ADD MSTORE PUSH1 0x40 DUP1 DUP4 ADD MLOAD DUP3 AND SWAP1 DUP8 ADD MSTORE PUSH1 0x60 DUP1 DUP4 ADD MLOAD SWAP1 DUP8 ADD MSTORE PUSH1 0x80 DUP1 DUP4 ADD MLOAD SWAP1 DUP8 ADD MSTORE PUSH1 0xA0 DUP1 DUP4 ADD MLOAD SWAP1 DUP8 ADD MSTORE PUSH1 0xC0 DUP1 DUP4 ADD MLOAD DUP3 AND SWAP1 DUP8 ADD MSTORE PUSH1 0xE0 DUP1 DUP4 ADD MLOAD SWAP1 SWAP2 AND SWAP1 DUP7 ADD MSTORE PUSH2 0x100 SWAP1 DUP2 ADD MLOAD ISZERO ISZERO SWAP1 DUP6 ADD MSTORE SWAP5 DUP2 ADD SWAP5 PUSH2 0x120 SWAP1 SWAP4 ADD SWAP3 PUSH1 0x1 ADD PUSH2 0x919 JUMP JUMPDEST DUP1 PUSH2 0x9BB PUSH2 0x9B6 PUSH2 0xA4C SWAP4 DUP6 SWAP10 SWAP8 SWAP10 PUSH2 0x2A5A JUMP JUMPDEST PUSH2 0x24F8 JUMP JUMPDEST POP PUSH1 0xFF PUSH1 0x40 MLOAD SWAP2 PUSH2 0x9CB DUP4 PUSH2 0x27A4 JUMP JUMPDEST DUP1 SLOAD DUP4 MSTORE PUSH1 0x1 DUP1 PUSH1 0xA0 SHL SUB SWAP1 DUP2 PUSH1 0x1 DUP3 ADD SLOAD AND DUP11 DUP6 ADD MSTORE DUP2 PUSH1 0x2 DUP3 ADD SLOAD AND PUSH1 0x40 DUP6 ADD MSTORE PUSH1 0x3 DUP2 ADD SLOAD PUSH1 0x60 DUP6 ADD MSTORE PUSH1 0x4 DUP2 ADD SLOAD PUSH1 0x80 DUP6 ADD MSTORE PUSH1 0x7 PUSH1 0x5 DUP3 ADD SLOAD SWAP2 PUSH1 0xA0 SWAP3 DUP4 DUP8 ADD MSTORE DUP4 PUSH1 0x6 DUP3 ADD SLOAD AND PUSH1 0xC0 DUP8 ADD MSTORE ADD SLOAD SWAP2 DUP3 AND PUSH1 0xE0 DUP6 ADD MSTORE SHR AND ISZERO ISZERO PUSH2 0x100 DUP3 ADD MSTORE PUSH2 0xA3B DUP3 DUP10 PUSH2 0x2898 JUMP JUMPDEST MSTORE PUSH2 0xA46 DUP2 DUP9 PUSH2 0x2898 JUMP JUMPDEST POP PUSH2 0x2A4B JUMP JUMPDEST SWAP5 SWAP3 SWAP5 PUSH2 0x8F6 JUMP JUMPDEST DUP6 SWAP1 PUSH1 0x40 SWAP8 SWAP6 SWAP8 MLOAD PUSH2 0xA65 DUP2 PUSH2 0x27A4 JUMP JUMPDEST DUP7 DUP2 MSTORE DUP7 DUP4 DUP3 ADD MSTORE DUP7 PUSH1 0x40 DUP3 ADD MSTORE DUP7 PUSH1 0x60 DUP3 ADD MSTORE DUP7 PUSH1 0x80 DUP3 ADD MSTORE DUP7 PUSH1 0xA0 DUP3 ADD MSTORE DUP7 PUSH1 0xC0 DUP3 ADD MSTORE DUP7 PUSH1 0xE0 DUP3 ADD MSTORE DUP7 PUSH2 0x100 DUP3 ADD MSTORE DUP3 DUP3 DUP11 ADD ADD MSTORE ADD SWAP6 SWAP4 SWAP6 PUSH2 0x8EB JUMP JUMPDEST POP PUSH2 0x8C2 DUP2 DUP1 SWAP3 SWAP5 PUSH2 0x299D JUMP JUMPDEST POP DUP1 REVERT JUMPDEST POP CALLVALUE PUSH2 0x276 JUMPI DUP1 PUSH1 0x3 NOT CALLDATASIZE ADD SLT PUSH2 0x276 JUMPI PUSH1 0xC0 PUSH1 0x7 SLOAD PUSH1 0xFF PUSH1 0xA SLOAD PUSH1 0x8 SLOAD PUSH1 0x9 SLOAD PUSH1 0x5 SLOAD SWAP2 PUSH1 0x1 SLOAD SWAP4 PUSH1 0x40 MLOAD SWAP7 DUP8 MSTORE PUSH1 0x20 DUP8 ADD MSTORE PUSH1 0x40 DUP7 ADD MSTORE PUSH1 0x60 DUP6 ADD MSTORE PUSH1 0x80 DUP5 ADD MSTORE PUSH1 0xA0 SHR AND ISZERO ISZERO PUSH1 0xA0 DUP3 ADD MSTORE RETURN JUMPDEST POP CALLVALUE PUSH2 0x276 JUMPI DUP1 PUSH1 0x3 NOT CALLDATASIZE ADD SLT PUSH2 0x276 JUMPI PUSH1 0x20 PUSH1 0x40 MLOAD PUSH20 0x55D398326F99059FF775485246999027B3197955 DUP2 MSTORE RETURN JUMPDEST POP CALLVALUE PUSH2 0x276 JUMPI PUSH1 0x20 CALLDATASIZE PUSH1 0x3 NOT ADD SLT PUSH2 0x276 JUMPI PUSH2 0xB51 PUSH2 0x24A2 JUMP JUMPDEST DUP2 SLOAD PUSH1 0x1 PUSH1 0x1 PUSH1 0xA0 SHL SUB SWAP1 PUSH2 0xB69 SWAP1 DUP3 AND CALLER EQ PUSH2 0x2A78 JUMP JUMPDEST PUSH32 0xEE7760CB405D3BEB1072AE2E716857DAA45A5DD52BC1383A21173199D32C7DEE PUSH1 0x40 PUSH1 0x1 SLOAD SWAP3 DUP2 MLOAD SWAP5 DUP2 DUP6 AND DUP7 MSTORE AND SWAP4 DUP5 PUSH1 0x20 DUP3 ADD MSTORE LOG1 PUSH1 0x1 PUSH1 0x1 PUSH1 0xA0 SHL SUB NOT AND OR PUSH1 0x1 SSTORE DUP1 RETURN JUMPDEST POP CALLVALUE PUSH2 0x276 JUMPI DUP1 PUSH1 0x3 NOT CALLDATASIZE ADD SLT PUSH2 0x276 JUMPI PUSH1 0x20 PUSH1 0xC SLOAD PUSH1 0x40 MLOAD SWAP1 DUP2 MSTORE RETURN JUMPDEST POP CALLVALUE PUSH2 0x276 JUMPI PUSH1 0x40 CALLDATASIZE PUSH1 0x3 NOT ADD SLT PUSH2 0x276 JUMPI PUSH2 0xBEA PUSH2 0x24A2 JUMP JUMPDEST DUP2 SLOAD PUSH1 0x1 PUSH1 0x1 PUSH1 0xA0 SHL SUB SWAP2 PUSH1 0x20 SWAP2 PUSH2 0x5BC SWAP2 SWAP1 DUP5 AND PUSH2 0xC0A CALLER DUP3 EQ PUSH2 0x2A78 JUMP JUMPDEST PUSH1 0x40 MLOAD PUSH4 0xA9059CBB PUSH1 0xE0 SHL DUP2 MSTORE PUSH1 0x1 PUSH1 0x1 PUSH1 0xA0 SHL SUB SWAP1 SWAP2 AND PUSH1 0x4 DUP3 ADD MSTORE PUSH1 0x24 DUP1 CALLDATALOAD SWAP1 DUP3 ADD MSTORE SWAP4 DUP5 SWAP3 DUP4 SWAP2 DUP8 SWAP2 DUP4 SWAP1 PUSH1 0x44 DUP3 ADD SWAP1 JUMP JUMPDEST POP CALLVALUE PUSH2 0x276 JUMPI DUP1 PUSH1 0x3 NOT CALLDATASIZE ADD SLT PUSH2 0x276 JUMPI PUSH1 0x20 PUSH1 0x40 MLOAD PUSH20 0xBB4CDB9CBD36B01BD1CBAEBF2DE08D9173BC095C DUP2 MSTORE RETURN JUMPDEST POP CALLVALUE PUSH2 0x276 JUMPI DUP1 PUSH1 0x3 NOT CALLDATASIZE ADD SLT PUSH2 0x276 JUMPI SLOAD PUSH1 0x40 MLOAD PUSH1 0x1 PUSH1 0x1 PUSH1 0xA0 SHL SUB SWAP1 SWAP2 AND DUP2 MSTORE PUSH1 0x20 SWAP1 RETURN JUMPDEST POP CALLVALUE PUSH2 0x276 JUMPI DUP1 PUSH1 0x3 NOT CALLDATASIZE ADD SLT PUSH2 0x276 JUMPI PUSH1 0x20 PUSH1 0x40 MLOAD PUSH20 0x8AC76A51CC950D9822D68B83FE1AD97B32CD580D DUP2 MSTORE RETURN JUMPDEST POP CALLVALUE PUSH2 0x276 JUMPI DUP1 PUSH1 0x3 NOT CALLDATASIZE ADD SLT PUSH2 0x276 JUMPI PUSH1 0x20 PUSH1 0x8 SLOAD PUSH1 0x40 MLOAD SWAP1 DUP2 MSTORE RETURN JUMPDEST POP CALLVALUE PUSH2 0x276 JUMPI PUSH1 0x80 CALLDATASIZE PUSH1 0x3 NOT ADD SLT PUSH2 0x276 JUMPI PUSH2 0xCFC PUSH2 0x24A2 JUMP JUMPDEST PUSH1 0x24 DUP1 CALLDATALOAD SWAP1 PUSH1 0x64 CALLDATALOAD SWAP3 PUSH8 0xFFFFFFFFFFFFFFFF DUP1 DUP6 GT PUSH2 0x116F JUMPI CALLDATASIZE PUSH1 0x23 DUP7 ADD SLT ISZERO PUSH2 0x116F JUMPI DUP5 PUSH1 0x4 ADD CALLDATALOAD SWAP1 DUP2 GT PUSH2 0x116F JUMPI DUP5 ADD CALLDATASIZE DUP4 DUP3 ADD GT PUSH2 0x116F JUMPI PUSH1 0x1 PUSH1 0x1 PUSH1 0xA0 SHL SUB SWAP2 ADDRESS SWAP1 DUP4 AND SUB PUSH2 0x1133 JUMPI DUP5 PUSH1 0x80 SWAP2 SUB SLT PUSH2 0x112F JUMPI PUSH2 0xD5E DUP3 DUP6 ADD PUSH2 0x24E4 JUMP JUMPDEST SWAP1 DUP1 DUP1 PUSH2 0xD79 PUSH1 0x64 PUSH2 0xD72 PUSH1 0x44 DUP11 ADD PUSH2 0x24E4 JUMP JUMPDEST SWAP9 ADD PUSH2 0x24E4 JUMP JUMPDEST SWAP4 AND SWAP6 AND SWAP2 AND SWAP3 DUP1 ISZERO ISZERO PUSH1 0x0 EQ PUSH2 0x1125 JUMPI SWAP3 JUMPDEST PUSH1 0x3 DUP5 MUL DUP5 DUP2 DIV PUSH1 0x3 EQ DUP6 ISZERO OR ISZERO PUSH2 0x1112 JUMPI PUSH2 0x3E8 SWAP1 DIV PUSH1 0x1 DUP2 ADD DUP1 SWAP2 GT PUSH2 0x1112 JUMPI PUSH2 0xDB8 SWAP1 DUP6 PUSH2 0x2A5A JUMP JUMPDEST PUSH1 0x40 MLOAD PUSH4 0x95EA7B3 PUSH1 0xE0 SHL DUP1 DUP3 MSTORE PUSH1 0x1 PUSH1 0x1 PUSH1 0xA0 SHL SUB DUP5 AND PUSH1 0x4 DUP4 ADD MSTORE PUSH1 0x24 DUP3 ADD DUP8 SWAP1 MSTORE PUSH1 0x20 SWAP5 SWAP1 SWAP4 SWAP1 SWAP2 DUP6 DUP2 PUSH1 0x44 DUP2 DUP14 DUP14 GAS CALL DUP1 ISZERO PUSH2 0x1107 JUMPI PUSH2 0x10EA JUMPI JUMPDEST POP PUSH1 0x40 MLOAD SWAP1 PUSH2 0xE05 DUP3 PUSH2 0x27C1 JUMP JUMPDEST PUSH1 0x2 DUP3 MSTORE PUSH1 0x40 CALLDATASIZE DUP8 DUP5 ADD CALLDATACOPY DUP9 PUSH2 0xE1A DUP4 PUSH2 0x287B JUMP JUMPDEST MSTORE DUP3 PUSH2 0xE25 DUP4 PUSH2 0x2888 JUMP JUMPDEST MSTORE PUSH1 0x78 TIMESTAMP ADD SWAP1 DUP2 TIMESTAMP GT PUSH2 0x10D7 JUMPI SWAP1 PUSH2 0xE5E DUP12 DUP3 DUP2 SWAP7 SWAP6 SWAP5 DUP13 DUP4 PUSH1 0x40 MLOAD DUP1 SWAP7 DUP2 SWAP6 DUP3 SWAP5 PUSH4 0x38ED1739 PUSH1 0xE0 SHL SWAP12 DUP13 DUP6 MSTORE ADDRESS SWAP2 PUSH1 0x4 DUP7 ADD PUSH2 0x2963 JUMP JUMPDEST SUB SWAP3 GAS CALL DUP1 ISZERO PUSH2 0x1048 JUMPI PUSH2 0xE79 SWAP2 DUP7 SWAP2 PUSH2 0x10BD JUMPI JUMPDEST POP PUSH2 0x2888 JUMP JUMPDEST MLOAD SWAP1 PUSH1 0x40 MLOAD SWAP7 DUP8 MSTORE PUSH20 0x10ED43C718714EB63D5AA57B78B54704E256024E SWAP3 DUP4 PUSH1 0x4 DUP10 ADD MSTORE DUP3 DUP11 DUP10 ADD MSTORE DUP9 DUP9 PUSH1 0x44 DUP2 DUP10 DUP10 GAS CALL SWAP2 DUP3 ISZERO PUSH2 0x1070 JUMPI PUSH2 0xF12 SWAP9 DUP8 SWAP4 PUSH2 0x10A0 JUMPI JUMPDEST POP PUSH1 0x40 MLOAD SWAP6 PUSH2 0xECB DUP8 PUSH2 0x27C1 JUMP JUMPDEST PUSH1 0x2 DUP8 MSTORE PUSH1 0x40 CALLDATASIZE DUP13 DUP10 ADD CALLDATACOPY PUSH2 0xEDF DUP8 PUSH2 0x287B JUMP JUMPDEST MSTORE DUP13 PUSH2 0xEEA DUP8 PUSH2 0x2888 JUMP JUMPDEST MSTORE PUSH1 0x40 MLOAD SWAP9 DUP10 SWAP7 DUP8 SWAP6 DUP7 SWAP5 DUP6 MSTORE PUSH1 0x4 DUP6 ADD MSTORE DUP10 DUP14 DUP6 ADD MSTORE PUSH1 0xA0 PUSH1 0x44 DUP6 ADD MSTORE PUSH1 0xA4 DUP5 ADD SWAP1 PUSH2 0x2926 JUMP JUMPDEST SWAP1 ADDRESS PUSH1 0x64 DUP5 ADD MSTORE PUSH1 0x84 DUP4 ADD MSTORE SUB SWAP3 GAS CALL SWAP1 DUP2 ISZERO PUSH2 0x1095 JUMPI PUSH2 0xF5C SWAP3 DUP5 SWAP3 PUSH2 0x107B JUMPI JUMPDEST POP PUSH1 0x40 MLOAD PUSH4 0xA9059CBB PUSH1 0xE0 SHL DUP2 MSTORE CALLER PUSH1 0x4 DUP3 ADD MSTORE PUSH1 0x24 DUP2 ADD SWAP2 SWAP1 SWAP2 MSTORE SWAP2 DUP3 SWAP1 DUP2 SWAP1 PUSH1 0x44 DUP3 ADD SWAP1 JUMP JUMPDEST SUB DUP2 DUP10 DUP10 GAS CALL DUP1 ISZERO PUSH2 0x1070 JUMPI PUSH2 0x1053 JUMPI JUMPDEST POP DUP1 PUSH1 0x40 MLOAD DUP1 SWAP4 PUSH4 0x70A08231 PUSH1 0xE0 SHL DUP3 MSTORE ADDRESS PUSH1 0x4 DUP4 ADD MSTORE DUP2 DUP8 GAS STATICCALL SWAP2 DUP3 ISZERO PUSH2 0x1048 JUMPI DUP6 SWAP3 PUSH2 0x1014 JUMPI JUMPDEST POP PUSH2 0xFA2 PUSH1 0x7 SLOAD PUSH2 0x2A4B JUMP JUMPDEST PUSH1 0x7 SSTORE DUP2 PUSH2 0xFF2 JUMPI JUMPDEST PUSH2 0xFB7 DUP4 PUSH1 0x9 SLOAD PUSH2 0x2A5A JUMP JUMPDEST PUSH1 0x9 SSTORE PUSH1 0x40 MLOAD SWAP3 DUP4 MSTORE DUP3 ADD MSTORE TIMESTAMP PUSH1 0x40 DUP3 ADD MSTORE PUSH32 0xF912D4B5F28D0115563A297C7E01BB967C15E8BED5915AC113D29AF5E2393936 PUSH1 0x60 CALLER SWAP3 LOG3 DUP1 RETURN JUMPDEST PUSH2 0xFFD PUSH1 0xA SLOAD PUSH2 0x2A4B JUMP JUMPDEST PUSH1 0xA SSTORE PUSH2 0x100C DUP3 PUSH1 0x8 SLOAD PUSH2 0x2A5A JUMP JUMPDEST PUSH1 0x8 SSTORE PUSH2 0xFAB JUMP JUMPDEST SWAP1 DUP1 SWAP3 POP DUP2 DUP2 RETURNDATASIZE DUP4 GT PUSH2 0x1041 JUMPI JUMPDEST PUSH2 0x102C DUP2 DUP4 PUSH2 0x27DD JUMP JUMPDEST DUP2 ADD SUB SLT PUSH2 0x103C JUMPI MLOAD SWAP1 CODESIZE PUSH2 0xF96 JUMP JUMPDEST PUSH1 0x0 DUP1 REVERT JUMPDEST POP RETURNDATASIZE PUSH2 0x1022 JUMP JUMPDEST PUSH1 0x40 MLOAD RETURNDATASIZE DUP8 DUP3 RETURNDATACOPY RETURNDATASIZE SWAP1 REVERT JUMPDEST PUSH2 0x1069 SWAP1 DUP3 RETURNDATASIZE DUP5 GT PUSH2 0x5F3 JUMPI PUSH2 0x5E7 DUP2 DUP4 PUSH2 0x27DD JUMP JUMPDEST POP CODESIZE PUSH2 0xF6D JUMP JUMPDEST PUSH1 0x40 MLOAD RETURNDATASIZE DUP9 DUP3 RETURNDATACOPY RETURNDATASIZE SWAP1 REVERT JUMPDEST PUSH2 0x108E SWAP1 RETURNDATASIZE DUP1 DUP12 DUP4 RETURNDATACOPY PUSH2 0x4E3 DUP2 DUP4 PUSH2 0x27DD JUMP JUMPDEST POP CODESIZE PUSH2 0xF34 JUMP JUMPDEST PUSH1 0x40 MLOAD RETURNDATASIZE DUP10 DUP3 RETURNDATACOPY RETURNDATASIZE SWAP1 REVERT JUMPDEST PUSH2 0x10B6 SWAP1 DUP12 RETURNDATASIZE DUP14 GT PUSH2 0x5F3 JUMPI PUSH2 0x5E7 DUP2 DUP4 PUSH2 0x27DD JUMP JUMPDEST POP CODESIZE PUSH2 0xEBD JUMP JUMPDEST PUSH2 0x10D1 SWAP2 POP RETURNDATASIZE DUP1 DUP9 DUP4 RETURNDATACOPY PUSH2 0x4E3 DUP2 DUP4 PUSH2 0x27DD JUMP JUMPDEST CODESIZE PUSH2 0xE73 JUMP JUMPDEST PUSH4 0x4E487B71 PUSH1 0xE0 SHL DUP12 MSTORE PUSH1 0x11 PUSH1 0x4 MSTORE DUP8 DUP12 REVERT JUMPDEST PUSH2 0x1100 SWAP1 DUP7 RETURNDATASIZE DUP9 GT PUSH2 0x5F3 JUMPI PUSH2 0x5E7 DUP2 DUP4 PUSH2 0x27DD JUMP JUMPDEST POP CODESIZE PUSH2 0xDF7 JUMP JUMPDEST PUSH1 0x40 MLOAD RETURNDATASIZE DUP13 DUP3 RETURNDATACOPY RETURNDATASIZE SWAP1 REVERT JUMPDEST PUSH4 0x4E487B71 PUSH1 0xE0 SHL DUP8 MSTORE PUSH1 0x11 PUSH1 0x4 MSTORE DUP4 DUP8 REVERT JUMPDEST POP PUSH1 0x44 CALLDATALOAD SWAP3 PUSH2 0xD8C JUMP JUMPDEST DUP5 DUP1 REVERT JUMPDEST PUSH1 0x40 MLOAD PUSH3 0x461BCD PUSH1 0xE5 SHL DUP2 MSTORE PUSH1 0x20 PUSH1 0x4 DUP3 ADD MSTORE PUSH1 0x15 DUP2 DUP6 ADD MSTORE PUSH21 0x20A92124AC1D1024B73B30B634B21039B2B73232B9 PUSH1 0x59 SHL PUSH1 0x44 DUP3 ADD MSTORE PUSH1 0x64 SWAP1 REVERT JUMPDEST DUP6 DUP1 REVERT JUMPDEST POP CALLVALUE PUSH2 0x276 JUMPI DUP1 PUSH1 0x3 NOT CALLDATASIZE ADD SLT PUSH2 0x276 JUMPI PUSH1 0x20 PUSH1 0x40 MLOAD PUSH20 0x2170ED0880AC9A755FD29B2688956BD959F933F8 DUP2 MSTORE RETURN JUMPDEST POP CALLVALUE PUSH2 0x276 JUMPI DUP1 PUSH1 0x3 NOT CALLDATASIZE ADD SLT PUSH2 0x276 JUMPI PUSH1 0x20 PUSH1 0x4 SLOAD PUSH1 0x40 MLOAD SWAP1 DUP2 MSTORE RETURN JUMPDEST POP CALLVALUE PUSH2 0x276 JUMPI DUP1 PUSH1 0x3 NOT CALLDATASIZE ADD SLT PUSH2 0x276 JUMPI PUSH1 0x20 PUSH1 0x40 MLOAD PUSH20 0x3A6D8CA21D1CF76F653A67577FA0D27453350DD8 DUP2 MSTORE RETURN JUMPDEST POP CALLVALUE PUSH2 0x276 JUMPI DUP1 PUSH1 0x3 NOT CALLDATASIZE ADD SLT PUSH2 0x276 JUMPI PUSH1 0x20 PUSH1 0x5 SLOAD PUSH1 0x40 MLOAD SWAP1 DUP2 MSTORE RETURN JUMPDEST POP CALLVALUE PUSH2 0x276 JUMPI PUSH1 0xFF PUSH2 0x121E CALLDATASIZE PUSH2 0x2548 JUMP JUMPDEST PUSH1 0x1 SLOAD SWAP1 SWAP6 PUSH1 0x1 PUSH1 0x1 PUSH1 0xA0 SHL SUB SWAP6 SWAP4 SWAP5 SWAP4 SWAP3 DUP7 SWAP3 SWAP1 SWAP2 PUSH2 0x1257 SWAP2 CALLER DUP6 DUP3 AND EQ DUP1 ISZERO PUSH2 0x1454 JUMPI JUMPDEST PUSH2 0x124D SWAP1 PUSH2 0x25CB JUMP JUMPDEST PUSH1 0xA0 SHR AND ISZERO PUSH2 0x260F JUMP JUMPDEST PUSH3 0x15180 TIMESTAMP DIV PUSH1 0x6 SLOAD DUP2 GT PUSH2 0x1447 JUMPI JUMPDEST POP PUSH2 0x1277 PUSH1 0x5 SLOAD PUSH1 0x4 SLOAD GT PUSH2 0x2674 JUMP JUMPDEST PUSH2 0x1285 PUSH1 0x2 SLOAD DUP7 GT ISZERO PUSH2 0x26C0 JUMP JUMPDEST AND SWAP3 DUP4 DUP8 MSTORE DUP5 PUSH1 0x20 SWAP3 PUSH1 0xB DUP5 MSTORE PUSH2 0x12A2 PUSH1 0xFF PUSH1 0x40 DUP12 KECCAK256 SLOAD AND PUSH2 0x2758 JUMP JUMPDEST AND SWAP4 PUSH1 0x40 MLOAD PUSH4 0xDFE1681 PUSH1 0xE0 SHL DUP2 MSTORE DUP4 DUP2 PUSH1 0x4 DUP2 DUP10 GAS STATICCALL SWAP5 DUP6 ISZERO PUSH2 0x143C JUMPI DUP8 SWAP2 DUP11 SWAP7 PUSH2 0x13FC JUMPI JUMPDEST POP DUP2 AND SWAP5 AND DUP5 EQ SWAP6 DUP7 PUSH1 0x0 EQ PUSH2 0x13F5 JUMPI DUP3 SWAP7 JUMPDEST ISZERO PUSH2 0x13EE JUMPI DUP9 SWAP8 JUMPDEST PUSH1 0x40 MLOAD SWAP6 DUP6 DUP8 ADD MSTORE AND PUSH1 0x40 DUP6 ADD MSTORE PUSH1 0x60 DUP5 ADD MSTORE PUSH1 0x80 DUP4 ADD MSTORE PUSH1 0x80 DUP3 MSTORE PUSH1 0xA0 DUP3 ADD SWAP5 PUSH8 0xFFFFFFFFFFFFFFFF DUP7 GT SWAP5 DUP4 DUP8 LT DUP7 OR PUSH2 0x13DA JUMPI DUP7 PUSH1 0x40 MSTORE DUP5 EXTCODESIZE ISZERO PUSH2 0x13D6 JUMPI SWAP2 DUP7 SWAP4 SWAP2 DUP9 SWAP6 SWAP4 PUSH4 0x22C0D9F PUSH1 0xE0 SHL DUP7 MSTORE PUSH1 0xA4 DUP5 ADD MSTORE PUSH1 0xC4 DUP4 ADD MSTORE ADDRESS PUSH1 0xE4 DUP4 ADD MSTORE PUSH1 0x80 PUSH2 0x104 DUP4 ADD MSTORE DUP2 MLOAD SWAP1 DUP2 PUSH2 0x124 DUP5 ADD MSTORE DUP6 JUMPDEST DUP3 DUP2 LT PUSH2 0x13BB JUMPI POP POP DUP1 DUP3 ADD PUSH2 0x144 ADD DUP6 SWAP1 MSTORE PUSH1 0x1F ADD PUSH1 0x1F NOT AND DUP2 ADD SUB PUSH1 0xA4 ADD SWAP1 DUP3 SWAP1 DUP5 SWAP1 GAS CALL DUP1 ISZERO PUSH2 0x13B0 JUMPI PUSH2 0x138F JUMPI DUP3 DUP1 RETURN JUMPDEST PUSH2 0x139C JUMPI PUSH1 0x40 MSTORE CODESIZE DUP1 DUP3 DUP1 RETURN JUMPDEST PUSH4 0x4E487B71 PUSH1 0xE0 SHL DUP3 MSTORE PUSH1 0x41 PUSH1 0x4 MSTORE PUSH1 0x24 DUP3 REVERT JUMPDEST PUSH1 0x40 MLOAD RETURNDATASIZE DUP6 DUP3 RETURNDATACOPY RETURNDATASIZE SWAP1 REVERT JUMPDEST DUP1 DUP5 ADD DUP1 DUP4 ADD MLOAD PUSH2 0x144 SWAP1 SWAP2 ADD MSTORE DUP10 SWAP7 POP DUP9 SWAP6 POP DUP2 ADD PUSH2 0x135A JUMP JUMPDEST DUP8 DUP1 REVERT JUMPDEST PUSH4 0x4E487B71 PUSH1 0xE0 SHL DUP9 MSTORE PUSH1 0x41 PUSH1 0x4 MSTORE PUSH1 0x24 DUP9 REVERT JUMPDEST DUP3 SWAP8 PUSH2 0x12E4 JUMP JUMPDEST DUP9 SWAP7 PUSH2 0x12DC JUMP JUMPDEST DUP6 DUP1 SWAP3 SWAP8 POP DUP2 SWAP4 POP RETURNDATASIZE DUP4 GT PUSH2 0x1435 JUMPI JUMPDEST PUSH2 0x1416 DUP2 DUP4 PUSH2 0x27DD JUMP JUMPDEST DUP2 ADD SUB SLT PUSH2 0x1431 JUMPI MLOAD DUP7 DUP2 AND DUP2 SUB PUSH2 0x1431 JUMPI SWAP4 DUP7 SWAP1 DUP2 PUSH2 0x12C9 JUMP JUMPDEST DUP9 DUP1 REVERT JUMPDEST POP RETURNDATASIZE PUSH2 0x140C JUMP JUMPDEST PUSH1 0x40 MLOAD RETURNDATASIZE DUP12 DUP3 RETURNDATACOPY RETURNDATASIZE SWAP1 REVERT JUMPDEST DUP9 PUSH1 0x5 SSTORE PUSH1 0x6 SSTORE CODESIZE PUSH2 0x1267 JUMP JUMPDEST POP DUP11 SLOAD DUP6 AND CALLER EQ PUSH2 0x1244 JUMP JUMPDEST POP CALLVALUE PUSH2 0x276 JUMPI DUP1 PUSH1 0x3 NOT CALLDATASIZE ADD SLT PUSH2 0x276 JUMPI PUSH1 0x20 PUSH1 0x9 SLOAD PUSH1 0x40 MLOAD SWAP1 DUP2 MSTORE RETURN JUMPDEST POP CALLVALUE PUSH2 0x276 JUMPI DUP1 PUSH1 0x3 NOT CALLDATASIZE ADD SLT PUSH2 0x276 JUMPI PUSH1 0x20 PUSH1 0xFF PUSH1 0x1 SLOAD PUSH1 0xA0 SHR AND PUSH1 0x40 MLOAD SWAP1 ISZERO ISZERO DUP2 MSTORE RETURN JUMPDEST POP CALLVALUE PUSH2 0x276 JUMPI PUSH1 0x20 CALLDATASIZE PUSH1 0x3 NOT ADD SLT PUSH2 0x276 JUMPI PUSH1 0x4 CALLDATALOAD SWAP1 PUSH1 0xC SLOAD DUP3 LT ISZERO PUSH2 0x276 JUMPI PUSH2 0x120 PUSH2 0x14D0 DUP4 PUSH2 0x24F8 JUMP JUMPDEST POP PUSH1 0xFF DUP2 SLOAD SWAP2 PUSH1 0x1 DUP1 PUSH1 0xA0 SHL SUB DUP1 PUSH1 0x1 DUP4 ADD SLOAD AND SWAP2 DUP2 PUSH1 0x2 DUP3 ADD SLOAD AND PUSH1 0x3 DUP3 ADD SLOAD PUSH1 0x4 DUP4 ADD SLOAD SWAP1 PUSH1 0x5 DUP5 ADD SLOAD SWAP3 PUSH1 0x7 DUP7 PUSH1 0x6 DUP8 ADD SLOAD AND SWAP6 ADD SLOAD SWAP7 PUSH1 0x40 MLOAD SWAP10 DUP11 MSTORE PUSH1 0x20 DUP11 ADD MSTORE PUSH1 0x40 DUP10 ADD MSTORE PUSH1 0x60 DUP9 ADD MSTORE PUSH1 0x80 DUP8 ADD MSTORE PUSH1 0xA0 DUP7 ADD MSTORE PUSH1 0xC0 DUP6 ADD MSTORE DUP2 AND PUSH1 0xE0 DUP5 ADD MSTORE PUSH1 0xA0 SHR AND ISZERO ISZERO PUSH2 0x100 DUP3 ADD MSTORE RETURN JUMPDEST POP CALLVALUE PUSH2 0x276 JUMPI DUP1 PUSH1 0x3 NOT CALLDATASIZE ADD SLT PUSH2 0x276 JUMPI PUSH1 0x20 PUSH1 0x40 MLOAD PUSH20 0xD4AE6ECA985340DD434D38F470ACCCE4DC78D109 DUP2 MSTORE RETURN JUMPDEST POP CALLVALUE PUSH2 0x276 JUMPI PUSH1 0x20 CALLDATASIZE PUSH1 0x3 NOT ADD SLT PUSH2 0x276 JUMPI PUSH1 0x4 CALLDATALOAD PUSH2 0x159B PUSH1 0x1 DUP1 PUSH1 0xA0 SHL SUB DUP4 SLOAD AND CALLER EQ PUSH2 0x2A78 JUMP JUMPDEST PUSH32 0xD7474166E78731BC168CACA1FE1CCEBBD6F3C95BAEE64997902E6B48F442B81A PUSH1 0xA0 PUSH1 0x4 SLOAD PUSH1 0x40 MLOAD SWAP1 PUSH1 0x60 DUP3 MSTORE PUSH1 0xE PUSH1 0x60 DUP4 ADD MSTORE PUSH14 0x19185A5B1E531BDCDCD31A5B5A5D PUSH1 0x92 SHL PUSH1 0x80 DUP4 ADD MSTORE PUSH1 0x20 DUP3 ADD MSTORE DUP4 PUSH1 0x40 DUP3 ADD MSTORE LOG1 PUSH1 0x4 SSTORE DUP1 RETURN JUMPDEST POP CALLVALUE PUSH2 0x276 JUMPI PUSH1 0x20 CALLDATASIZE PUSH1 0x3 NOT ADD SLT PUSH2 0x276 JUMPI PUSH1 0x4 CALLDATALOAD PUSH2 0x1622 PUSH1 0x1 DUP1 PUSH1 0xA0 SHL SUB DUP4 SLOAD AND CALLER EQ PUSH2 0x2A78 JUMP JUMPDEST PUSH32 0xD7474166E78731BC168CACA1FE1CCEBBD6F3C95BAEE64997902E6B48F442B81A PUSH1 0xA0 PUSH1 0x2 SLOAD PUSH1 0x40 MLOAD SWAP1 PUSH1 0x60 DUP3 MSTORE PUSH1 0xC PUSH1 0x60 DUP4 ADD MSTORE PUSH12 0x6D6178547261646553697A65 PUSH1 0xA0 SHL PUSH1 0x80 DUP4 ADD MSTORE PUSH1 0x20 DUP3 ADD MSTORE DUP4 PUSH1 0x40 DUP3 ADD MSTORE LOG1 PUSH1 0x2 SSTORE DUP1 RETURN JUMPDEST POP CALLVALUE PUSH2 0x276 JUMPI DUP1 PUSH1 0x3 NOT CALLDATASIZE ADD SLT PUSH2 0x276 JUMPI PUSH1 0x20 PUSH1 0x40 MLOAD PUSH20 0xE9E7CEA3DEDCA5984780BAFC599BD69ADD087D56 DUP2 MSTORE RETURN JUMPDEST POP CALLVALUE PUSH2 0x276 JUMPI PUSH1 0xE0 CALLDATASIZE PUSH1 0x3 NOT ADD SLT PUSH2 0x276 JUMPI PUSH2 0x16C7 PUSH2 0x24A2 JUMP JUMPDEST PUSH2 0x16CF PUSH2 0x24B8 JUMP JUMPDEST SWAP1 PUSH1 0x44 CALLDATALOAD PUSH1 0x1 PUSH1 0x1 PUSH1 0xA0 SHL SUB DUP2 AND DUP2 SUB PUSH2 0x1C39 JUMPI PUSH2 0x16EB PUSH2 0x24CE JUMP JUMPDEST SWAP1 PUSH2 0x170E PUSH1 0xFF PUSH1 0x1 SLOAD PUSH1 0x1 DUP1 PUSH1 0xA0 SHL SUB DUP2 AND CALLER EQ DUP1 ISZERO PUSH2 0x1C26 JUMPI PUSH2 0x124D SWAP1 PUSH2 0x25CB JUMP JUMPDEST PUSH3 0x15180 TIMESTAMP DIV PUSH1 0x6 SLOAD DUP2 GT PUSH2 0x1C19 JUMPI JUMPDEST POP PUSH2 0x172E PUSH1 0x5 SLOAD PUSH1 0x4 SLOAD GT PUSH2 0x2674 JUMP JUMPDEST PUSH2 0x173E PUSH1 0x2 SLOAD PUSH1 0x84 CALLDATALOAD GT ISZERO PUSH2 0x26C0 JUMP JUMPDEST PUSH2 0x174C PUSH1 0xC4 CALLDATALOAD TIMESTAMP GT ISZERO PUSH2 0x270C JUMP JUMPDEST PUSH1 0x1 PUSH1 0x1 PUSH1 0xA0 SHL SUB DUP4 AND DUP6 MSTORE PUSH1 0xB PUSH1 0x20 MSTORE PUSH1 0x40 DUP6 KECCAK256 SLOAD PUSH2 0x176E SWAP1 PUSH1 0xFF AND PUSH2 0x2758 JUMP JUMPDEST PUSH1 0x40 MLOAD PUSH4 0x70A08231 PUSH1 0xE0 SHL DUP2 MSTORE ADDRESS PUSH1 0x4 DUP3 ADD MSTORE SWAP2 PUSH1 0x20 DUP4 PUSH1 0x24 DUP2 PUSH1 0x1 PUSH1 0x1 PUSH1 0xA0 SHL SUB DUP10 AND GAS STATICCALL SWAP3 DUP4 ISZERO PUSH2 0x1070 JUMPI DUP7 SWAP4 PUSH2 0x1BE5 JUMPI JUMPDEST POP PUSH2 0x17B1 PUSH1 0x84 CALLDATALOAD DUP5 LT ISZERO PUSH2 0x27FF JUMP JUMPDEST PUSH1 0x40 MLOAD PUSH4 0x95EA7B3 PUSH1 0xE0 SHL DUP2 MSTORE PUSH1 0x1 PUSH1 0x1 PUSH1 0xA0 SHL SUB DUP6 AND PUSH1 0x4 DUP3 ADD MSTORE PUSH1 0x84 CALLDATALOAD PUSH1 0x24 DUP3 ADD MSTORE PUSH1 0x20 DUP2 DUP1 PUSH1 0x44 DUP2 ADD SUB DUP2 DUP11 PUSH1 0x1 PUSH1 0x1 PUSH1 0xA0 SHL SUB DUP12 AND GAS CALL DUP1 ISZERO PUSH2 0x1095 JUMPI PUSH2 0x1BC6 JUMPI JUMPDEST POP DUP6 PUSH2 0x1860 DUP2 PUSH1 0x40 MLOAD PUSH2 0x1809 DUP2 PUSH2 0x27C1 JUMP JUMPDEST PUSH1 0x2 DUP2 MSTORE PUSH1 0x40 CALLDATASIZE PUSH1 0x20 DUP4 ADD CALLDATACOPY PUSH1 0x1 PUSH1 0x1 PUSH1 0xA0 SHL SUB DUP10 AND PUSH2 0x1828 DUP3 PUSH2 0x287B JUMP JUMPDEST MSTORE PUSH1 0x1 PUSH1 0x1 PUSH1 0xA0 SHL SUB DUP7 AND PUSH2 0x183C DUP3 PUSH2 0x2888 JUMP JUMPDEST MSTORE PUSH1 0x40 MLOAD DUP1 SWAP4 DUP2 SWAP3 PUSH4 0x38ED1739 PUSH1 0xE0 SHL DUP4 MSTORE PUSH1 0xC4 CALLDATALOAD SWAP1 ADDRESS SWAP1 PUSH1 0x84 CALLDATALOAD PUSH1 0x4 DUP7 ADD PUSH2 0x2963 JUMP JUMPDEST SUB DUP2 DUP4 PUSH1 0x1 PUSH1 0x1 PUSH1 0xA0 SHL SUB DUP12 AND GAS CALL DUP1 ISZERO PUSH2 0x5FA JUMPI PUSH2 0x1885 SWAP2 DUP4 SWAP2 PUSH2 0x1B93 JUMPI POP PUSH2 0x2888 JUMP JUMPDEST MLOAD PUSH1 0x40 MLOAD PUSH4 0x95EA7B3 PUSH1 0xE0 SHL DUP2 MSTORE PUSH1 0x1 PUSH1 0x1 PUSH1 0xA0 SHL SUB DUP8 AND PUSH1 0x4 DUP3 ADD MSTORE PUSH1 0x24 DUP2 ADD DUP3 SWAP1 MSTORE SWAP1 PUSH1 0x20 DUP3 DUP1 PUSH1 0x44 DUP2 ADD SUB DUP2 DUP7 PUSH1 0x1 PUSH1 0x1 PUSH1 0xA0 SHL SUB DUP11 AND GAS CALL SWAP1 DUP2 ISZERO PUSH2 0x13B0 JUMPI PUSH2 0x193A SWAP3 DUP5 SWAP3 PUSH2 0x1BA7 JUMPI JUMPDEST POP PUSH1 0x40 MLOAD SWAP1 PUSH2 0x18E1 DUP3 PUSH2 0x27C1 JUMP JUMPDEST PUSH1 0x2 DUP3 MSTORE PUSH1 0x40 CALLDATASIZE PUSH1 0x20 DUP5 ADD CALLDATACOPY PUSH1 0x1 PUSH1 0x1 PUSH1 0xA0 SHL SUB DUP8 AND PUSH2 0x1900 DUP4 PUSH2 0x287B JUMP JUMPDEST MSTORE PUSH2 0x190A DUP3 PUSH2 0x2888 JUMP JUMPDEST PUSH1 0x1 PUSH1 0x1 PUSH1 0xA0 SHL SUB SWAP1 SWAP7 AND SWAP6 DUP7 SWAP1 MSTORE PUSH1 0x40 MLOAD PUSH4 0x38ED1739 PUSH1 0xE0 SHL DUP2 MSTORE SWAP4 DUP5 SWAP3 DUP4 SWAP3 PUSH1 0xC4 CALLDATALOAD SWAP2 ADDRESS SWAP2 PUSH1 0x4 DUP7 ADD PUSH2 0x2963 JUMP JUMPDEST SUB DUP2 DUP4 PUSH1 0x1 PUSH1 0x1 PUSH1 0xA0 SHL SUB DUP12 AND GAS CALL DUP1 ISZERO PUSH2 0x5FA JUMPI PUSH2 0x195F SWAP2 DUP4 SWAP2 PUSH2 0x1B93 JUMPI POP PUSH2 0x2888 JUMP JUMPDEST MLOAD PUSH1 0x40 MLOAD PUSH4 0x95EA7B3 PUSH1 0xE0 SHL DUP2 MSTORE PUSH1 0x1 PUSH1 0x1 PUSH1 0xA0 SHL SUB DUP8 AND PUSH1 0x4 DUP3 ADD MSTORE PUSH1 0x24 DUP2 ADD DUP3 SWAP1 MSTORE SWAP3 SWAP1 PUSH1 0x20 DUP5 PUSH1 0x44 DUP2 DUP7 DUP7 GAS CALL SWAP4 DUP5 ISZERO PUSH2 0x13B0 JUMPI PUSH2 0x19F8 SWAP5 PUSH2 0x1B74 JUMPI JUMPDEST POP PUSH1 0x40 MLOAD SWAP2 PUSH2 0x19AD DUP4 PUSH2 0x27C1 JUMP JUMPDEST PUSH1 0x2 DUP4 MSTORE PUSH1 0x40 CALLDATASIZE PUSH1 0x20 DUP6 ADD CALLDATACOPY PUSH2 0x19C2 DUP4 PUSH2 0x287B JUMP JUMPDEST MSTORE PUSH1 0x1 PUSH1 0x1 PUSH1 0xA0 SHL SUB DUP9 AND PUSH2 0x19D6 DUP4 PUSH2 0x2888 JUMP JUMPDEST MSTORE PUSH1 0x40 MLOAD PUSH4 0x38ED1739 PUSH1 0xE0 SHL DUP2 MSTORE SWAP4 DUP5 SWAP3 DUP4 SWAP3 PUSH1 0xC4 CALLDATALOAD SWAP2 ADDRESS SWAP2 PUSH1 0x4 DUP7 ADD PUSH2 0x2963 JUMP JUMPDEST SUB DUP2 DUP4 PUSH1 0x1 PUSH1 0x1 PUSH1 0xA0 SHL SUB DUP10 AND GAS CALL DUP1 ISZERO PUSH2 0x1070 JUMPI PUSH2 0x1B5A JUMPI JUMPDEST POP PUSH1 0x40 MLOAD PUSH4 0x70A08231 PUSH1 0xE0 SHL DUP2 MSTORE ADDRESS PUSH1 0x4 DUP3 ADD MSTORE PUSH1 0x20 DUP2 PUSH1 0x24 DUP2 PUSH1 0x1 PUSH1 0x1 PUSH1 0xA0 SHL SUB DUP10 AND GAS STATICCALL SWAP1 DUP2 ISZERO PUSH2 0x1070 JUMPI DUP7 SWAP2 PUSH2 0x1B08 JUMPI JUMPDEST POP DUP3 DUP2 PUSH2 0x1A78 PUSH32 0x5CEB8BC0F4D35E514334C2A5C191990E2C466A5A7D67104DABC48C314E692080 SWAP6 PUSH2 0x1A7D SWAP5 GT PUSH2 0x29C0 JUMP JUMPDEST PUSH2 0x299D JUMP JUMPDEST SWAP1 PUSH2 0x1A8C PUSH1 0xA4 CALLDATALOAD DUP4 LT ISZERO PUSH2 0x29FF JUMP JUMPDEST PUSH2 0x1A97 PUSH1 0x7 SLOAD PUSH2 0x2A4B JUMP JUMPDEST PUSH1 0x7 SSTORE PUSH2 0x1AA5 PUSH1 0xA SLOAD PUSH2 0x2A4B JUMP JUMPDEST PUSH1 0xA SSTORE PUSH2 0x1AB4 DUP3 PUSH1 0x8 SLOAD PUSH2 0x2A5A JUMP JUMPDEST PUSH1 0x8 SSTORE PUSH2 0x1AC5 PUSH1 0x84 CALLDATALOAD PUSH1 0x9 SLOAD PUSH2 0x2A5A JUMP JUMPDEST PUSH1 0x9 SSTORE PUSH1 0x40 DUP1 MLOAD PUSH1 0x84 CALLDATALOAD DUP2 MSTORE PUSH1 0x20 DUP2 ADD SWAP4 SWAP1 SWAP4 MSTORE PUSH1 0x1 PUSH1 0x1 PUSH1 0xA0 SHL SUB SWAP5 DUP6 AND SWAP1 DUP4 ADD DUP2 SWAP1 MSTORE PUSH1 0x60 DUP4 ADD MSTORE TIMESTAMP PUSH1 0x80 DUP4 ADD MSTORE DUP4 AND SWAP4 SWAP1 SWAP3 AND SWAP2 DUP1 PUSH1 0xA0 DUP2 ADD JUMPDEST SUB SWAP1 LOG3 DUP1 RETURN JUMPDEST SWAP1 POP PUSH1 0x20 DUP2 RETURNDATASIZE PUSH1 0x20 GT PUSH2 0x1B52 JUMPI JUMPDEST DUP2 PUSH2 0x1B23 PUSH1 0x20 SWAP4 DUP4 PUSH2 0x27DD JUMP JUMPDEST DUP2 ADD SUB SLT PUSH2 0x116F JUMPI MLOAD PUSH32 0x5CEB8BC0F4D35E514334C2A5C191990E2C466A5A7D67104DABC48C314E692080 PUSH2 0x1A46 JUMP JUMPDEST RETURNDATASIZE SWAP2 POP PUSH2 0x1B16 JUMP JUMPDEST PUSH2 0x1B6D SWAP1 RETURNDATASIZE DUP1 DUP9 DUP4 RETURNDATACOPY PUSH2 0x4E3 DUP2 DUP4 PUSH2 0x27DD JUMP JUMPDEST POP CODESIZE PUSH2 0x1A12 JUMP JUMPDEST PUSH2 0x1B8C SWAP1 PUSH1 0x20 RETURNDATASIZE PUSH1 0x20 GT PUSH2 0x5F3 JUMPI PUSH2 0x5E7 DUP2 DUP4 PUSH2 0x27DD JUMP JUMPDEST POP CODESIZE PUSH2 0x199F JUMP JUMPDEST PUSH2 0x10D1 SWAP2 POP RETURNDATASIZE DUP1 DUP6 DUP4 RETURNDATACOPY PUSH2 0x4E3 DUP2 DUP4 PUSH2 0x27DD JUMP JUMPDEST PUSH2 0x1BBF SWAP1 PUSH1 0x20 RETURNDATASIZE PUSH1 0x20 GT PUSH2 0x5F3 JUMPI PUSH2 0x5E7 DUP2 DUP4 PUSH2 0x27DD JUMP JUMPDEST POP CODESIZE PUSH2 0x18D3 JUMP JUMPDEST PUSH2 0x1BDE SWAP1 PUSH1 0x20 RETURNDATASIZE PUSH1 0x20 GT PUSH2 0x5F3 JUMPI PUSH2 0x5E7 DUP2 DUP4 PUSH2 0x27DD JUMP JUMPDEST POP CODESIZE PUSH2 0x17F7 JUMP JUMPDEST SWAP1 SWAP3 POP PUSH1 0x20 DUP2 RETURNDATASIZE PUSH1 0x20 GT PUSH2 0x1C11 JUMPI JUMPDEST DUP2 PUSH2 0x1C01 PUSH1 0x20 SWAP4 DUP4 PUSH2 0x27DD JUMP JUMPDEST DUP2 ADD SUB SLT PUSH2 0x116F JUMPI MLOAD SWAP2 CODESIZE PUSH2 0x17A2 JUMP JUMPDEST RETURNDATASIZE SWAP2 POP PUSH2 0x1BF4 JUMP JUMPDEST DUP6 PUSH1 0x5 SSTORE PUSH1 0x6 SSTORE CODESIZE PUSH2 0x171E JUMP JUMPDEST POP DUP8 SLOAD PUSH1 0x1 PUSH1 0x1 PUSH1 0xA0 SHL SUB AND CALLER EQ PUSH2 0x1244 JUMP JUMPDEST DUP4 DUP1 REVERT JUMPDEST POP CALLVALUE PUSH2 0x276 JUMPI PUSH1 0x20 CALLDATASIZE PUSH1 0x3 NOT ADD SLT PUSH2 0x276 JUMPI PUSH1 0x20 SWAP1 PUSH1 0xFF SWAP1 PUSH1 0x40 SWAP1 PUSH1 0x1 PUSH1 0x1 PUSH1 0xA0 SHL SUB PUSH2 0x1C68 PUSH2 0x24A2 JUMP JUMPDEST AND DUP2 MSTORE PUSH1 0xB DUP5 MSTORE KECCAK256 SLOAD AND PUSH1 0x40 MLOAD SWAP1 ISZERO ISZERO DUP2 MSTORE RETURN JUMPDEST POP CALLVALUE PUSH2 0x276 JUMPI DUP1 PUSH1 0x3 NOT CALLDATASIZE ADD SLT PUSH2 0x276 JUMPI PUSH1 0x20 PUSH1 0x3 SLOAD PUSH1 0x40 MLOAD SWAP1 DUP2 MSTORE RETURN JUMPDEST POP CALLVALUE PUSH2 0x276 JUMPI PUSH1 0x40 CALLDATASIZE PUSH1 0x3 NOT ADD SLT PUSH2 0x276 JUMPI PUSH2 0x1CB4 PUSH2 0x24A2 JUMP JUMPDEST PUSH1 0x24 CALLDATALOAD SWAP1 DUP2 ISZERO ISZERO DUP1 SWAP3 SUB PUSH2 0x1CF7 JUMPI DUP3 SLOAD PUSH1 0x1 PUSH1 0x1 PUSH1 0xA0 SHL SUB SWAP2 SWAP1 PUSH2 0x1CDB SWAP1 DUP4 AND CALLER EQ PUSH2 0x2A78 JUMP JUMPDEST AND DUP3 MSTORE PUSH1 0xB PUSH1 0x20 MSTORE PUSH1 0x40 DUP3 KECCAK256 SWAP1 PUSH1 0xFF DUP1 NOT DUP4 SLOAD AND SWAP2 AND OR SWAP1 SSTORE DUP1 RETURN JUMPDEST DUP3 DUP1 REVERT JUMPDEST POP CALLVALUE PUSH2 0x276 JUMPI PUSH1 0x20 CALLDATASIZE PUSH1 0x3 NOT ADD SLT PUSH2 0x276 JUMPI PUSH1 0x4 CALLDATALOAD DUP1 ISZERO ISZERO DUP1 SWAP2 SUB PUSH2 0xAB4 JUMPI PUSH2 0x1D2E PUSH1 0x1 DUP1 PUSH1 0xA0 SHL SUB DUP4 SLOAD AND CALLER EQ PUSH2 0x2A78 JUMP JUMPDEST PUSH1 0x1 DUP1 SLOAD PUSH1 0xFF PUSH1 0xA0 SHL NOT AND PUSH1 0xA0 SWAP3 SWAP1 SWAP3 SHL PUSH1 0xFF PUSH1 0xA0 SHL AND SWAP2 SWAP1 SWAP2 OR SWAP1 SSTORE DUP1 RETURN JUMPDEST POP CALLVALUE PUSH2 0x276 JUMPI DUP1 PUSH1 0x3 NOT CALLDATASIZE ADD SLT PUSH2 0x276 JUMPI PUSH1 0x20 PUSH1 0x6 SLOAD PUSH1 0x40 MLOAD SWAP1 DUP2 MSTORE RETURN JUMPDEST POP CALLVALUE PUSH2 0x276 JUMPI DUP1 PUSH1 0x3 NOT CALLDATASIZE ADD SLT PUSH2 0x276 JUMPI PUSH1 0x20 PUSH1 0x40 MLOAD PUSH20 0x325E343F1DE602396E256B67EFD1F61C3A6B38BD DUP2 MSTORE RETURN JUMPDEST POP CALLVALUE PUSH2 0x276 JUMPI DUP1 PUSH1 0x3 NOT CALLDATASIZE ADD SLT PUSH2 0x276 JUMPI PUSH1 0x20 PUSH1 0x2 SLOAD PUSH1 0x40 MLOAD SWAP1 DUP2 MSTORE RETURN JUMPDEST POP CALLVALUE PUSH2 0x276 JUMPI PUSH1 0xE0 CALLDATASIZE PUSH1 0x3 NOT ADD SLT PUSH2 0x276 JUMPI PUSH2 0x1DD3 PUSH2 0x24A2 JUMP JUMPDEST PUSH2 0x1DDB PUSH2 0x24B8 JUMP JUMPDEST PUSH2 0x1DE3 PUSH2 0x24CE JUMP JUMPDEST PUSH1 0x84 CALLDATALOAD PUSH1 0x1 PUSH1 0x1 PUSH1 0xA0 SHL SUB DUP2 AND SWAP1 SUB PUSH2 0x1C39 JUMPI PUSH1 0x1 SLOAD PUSH2 0x1E1B SWAP1 PUSH1 0xFF SWAP1 CALLER PUSH1 0x1 PUSH1 0x1 PUSH1 0xA0 SHL SUB DUP3 AND EQ DUP1 ISZERO PUSH2 0x248F JUMPI PUSH2 0x124D SWAP1 PUSH2 0x25CB JUMP JUMPDEST PUSH3 0x15180 TIMESTAMP DIV PUSH1 0x6 SLOAD DUP2 GT PUSH2 0x2482 JUMPI JUMPDEST POP PUSH2 0x1E3B PUSH1 0x5 SLOAD PUSH1 0x4 SLOAD GT PUSH2 0x2674 JUMP JUMPDEST PUSH2 0x1E4B PUSH1 0x2 SLOAD PUSH1 0x44 CALLDATALOAD GT ISZERO PUSH2 0x26C0 JUMP JUMPDEST PUSH2 0x1E59 PUSH1 0xC4 CALLDATALOAD TIMESTAMP GT ISZERO PUSH2 0x270C JUMP JUMPDEST PUSH1 0x1 PUSH1 0x1 PUSH1 0xA0 SHL SUB DUP2 AND DUP5 MSTORE PUSH1 0xB PUSH1 0x20 MSTORE PUSH1 0x40 DUP5 KECCAK256 SLOAD PUSH1 0xFF AND DUP1 PUSH2 0x2466 JUMPI JUMPDEST PUSH2 0x1E81 SWAP1 PUSH2 0x2758 JUMP JUMPDEST PUSH1 0x1 PUSH1 0x1 PUSH1 0xA0 SHL SUB DUP2 DUP2 AND PUSH1 0x84 CALLDATALOAD SWAP1 SWAP2 AND EQ PUSH2 0x242F JUMPI PUSH1 0x40 MLOAD PUSH4 0x70A08231 PUSH1 0xE0 SHL DUP2 MSTORE ADDRESS PUSH1 0x4 DUP3 ADD MSTORE SWAP2 PUSH1 0x20 DUP4 PUSH1 0x24 DUP2 PUSH1 0x1 PUSH1 0x1 PUSH1 0xA0 SHL SUB DUP9 AND GAS STATICCALL SWAP3 DUP4 ISZERO PUSH2 0x1048 JUMPI DUP6 SWAP4 PUSH2 0x23FB JUMPI JUMPDEST POP PUSH2 0x1EDA PUSH1 0x44 CALLDATALOAD DUP5 LT ISZERO PUSH2 0x27FF JUMP JUMPDEST PUSH1 0x40 MLOAD PUSH4 0x95EA7B3 PUSH1 0xE0 SHL DUP2 MSTORE PUSH1 0x1 PUSH1 0x1 PUSH1 0xA0 SHL SUB DUP4 DUP2 AND PUSH1 0x4 DUP4 ADD MSTORE PUSH1 0x44 DUP1 CALLDATALOAD PUSH1 0x24 DUP5 ADD MSTORE PUSH1 0x20 SWAP2 DUP4 SWAP2 SWAP1 DUP3 SWAP1 DUP11 SWAP1 DUP11 AND GAS CALL DUP1 ISZERO PUSH2 0x1070 JUMPI PUSH2 0x23DC JUMPI JUMPDEST POP PUSH2 0x1F84 DUP6 PUSH1 0x40 MLOAD PUSH2 0x1F2A DUP2 PUSH2 0x27C1 JUMP JUMPDEST PUSH1 0x2 DUP2 MSTORE PUSH1 0x40 CALLDATASIZE PUSH1 0x20 DUP4 ADD CALLDATACOPY PUSH1 0x1 PUSH1 0x1 PUSH1 0xA0 SHL SUB DUP8 AND PUSH2 0x1F49 DUP3 PUSH2 0x287B JUMP JUMPDEST MSTORE PUSH2 0x1F53 DUP2 PUSH2 0x2888 JUMP JUMPDEST PUSH1 0x1 PUSH1 0x1 PUSH1 0xA0 SHL SUB DUP6 AND SWAP1 MSTORE PUSH1 0x40 MLOAD PUSH4 0x38ED1739 PUSH1 0xE0 SHL DUP2 MSTORE SWAP3 DUP4 SWAP2 DUP3 SWAP2 SWAP1 PUSH1 0xC4 CALLDATALOAD SWAP1 ADDRESS SWAP1 PUSH1 0x44 CALLDATALOAD PUSH1 0x4 DUP7 ADD PUSH2 0x2963 JUMP JUMPDEST SUB DUP2 DUP4 PUSH1 0x1 PUSH1 0x1 PUSH1 0xA0 SHL SUB DUP9 AND GAS CALL SWAP1 DUP2 ISZERO PUSH2 0x1070 JUMPI DUP7 SWAP2 PUSH2 0x23C2 JUMPI JUMPDEST POP DUP1 MLOAD DUP1 PUSH1 0x0 NOT DUP2 ADD GT PUSH2 0x233D JUMPI SWAP1 PUSH2 0x1FBE SWAP2 PUSH1 0x0 NOT ADD SWAP1 PUSH2 0x2898 JUMP JUMPDEST MLOAD PUSH1 0x40 MLOAD PUSH4 0x95EA7B3 PUSH1 0xE0 SHL DUP2 MSTORE PUSH1 0x1 PUSH1 0x1 PUSH1 0xA0 SHL SUB PUSH1 0x84 CALLDATALOAD AND PUSH1 0x4 DUP3 ADD MSTORE PUSH1 0x24 DUP2 ADD DUP3 SWAP1 MSTORE SWAP1 SWAP4 SWAP1 PUSH1 0x20 DUP2 DUP1 PUSH1 0x44 DUP2 ADD SUB DUP2 DUP11 PUSH1 0x1 PUSH1 0x1 PUSH1 0xA0 SHL SUB DUP9 AND GAS CALL DUP1 ISZERO PUSH2 0x1095 JUMPI PUSH2 0x23A3 JUMPI JUMPDEST POP PUSH2 0x206F DUP7 PUSH1 0x40 MLOAD PUSH2 0x201A DUP2 PUSH2 0x27C1 JUMP JUMPDEST PUSH1 0x2 DUP2 MSTORE PUSH1 0x40 CALLDATASIZE PUSH1 0x20 DUP4 ADD CALLDATACOPY PUSH1 0x1 PUSH1 0x1 PUSH1 0xA0 SHL SUB DUP6 AND PUSH2 0x2039 DUP3 PUSH2 0x287B JUMP JUMPDEST MSTORE PUSH1 0x1 PUSH1 0x1 PUSH1 0xA0 SHL SUB DUP9 AND PUSH2 0x204D DUP3 PUSH2 0x2888 JUMP JUMPDEST MSTORE PUSH1 0x40 MLOAD DUP1 SWAP4 DUP2 SWAP3 PUSH4 0x38ED1739 PUSH1 0xE0 SHL DUP4 MSTORE PUSH1 0xC4 CALLDATALOAD SWAP1 ADDRESS SWAP1 DUP12 PUSH1 0x4 DUP7 ADD PUSH2 0x2963 JUMP JUMPDEST SUB DUP2 DUP4 PUSH1 0x84 CALLDATALOAD PUSH1 0x1 PUSH1 0x1 PUSH1 0xA0 SHL SUB AND GAS CALL DUP1 ISZERO PUSH2 0x1095 JUMPI PUSH2 0x2389 JUMPI JUMPDEST POP PUSH1 0x40 MLOAD PUSH4 0x70A08231 PUSH1 0xE0 SHL DUP2 MSTORE ADDRESS PUSH1 0x4 DUP3 ADD MSTORE SWAP1 PUSH1 0x20 DUP3 PUSH1 0x24 DUP2 PUSH1 0x1 PUSH1 0x1 PUSH1 0xA0 SHL SUB DUP11 AND GAS STATICCALL DUP1 ISZERO PUSH2 0x1095 JUMPI DUP8 SWAP1 PUSH2 0x2351 JUMPI JUMPDEST PUSH2 0x20CF SWAP3 POP PUSH2 0x1A78 DUP3 DUP3 GT PUSH2 0x29C0 JUMP JUMPDEST SWAP3 PUSH2 0x20DE PUSH1 0xA4 CALLDATALOAD DUP6 LT ISZERO PUSH2 0x29FF JUMP JUMPDEST PUSH2 0x2710 DUP1 DUP6 MUL SWAP1 DUP6 DUP3 DIV EQ DUP6 ISZERO OR ISZERO PUSH2 0x233D JUMPI PUSH2 0x20FE SWAP1 PUSH1 0x44 CALLDATALOAD SWAP1 PUSH2 0x2654 JUMP JUMPDEST PUSH1 0x3 SLOAD GT PUSH2 0x22F8 JUMPI PUSH2 0x2111 PUSH1 0x7 SLOAD PUSH2 0x2A4B JUMP JUMPDEST PUSH1 0x7 SSTORE PUSH2 0x211F PUSH1 0xA SLOAD PUSH2 0x2A4B JUMP JUMPDEST PUSH1 0xA SSTORE PUSH2 0x212E DUP5 PUSH1 0x8 SLOAD PUSH2 0x2A5A JUMP JUMPDEST PUSH1 0x8 SSTORE PUSH2 0x213F PUSH1 0x44 CALLDATALOAD PUSH1 0x9 SLOAD PUSH2 0x2A5A JUMP JUMPDEST PUSH1 0x9 SSTORE PUSH1 0x40 MLOAD SWAP1 PUSH2 0x214F DUP3 PUSH2 0x27A4 JUMP JUMPDEST TIMESTAMP DUP3 MSTORE PUSH1 0x1 PUSH1 0x1 PUSH1 0xA0 SHL SUB DUP7 DUP2 AND PUSH1 0x20 DUP5 ADD MSTORE DUP4 DUP2 AND PUSH1 0x40 DUP5 ADD MSTORE PUSH1 0x44 CALLDATALOAD PUSH1 0x60 DUP5 ADD MSTORE PUSH1 0x80 DUP4 ADD SWAP2 SWAP1 SWAP2 MSTORE PUSH1 0xA0 DUP3 ADD DUP6 SWAP1 MSTORE DUP4 DUP2 AND PUSH1 0xC0 DUP4 ADD MSTORE PUSH1 0x84 CALLDATALOAD AND PUSH1 0xE0 DUP3 ADD MSTORE PUSH1 0x1 PUSH2 0x100 DUP3 ADD MSTORE PUSH1 0xC SLOAD PUSH9 0x10000000000000000 DUP2 LT ISZERO PUSH2 0x22E4 JUMPI DUP1 PUSH1 0x1 PUSH2 0x21BE SWAP3 ADD PUSH1 0xC SSTORE PUSH2 0x24F8 JUMP JUMPDEST PUSH2 0x22D0 JUMPI DUP2 MLOAD DUP2 SSTORE PUSH1 0x20 DUP1 DUP4 ADD MLOAD PUSH1 0x1 DUP4 ADD DUP1 SLOAD PUSH1 0x1 PUSH1 0x1 PUSH1 0xA0 SHL SUB SWAP3 DUP4 AND PUSH1 0x1 PUSH1 0x1 PUSH1 0xA0 SHL SUB NOT SWAP2 DUP3 AND OR SWAP1 SWAP2 SSTORE PUSH1 0x40 DUP1 DUP7 ADD MLOAD PUSH1 0x2 DUP7 ADD DUP1 SLOAD SWAP2 DUP6 AND SWAP2 DUP5 AND SWAP2 SWAP1 SWAP2 OR SWAP1 SSTORE PUSH1 0x60 DUP1 DUP8 ADD MLOAD PUSH1 0x3 DUP8 ADD SSTORE PUSH1 0x80 DUP1 DUP9 ADD MLOAD PUSH1 0x4 DUP9 ADD SSTORE PUSH1 0xA0 DUP1 DUP10 ADD MLOAD PUSH1 0x5 DUP10 ADD SSTORE PUSH1 0xC0 DUP10 ADD MLOAD PUSH1 0x6 DUP10 ADD DUP1 SLOAD SWAP2 DUP9 AND SWAP2 SWAP1 SWAP7 AND OR SWAP1 SWAP5 SSTORE PUSH1 0xE0 DUP9 ADD MLOAD PUSH1 0x7 SWAP1 SWAP8 ADD DUP1 SLOAD PUSH2 0x100 SWAP1 SWAP10 ADD MLOAD PUSH1 0xFF PUSH1 0xA0 SHL SWAP1 ISZERO ISZERO DUP7 SHL AND SWAP8 DUP7 AND PUSH1 0x1 PUSH1 0x1 PUSH1 0xA8 SHL SUB NOT SWAP1 SWAP10 AND SWAP9 SWAP1 SWAP9 OR SWAP7 SWAP1 SWAP7 OR SWAP1 SWAP7 SSTORE DUP1 MLOAD PUSH1 0x44 CALLDATALOAD DUP2 MSTORE SWAP4 DUP5 ADD SWAP9 SWAP1 SWAP9 MSTORE SWAP6 DUP2 AND SWAP7 DUP3 ADD SWAP7 SWAP1 SWAP7 MSTORE PUSH1 0x84 CALLDATALOAD DUP7 AND SWAP3 DUP2 ADD SWAP3 SWAP1 SWAP3 MSTORE TIMESTAMP SWAP1 DUP3 ADD MSTORE SWAP1 DUP4 AND SWAP4 SWAP1 SWAP3 AND SWAP2 PUSH32 0x5CEB8BC0F4D35E514334C2A5C191990E2C466A5A7D67104DABC48C314E692080 SWAP2 DUP2 SWAP1 DUP2 ADD PUSH2 0x1B02 JUMP JUMPDEST PUSH4 0x4E487B71 PUSH1 0xE0 SHL DUP8 MSTORE PUSH1 0x4 DUP8 SWAP1 MSTORE PUSH1 0x24 DUP8 REVERT JUMPDEST PUSH4 0x4E487B71 PUSH1 0xE0 SHL DUP8 MSTORE PUSH1 0x41 PUSH1 0x4 MSTORE PUSH1 0x24 DUP8 REVERT JUMPDEST PUSH1 0x40 MLOAD PUSH3 0x461BCD PUSH1 0xE5 SHL DUP2 MSTORE PUSH1 0x20 PUSH1 0x4 DUP3 ADD MSTORE PUSH1 0x1B PUSH1 0x24 DUP3 ADD MSTORE PUSH32 0x41524249583A2042656C6F77206D696E2070726F666974206270730000000000 PUSH1 0x44 DUP3 ADD MSTORE PUSH1 0x64 SWAP1 REVERT JUMPDEST PUSH4 0x4E487B71 PUSH1 0xE0 SHL DUP8 MSTORE PUSH1 0x11 PUSH1 0x4 MSTORE PUSH1 0x24 DUP8 REVERT JUMPDEST POP PUSH1 0x20 DUP3 RETURNDATASIZE PUSH1 0x20 GT PUSH2 0x2381 JUMPI JUMPDEST DUP2 PUSH2 0x236B PUSH1 0x20 SWAP4 DUP4 PUSH2 0x27DD JUMP JUMPDEST DUP2 ADD SUB SLT PUSH2 0x237D JUMPI PUSH2 0x20CF SWAP2 MLOAD PUSH2 0x20BF JUMP JUMPDEST DUP7 DUP1 REVERT JUMPDEST RETURNDATASIZE SWAP2 POP PUSH2 0x235E JUMP JUMPDEST PUSH2 0x239C SWAP1 RETURNDATASIZE DUP1 DUP10 DUP4 RETURNDATACOPY PUSH2 0x4E3 DUP2 DUP4 PUSH2 0x27DD JUMP JUMPDEST POP CODESIZE PUSH2 0x208B JUMP JUMPDEST PUSH2 0x23BB SWAP1 PUSH1 0x20 RETURNDATASIZE PUSH1 0x20 GT PUSH2 0x5F3 JUMPI PUSH2 0x5E7 DUP2 DUP4 PUSH2 0x27DD JUMP JUMPDEST POP CODESIZE PUSH2 0x2009 JUMP JUMPDEST PUSH2 0x23D6 SWAP2 POP RETURNDATASIZE DUP1 DUP9 DUP4 RETURNDATACOPY PUSH2 0x4E3 DUP2 DUP4 PUSH2 0x27DD JUMP JUMPDEST CODESIZE PUSH2 0x1FA1 JUMP JUMPDEST PUSH2 0x23F4 SWAP1 PUSH1 0x20 RETURNDATASIZE PUSH1 0x20 GT PUSH2 0x5F3 JUMPI PUSH2 0x5E7 DUP2 DUP4 PUSH2 0x27DD JUMP JUMPDEST POP CODESIZE PUSH2 0x1F19 JUMP JUMPDEST SWAP1 SWAP3 POP PUSH1 0x20 DUP2 RETURNDATASIZE PUSH1 0x20 GT PUSH2 0x2427 JUMPI JUMPDEST DUP2 PUSH2 0x2417 PUSH1 0x20 SWAP4 DUP4 PUSH2 0x27DD JUMP JUMPDEST DUP2 ADD SUB SLT PUSH2 0x112F JUMPI MLOAD SWAP2 CODESIZE PUSH2 0x1ECB JUMP JUMPDEST RETURNDATASIZE SWAP2 POP PUSH2 0x240A JUMP JUMPDEST PUSH1 0x40 MLOAD PUSH3 0x461BCD PUSH1 0xE5 SHL DUP2 MSTORE PUSH1 0x20 PUSH1 0x4 DUP3 ADD MSTORE PUSH1 0xF PUSH1 0x24 DUP3 ADD MSTORE PUSH15 0x82A48492B07440A6C2DACA40888AB PUSH1 0x8B SHL PUSH1 0x44 DUP3 ADD MSTORE PUSH1 0x64 SWAP1 REVERT JUMPDEST POP PUSH1 0x84 CALLDATALOAD PUSH1 0x1 PUSH1 0x1 PUSH1 0xA0 SHL SUB AND DUP5 MSTORE PUSH1 0x40 DUP5 KECCAK256 SLOAD PUSH1 0xFF AND PUSH2 0x1E78 JUMP JUMPDEST DUP5 PUSH1 0x5 SSTORE PUSH1 0x6 SSTORE CODESIZE PUSH2 0x1E2B JUMP JUMPDEST POP DUP7 SLOAD PUSH1 0x1 PUSH1 0x1 PUSH1 0xA0 SHL SUB AND CALLER EQ PUSH2 0x1244 JUMP JUMPDEST PUSH1 0x4 CALLDATALOAD SWAP1 PUSH1 0x1 PUSH1 0x1 PUSH1 0xA0 SHL SUB DUP3 AND DUP3 SUB PUSH2 0x103C JUMPI JUMP JUMPDEST PUSH1 0x24 CALLDATALOAD SWAP1 PUSH1 0x1 PUSH1 0x1 PUSH1 0xA0 SHL SUB DUP3 AND DUP3 SUB PUSH2 0x103C JUMPI JUMP JUMPDEST PUSH1 0x64 CALLDATALOAD SWAP1 PUSH1 0x1 PUSH1 0x1 PUSH1 0xA0 SHL SUB DUP3 AND DUP3 SUB PUSH2 0x103C JUMPI JUMP JUMPDEST CALLDATALOAD SWAP1 PUSH1 0x1 PUSH1 0x1 PUSH1 0xA0 SHL SUB DUP3 AND DUP3 SUB PUSH2 0x103C JUMPI JUMP JUMPDEST PUSH1 0xC SLOAD DUP2 LT ISZERO PUSH2 0x2532 JUMPI PUSH1 0xC PUSH1 0x0 MSTORE PUSH1 0x3 SHL PUSH32 0xDF6966C971051C3D54EC59162606531493A51404A002842F56009D7E5CF4A8C7 ADD SWAP1 PUSH1 0x0 SWAP1 JUMP JUMPDEST PUSH4 0x4E487B71 PUSH1 0xE0 SHL PUSH1 0x0 MSTORE PUSH1 0x32 PUSH1 0x4 MSTORE PUSH1 0x24 PUSH1 0x0 REVERT JUMPDEST PUSH1 0xA0 SWAP1 PUSH1 0x3 NOT ADD SLT PUSH2 0x103C JUMPI PUSH1 0x1 PUSH1 0x1 PUSH1 0xA0 SHL SUB PUSH1 0x4 CALLDATALOAD DUP2 DUP2 AND DUP2 SUB PUSH2 0x103C JUMPI SWAP2 PUSH1 0x24 CALLDATALOAD DUP3 DUP2 AND DUP2 SUB PUSH2 0x103C JUMPI SWAP2 PUSH1 0x44 CALLDATALOAD SWAP2 PUSH1 0x64 CALLDATALOAD DUP3 DUP2 AND DUP2 SUB PUSH2 0x103C JUMPI SWAP2 PUSH1 0x84 CALLDATALOAD SWAP1 DUP2 AND DUP2 SUB PUSH2 0x103C JUMPI SWAP1 JUMP JUMPDEST PUSH1 0x60 SWAP1 PUSH1 0x3 NOT ADD SLT PUSH2 0x103C JUMPI PUSH1 0x1 PUSH1 0x1 PUSH1 0xA0 SHL SUB SWAP1 PUSH1 0x4 CALLDATALOAD DUP3 DUP2 AND DUP2 SUB PUSH2 0x103C JUMPI SWAP2 PUSH1 0x24 CALLDATALOAD SWAP1 DUP2 AND DUP2 SUB PUSH2 0x103C JUMPI SWAP1 PUSH1 0x44 CALLDATALOAD SWAP1 JUMP JUMPDEST ISZERO PUSH2 0x25D2 JUMPI JUMP JUMPDEST PUSH1 0x40 MLOAD PUSH3 0x461BCD PUSH1 0xE5 SHL DUP2 MSTORE PUSH1 0x20 PUSH1 0x4 DUP3 ADD MSTORE PUSH1 0x15 PUSH1 0x24 DUP3 ADD MSTORE PUSH21 0x10549092560E88139BDD08185D5D1A1BDC9A5E9959 PUSH1 0x5A SHL PUSH1 0x44 DUP3 ADD MSTORE PUSH1 0x64 SWAP1 REVERT JUMPDEST ISZERO PUSH2 0x2616 JUMPI JUMP JUMPDEST PUSH1 0x40 MLOAD PUSH3 0x461BCD PUSH1 0xE5 SHL DUP2 MSTORE PUSH1 0x20 PUSH1 0x4 DUP3 ADD MSTORE PUSH1 0x16 PUSH1 0x24 DUP3 ADD MSTORE PUSH22 0x10549092560E8810DBDB9D1C9858DD081C185D5CD959 PUSH1 0x52 SHL PUSH1 0x44 DUP3 ADD MSTORE PUSH1 0x64 SWAP1 REVERT JUMPDEST DUP2 ISZERO PUSH2 0x265E JUMPI DIV SWAP1 JUMP JUMPDEST PUSH4 0x4E487B71 PUSH1 0xE0 SHL PUSH1 0x0 MSTORE PUSH1 0x12 PUSH1 0x4 MSTORE PUSH1 0x24 PUSH1 0x0 REVERT JUMPDEST ISZERO PUSH2 0x267B JUMPI JUMP JUMPDEST PUSH1 0x40 MLOAD PUSH3 0x461BCD PUSH1 0xE5 SHL DUP2 MSTORE PUSH1 0x20 PUSH1 0x4 DUP3 ADD MSTORE PUSH1 0x1F PUSH1 0x24 DUP3 ADD MSTORE PUSH32 0x41524249583A204461696C79206C6F7373206C696D6974207265616368656400 PUSH1 0x44 DUP3 ADD MSTORE PUSH1 0x64 SWAP1 REVERT JUMPDEST ISZERO PUSH2 0x26C7 JUMPI JUMP JUMPDEST PUSH1 0x40 MLOAD PUSH3 0x461BCD PUSH1 0xE5 SHL DUP2 MSTORE PUSH1 0x20 PUSH1 0x4 DUP3 ADD MSTORE PUSH1 0x1D PUSH1 0x24 DUP3 ADD MSTORE PUSH32 0x41524249583A2045786365656473206D61782074726164652073697A65000000 PUSH1 0x44 DUP3 ADD MSTORE PUSH1 0x64 SWAP1 REVERT JUMPDEST ISZERO PUSH2 0x2713 JUMPI JUMP JUMPDEST PUSH1 0x40 MLOAD PUSH3 0x461BCD PUSH1 0xE5 SHL DUP2 MSTORE PUSH1 0x20 PUSH1 0x4 DUP3 ADD MSTORE PUSH1 0x17 PUSH1 0x24 DUP3 ADD MSTORE PUSH32 0x41524249583A20446561646C696E652065787069726564000000000000000000 PUSH1 0x44 DUP3 ADD MSTORE PUSH1 0x64 SWAP1 REVERT JUMPDEST ISZERO PUSH2 0x275F JUMPI JUMP JUMPDEST PUSH1 0x40 MLOAD PUSH3 0x461BCD PUSH1 0xE5 SHL DUP2 MSTORE PUSH1 0x20 PUSH1 0x4 DUP3 ADD MSTORE PUSH1 0x18 PUSH1 0x24 DUP3 ADD MSTORE PUSH32 0x41524249583A20556E617070726F76656420726F757465720000000000000000 PUSH1 0x44 DUP3 ADD MSTORE PUSH1 0x64 SWAP1 REVERT JUMPDEST PUSH2 0x120 DUP2 ADD SWAP1 DUP2 LT PUSH8 0xFFFFFFFFFFFFFFFF DUP3 GT OR PUSH2 0x875 JUMPI PUSH1 0x40 MSTORE JUMP JUMPDEST PUSH1 0x60 DUP2 ADD SWAP1 DUP2 LT PUSH8 0xFFFFFFFFFFFFFFFF DUP3 GT OR PUSH2 0x875 JUMPI PUSH1 0x40 MSTORE JUMP JUMPDEST SWAP1 PUSH1 0x1F DUP1 NOT SWAP2 ADD AND DUP2 ADD SWAP1 DUP2 LT PUSH8 0xFFFFFFFFFFFFFFFF DUP3 GT OR PUSH2 0x875 JUMPI PUSH1 0x40 MSTORE JUMP JUMPDEST ISZERO PUSH2 0x2806 JUMPI JUMP JUMPDEST PUSH1 0x40 MLOAD PUSH3 0x461BCD PUSH1 0xE5 SHL DUP2 MSTORE PUSH1 0x20 PUSH1 0x4 DUP3 ADD MSTORE PUSH1 0x1B PUSH1 0x24 DUP3 ADD MSTORE PUSH32 0x41524249583A20496E73756666696369656E742062616C616E63650000000000 PUSH1 0x44 DUP3 ADD MSTORE PUSH1 0x64 SWAP1 REVERT JUMPDEST SWAP1 DUP2 PUSH1 0x20 SWAP2 SUB SLT PUSH2 0x103C JUMPI MLOAD DUP1 ISZERO ISZERO DUP2 SUB PUSH2 0x103C JUMPI SWAP1 JUMP JUMPDEST PUSH8 0xFFFFFFFFFFFFFFFF DUP2 GT PUSH2 0x875 JUMPI PUSH1 0x5 SHL PUSH1 0x20 ADD SWAP1 JUMP JUMPDEST DUP1 MLOAD ISZERO PUSH2 0x2532 JUMPI PUSH1 0x20 ADD SWAP1 JUMP JUMPDEST DUP1 MLOAD PUSH1 0x1 LT ISZERO PUSH2 0x2532 JUMPI PUSH1 0x40 ADD SWAP1 JUMP JUMPDEST DUP1 MLOAD DUP3 LT ISZERO PUSH2 0x2532 JUMPI PUSH1 0x20 SWAP2 PUSH1 0x5 SHL ADD ADD SWAP1 JUMP JUMPDEST PUSH1 0x20 SWAP1 DUP2 DUP2 DUP5 SUB SLT PUSH2 0x103C JUMPI DUP1 MLOAD SWAP1 PUSH8 0xFFFFFFFFFFFFFFFF DUP3 GT PUSH2 0x103C JUMPI ADD SWAP2 DUP1 PUSH1 0x1F DUP5 ADD SLT ISZERO PUSH2 0x103C JUMPI DUP3 MLOAD PUSH2 0x28E2 DUP2 PUSH2 0x2863 JUMP JUMPDEST SWAP4 PUSH2 0x28F0 PUSH1 0x40 MLOAD SWAP6 DUP7 PUSH2 0x27DD JUMP JUMPDEST DUP2 DUP6 MSTORE DUP4 DUP1 DUP7 ADD SWAP3 PUSH1 0x5 SHL DUP3 ADD ADD SWAP3 DUP4 GT PUSH2 0x103C JUMPI DUP4 ADD SWAP1 JUMPDEST DUP3 DUP3 LT PUSH2 0x2917 JUMPI POP POP POP POP SWAP1 JUMP JUMPDEST DUP2 MLOAD DUP2 MSTORE SWAP1 DUP4 ADD SWAP1 DUP4 ADD PUSH2 0x2909 JUMP JUMPDEST SWAP1 DUP2 MLOAD DUP1 DUP3 MSTORE PUSH1 0x20 DUP1 DUP1 SWAP4 ADD SWAP4 ADD SWAP2 PUSH1 0x0 JUMPDEST DUP3 DUP2 LT PUSH2 0x2946 JUMPI POP POP POP POP SWAP1 JUMP JUMPDEST DUP4 MLOAD PUSH1 0x1 PUSH1 0x1 PUSH1 0xA0 SHL SUB AND DUP6 MSTORE SWAP4 DUP2 ADD SWAP4 SWAP3 DUP2 ADD SWAP3 PUSH1 0x1 ADD PUSH2 0x2938 JUMP JUMPDEST SWAP1 PUSH1 0x80 SWAP3 PUSH2 0x2989 SWAP2 SWAP7 SWAP6 SWAP5 SWAP7 DUP4 MSTORE PUSH1 0x0 PUSH1 0x20 DUP5 ADD MSTORE PUSH1 0xA0 PUSH1 0x40 DUP5 ADD MSTORE PUSH1 0xA0 DUP4 ADD SWAP1 PUSH2 0x2926 JUMP JUMPDEST PUSH1 0x1 PUSH1 0x1 PUSH1 0xA0 SHL SUB SWAP1 SWAP6 AND PUSH1 0x60 DUP3 ADD MSTORE ADD MSTORE JUMP JUMPDEST SWAP2 SWAP1 DUP3 SUB SWAP2 DUP3 GT PUSH2 0x29AA JUMPI JUMP JUMPDEST PUSH4 0x4E487B71 PUSH1 0xE0 SHL PUSH1 0x0 MSTORE PUSH1 0x11 PUSH1 0x4 MSTORE PUSH1 0x24 PUSH1 0x0 REVERT JUMPDEST ISZERO PUSH2 0x29C7 JUMPI JUMP JUMPDEST PUSH1 0x40 MLOAD PUSH3 0x461BCD PUSH1 0xE5 SHL DUP2 MSTORE PUSH1 0x20 PUSH1 0x4 DUP3 ADD MSTORE PUSH1 0x10 PUSH1 0x24 DUP3 ADD MSTORE PUSH16 0x10549092560E88139BC81C1C9BD99A5D PUSH1 0x82 SHL PUSH1 0x44 DUP3 ADD MSTORE PUSH1 0x64 SWAP1 REVERT JUMPDEST ISZERO PUSH2 0x2A06 JUMPI JUMP JUMPDEST PUSH1 0x40 MLOAD PUSH3 0x461BCD PUSH1 0xE5 SHL DUP2 MSTORE PUSH1 0x20 PUSH1 0x4 DUP3 ADD MSTORE PUSH1 0x17 PUSH1 0x24 DUP3 ADD MSTORE PUSH32 0x41524249583A2042656C6F77206D696E2070726F666974000000000000000000 PUSH1 0x44 DUP3 ADD MSTORE PUSH1 0x64 SWAP1 REVERT JUMPDEST PUSH1 0x0 NOT DUP2 EQ PUSH2 0x29AA JUMPI PUSH1 0x1 ADD SWAP1 JUMP JUMPDEST SWAP2 SWAP1 DUP3 ADD DUP1 SWAP3 GT PUSH2 0x29AA JUMPI JUMP JUMPDEST SWAP1 PUSH1 0x4 DUP2 LT ISZERO PUSH2 0x2532 JUMPI PUSH1 0x5 SHL ADD SWAP1 JUMP JUMPDEST ISZERO PUSH2 0x2A7F JUMPI JUMP JUMPDEST PUSH1 0x40 MLOAD PUSH3 0x461BCD PUSH1 0xE5 SHL DUP2 MSTORE PUSH1 0x20 PUSH1 0x4 DUP3 ADD MSTORE PUSH1 0x10 PUSH1 0x24 DUP3 ADD MSTORE PUSH16 0x20A92124AC1D102737BA1037BBB732B9 PUSH1 0x81 SHL PUSH1 0x44 DUP3 ADD MSTORE PUSH1 0x64 SWAP1 REVERT INVALID LOG2 PUSH5 0x6970667358 0x22 SLT KECCAK256 PUSH32 0x93E5DCCCF73133B2B6EC03D2C7C8C43879DE3635181CAA02F1A69160DB4D564 PUSH20 0x6F6C634300081300330000000000000000000000 "},"methodIdentifiers":{"BABYSWAP_ROUTER()":"121a0bae","BISWAP_ROUTER()":"778ffbda","BTCB()":"e9c9f44f","BUSD()":"484f4ea9","ETH()":"8322fff2","PANCAKESWAP_ROUTER()":"e1a504e5","THENA_ROUTER()":"59f73318","USDC()":"89a30271","USDT()":"c54e44eb","WBNB()":"8dd95002","agent()":"f5ff5c76","approveRouter(address,bool)":"2a9d339d","approveToken(address,address,uint256)":"da3e3397","approvedRouters(address)":"445b1e4b","calculateArbitrageProfit(address,address,uint256,address,address)":"e943f090","dailyLoss()":"658a6bc4","dailyLossLimit()":"779e306b","emergencyWithdraw(address,uint256)":"95ccea67","emergencyWithdrawBNB()":"f26b854f","executeCrossDexArbitrage(address,address,uint256,address,address,uint256,uint256)":"0b33c642","executeFlashArbitrage(address,address,uint256,address,address)":"611c60b6","executeTriangularArbitrage(address,address,address,address,uint256,uint256,uint256)":"47bcf478","getBestPrice(address,address,uint256)":"d6d2aedb","getRecentTrades(uint256)":"c63877eb","getStats()":"c59d4847","getTradeCount()":"a3031b77","lastResetDay()":"1259a5c8","maxTradeSize()":"10fa79e2","minProfitBps()":"383aeeae","owner()":"8da5cb5b","pancakeCall(address,uint256,uint256,bytes)":"84800812","paused()":"5c975abb","setAgent(address)":"bcf685ed","setDailyLossLimit(uint256)":"5439dc86","setMaxTradeSize(uint256)":"4b3f3378","setMinProfitBps(uint256)":"fcff2c28","setPaused(bool)":"16c38b3c","successfulTrades()":"fc213996","totalProfit()":"86001519","totalTrades()":"e275c997","totalVolume()":"5f81a57c","tradeHistory(uint256)":"5b0c5dbd"}}}}}