{"contracts/ArbixVault.sol":{"ArbixVault":{"abi":[{"inputs":[{"internalType":"address","name":"_executor","type":"address"}],"stateMutability":"nonpayable","type":"constructor"},{"anonymous":false,"inputs":[{"indexed":true,"internalType":"address","name":"user","type":"address"},{"indexed":true,"internalType":"address","name":"token","type":"address"},{"indexed":false,"internalType":"uint256","name":"amount","type":"uint256"}],"name":"Deposited","type":"event"},{"anonymous":false,"inputs":[{"indexed":true,"internalType":"address","name":"token","type":"address"},{"indexed":false,"internalType":"uint256","name":"amount","type":"uint256"}],"name":"ExecutorFunded","type":"event"},{"anonymous":false,"inputs":[{"indexed":false,"internalType":"address","name":"oldExecutor","type":"address"},{"indexed":false,"internalType":"address","name":"newExecutor","type":"address"}],"name":"ExecutorUpdated","type":"event"},{"anonymous":false,"inputs":[{"indexed":true,"internalType":"address","name":"token","type":"address"},{"indexed":false,"internalType":"uint256","name":"totalProfit","type":"uint256"},{"indexed":false,"internalType":"uint256","name":"fee","type":"uint256"}],"name":"ProfitDistributed","type":"event"},{"anonymous":false,"inputs":[{"indexed":true,"internalType":"address","name":"user","type":"address"},{"indexed":true,"internalType":"address","name":"token","type":"address"},{"indexed":false,"internalType":"uint256","name":"amount","type":"uint256"},{"indexed":false,"internalType":"uint256","name":"profit","type":"uint256"}],"name":"Withdrawn","type":"event"},{"inputs":[],"name":"MIN_LOCK_PERIOD","outputs":[{"internalType":"uint256","name":"","type":"uint256"}],"stateMutability":"view","type":"function"},{"inputs":[],"name":"accumulatedFees","outputs":[{"internalType":"uint256","name":"","type":"uint256"}],"stateMutability":"view","type":"function"},{"inputs":[{"internalType":"address","name":"token","type":"address"}],"name":"addSupportedToken","outputs":[],"stateMutability":"nonpayable","type":"function"},{"inputs":[{"internalType":"address","name":"token","type":"address"},{"internalType":"uint256","name":"amount","type":"uint256"}],"name":"collectProfits","outputs":[],"stateMutability":"nonpayable","type":"function"},{"inputs":[{"internalType":"address","name":"token","type":"address"},{"internalType":"uint256","name":"amount","type":"uint256"}],"name":"deposit","outputs":[],"stateMutability":"nonpayable","type":"function"},{"inputs":[{"internalType":"address","name":"","type":"address"},{"internalType":"address","name":"","type":"address"}],"name":"depositors","outputs":[{"internalType":"uint256","name":"depositAmount","type":"uint256"},{"internalType":"uint256","name":"depositTimestamp","type":"uint256"},{"internalType":"uint256","name":"profitShare","type":"uint256"},{"internalType":"bool","name":"active","type":"bool"}],"stateMutability":"view","type":"function"},{"inputs":[],"name":"executor","outputs":[{"internalType":"address","name":"","type":"address"}],"stateMutability":"view","type":"function"},{"inputs":[{"internalType":"address","name":"token","type":"address"},{"internalType":"uint256","name":"amount","type":"uint256"}],"name":"fundExecutor","outputs":[],"stateMutability":"nonpayable","type":"function"},{"inputs":[{"internalType":"address","name":"user","type":"address"},{"internalType":"address","name":"token","type":"address"}],"name":"getDepositorInfo","outputs":[{"internalType":"uint256","name":"amount","type":"uint256"},{"internalType":"uint256","name":"timestamp","type":"uint256"},{"internalType":"uint256","name":"profit","type":"uint256"},{"internalType":"bool","name":"active","type":"bool"}],"stateMutability":"view","type":"function"},{"inputs":[],"name":"getSupportedTokenCount","outputs":[{"internalType":"uint256","name":"","type":"uint256"}],"stateMutability":"view","type":"function"},{"inputs":[{"internalType":"address","name":"token","type":"address"}],"name":"getVaultBalance","outputs":[{"internalType":"uint256","name":"","type":"uint256"}],"stateMutability":"view","type":"function"},{"inputs":[{"internalType":"address","name":"","type":"address"}],"name":"isSupported","outputs":[{"internalType":"bool","name":"","type":"bool"}],"stateMutability":"view","type":"function"},{"inputs":[],"name":"locked","outputs":[{"internalType":"bool","name":"","type":"bool"}],"stateMutability":"view","type":"function"},{"inputs":[],"name":"owner","outputs":[{"internalType":"address","name":"","type":"address"}],"stateMutability":"view","type":"function"},{"inputs":[],"name":"performanceFee","outputs":[{"internalType":"uint256","name":"","type":"uint256"}],"stateMutability":"view","type":"function"},{"inputs":[{"internalType":"address","name":"_executor","type":"address"}],"name":"setExecutor","outputs":[],"stateMutability":"nonpayable","type":"function"},{"inputs":[{"internalType":"uint256","name":"_fee","type":"uint256"}],"name":"setPerformanceFee","outputs":[],"stateMutability":"nonpayable","type":"function"},{"inputs":[{"internalType":"uint256","name":"","type":"uint256"}],"name":"supportedTokens","outputs":[{"internalType":"address","name":"","type":"address"}],"stateMutability":"view","type":"function"},{"inputs":[{"internalType":"address","name":"","type":"address"}],"name":"totalDeposited","outputs":[{"internalType":"uint256","name":"","type":"uint256"}],"stateMutability":"view","type":"function"},{"inputs":[{"internalType":"address","name":"","type":"address"}],"name":"totalProfits","outputs":[{"internalType":"uint256","name":"","type":"uint256"}],"stateMutability":"view","type":"function"},{"inputs":[{"internalType":"address","name":"token","type":"address"},{"internalType":"uint256","name":"amount","type":"uint256"}],"name":"withdraw","outputs":[],"stateMutability":"nonpayable","type":"function"},{"inputs":[{"internalType":"address","name":"token","type":"address"}],"name":"withdrawFees","outputs":[],"stateMutability":"nonpayable","type":"function"},{"stateMutability":"payable","type":"receive"}],"evm":{"bytecode":{"linkReferences":{},"object":"60803461008057601f61103838819003918201601f19168301916001600160401b038311848410176100855780849260209460405283398101031261008057516001600160a01b03811690819003610080576103e860075560018060a01b0319338160005416176000556001541617600155604051610f9c908161009c8239f35b600080fd5b634e487b7160e01b600052604160045260246000fdfe60406080815260049081361015610020575b5050361561001e57600080fd5b005b600090813560e01c8063164e68de14610d285780631c3c0ea814610cb0578063385dc3df14610c9457806347e7ef2414610adb5780634f129c5314610a9e5780635305548114610a6757806356b1e81214610a31578063587f5ed714610a135780636d69fcaf146109235780636ebdb8ee1461081557806370897b23146107a157806384db9e901461059f57806387788782146107835780638da5cb5b1461075c578063c34c08e514610734578063c6255626146106f3578063ce67be26146106d5578063cf309012146106b2578063d3d7c0021461061c578063db79cdf51461059f578063ec516c52146104215763f3fef3a31461011f5750610011565b3461041d578060031936011261041d57610137610dd7565b6024918235906009549361014e60ff861615610e94565b60ff19948516600117600955338652600260209081528287206001600160a01b0390951680885294815282872060038101805490919060ff16156103e757858154106103a5576001810154610e108101809111610393574210610351578893878a528a8452858a2054151580610341575b6102cc575b509882918a60026101da8961023c9d9e54610f59565b91828155016101ea878254610f23565b9055156102c0575b50868a5260038252848a20610208878254610f59565b90556102148487610f23565b855163a9059cbb60e01b81523392810192835260208301919091529889918291604090910190565b03818b895af19687156102b6577f91fb9d98b786c57d74c099ccd2beca1739e9f6a81fb49001ca465c4b7591bbe294959697610289575b5082519485528401523392a36009541660095580f35b6102a890823d84116102af575b6102a08183610ed3565b810190610f0b565b5038610273565b503d610296565b83513d8a823e3d90fd5b888154169055386101f2565b9093508983526102df86868b2054610f46565b878a5260038452858a205491821561033057509161023c999a918493049461032361031a6127106103126007548a610f46565b048098610f59565b96600854610f23565b600855919a9950916101c4565b634e487b7160e01b8b5260128c528afd5b5060038452858a205415156101bf565b845162461bcd60e51b8152808b018490526019818601527f5641554c543a204c6f636b20706572696f6420616374697665000000000000006044820152606490fd5b634e487b7160e01b8a5260118b52848afd5b845162461bcd60e51b8152808b01849052601b818601527f5641554c543a20496e73756666696369656e742062616c616e636500000000006044820152606490fd5b845162461bcd60e51b8152808b018490526011818601527015905553150e88139bc819195c1bdcda5d607a1b6044820152606490fd5b5080fd5b50823461059b578160031936011261059b5761043b610dd7565b6024359260018060a01b038092610456828854163314610e55565b16928151926370a0823160e01b845230828501526020938481602481895afa90811561059157908791899161055c575b501061052457600154835163a9059cbb60e01b815291166001600160a01b031691810191825260208201869052949190839086908190604001038189885af194851561051a577ff54cfb5e3c4f276a1a643032de428d083fbda0d61fa90223c8faf6ce5d88176794956104fd575b5051908152a280f35b61051390843d86116102af576102a08183610ed3565b50866104f4565b81513d88823e3d90fd5b5082606492519162461bcd60e51b8352820152601360248201527215905553150e88125b9cdd59999a58da595b9d606a1b6044820152fd5b809250868092503d831161058a575b6105758183610ed3565b810103126105865786905189610486565b8780fd5b503d61056b565b84513d8a823e3d90fd5b8280fd5b503461041d578060031936011261041d5780916105ba610dd7565b6105c2610df2565b6001600160a01b03918216835260026020818152858520929093168452908252929091208054600182015493820154600390920154945190815291820192909252604081019190915260ff90911615156060820152608090f35b503461041d576020928360031936011261059b57836001600160a01b03610641610dd7565b169160248451809481936370a0823160e01b835230908301525afa9283156106a7578093610672575b505051908152f35b909192508382813d83116106a0575b61068b8183610ed3565b8101031261069d57505190388061066a565b80fd5b503d610681565b8251903d90823e3d90fd5b503461041d578160031936011261041d5760209060ff6009541690519015158152f35b503461041d578160031936011261041d576020906005549051908152f35b50823461059b57602036600319011261059b57359160055483101561069d575061071e602092610e08565b905491519160018060a01b039160031b1c168152f35b503461041d578160031936011261041d5760015490516001600160a01b039091168152602090f35b503461041d578160031936011261041d57905490516001600160a01b039091168152602090f35b503461041d578160031936011261041d576020906007549051908152f35b50823461059b57602036600319011261059b578035916107cb60018060a01b038554163314610e55565b610bb883116107dc57505060075580f35b906020606492519162461bcd60e51b835282015260136024820152720ac82aa98a874408ccaca40e8dede40d0d2ced606b1b6044820152fd5b50823461059b578160031936011261059b5761089191610833610dd7565b916024359060208260018060a01b038096610852828b54163314610e55565b60015487516323b872dd60e01b815298166001600160a01b03168589019081523060208201526040810193909352969796169587918291606090910190565b038189885af1948515610919577f6d3df9844b6224b91ec53a46da9db0ba7e5fa27ee2d61416dceaff91331bff2b94956108fb575b508486526020528185206108db828254610f23565b90556127106108ec60075483610f46565b0482519182526020820152a280f35b6109129060203d81116102af576102a08183610ed3565b50866108c6565b83513d88823e3d90fd5b50823461059b57602036600319011261059b5761093e610dd7565b83546001600160a01b039182916109589083163314610e55565b1691828552600660205260ff84862054166109d05760055490680100000000000000008210156109bd57508060016109939201600555610e08565b819291549060031b9184831b921b1916179055825260066020528120600160ff1982541617905580f35b634e487b7160e01b865260419052602485fd5b606490602085519162461bcd60e51b8352820152601860248201527f5641554c543a20416c726561647920737570706f7274656400000000000000006044820152fd5b503461041d578160031936011261041d576020906008549051908152f35b50823461059b57602036600319011261059b5760209282916001600160a01b03610a59610dd7565b168252845220549051908152f35b503461041d57602036600319011261041d5760209181906001600160a01b03610a8e610dd7565b1681526003845220549051908152f35b503461041d57602036600319011261041d5760209160ff9082906001600160a01b03610ac8610dd7565b1681526006855220541690519015158152f35b5082903461059b578060031936011261059b57610af6610dd7565b6009549260243591610b0b60ff861615610e94565b600160ff198096161760095560018060a01b0316928386526020916006835260ff828820541615610c53578315610c1d5781516323b872dd60e01b815233918101918252306020830152604082018590529083908290819060600103818a895af18015610c1357907f8752a472e571a816aea92eec8dae9baf628e840f4929fbcc2d155e6233ff68a7939291610bf6575b503387526002825280872085885282526003818820610bbc868254610f23565b81554260018201550160018782541617905584875260038252808720610be3858254610f23565b9055519283523392a36009541660095580f35b610c0c90833d85116102af576102a08183610ed3565b5087610b9c565b82513d89823e3d90fd5b82606492519162461bcd60e51b8352820152601260248201527115905553150e8816995c9bc8185b5bdd5b9d60721b6044820152fd5b82606492519162461bcd60e51b8352820152601a60248201527f5641554c543a20546f6b656e206e6f7420737570706f727465640000000000006044820152fd5b503461041d578160031936011261041d5760209051610e108152f35b503461041d57602036600319011261041d57610cca610dd7565b907f0ef3c7eb9dbcf33ddf032f4cce366a07eda85eed03e3172e4a90c4cc16d5788660018060a01b0391610d02838654163314610e55565b6001549281519481851686521693846020820152a16001600160a01b0319161760015580f35b5082903461059b57602036600319011261059b576020610d9e92610d4a610dd7565b85546001600160a01b03908116908790610d65338414610e55565b6008805490839055875163a9059cbb60e01b81526001600160a01b03909416958401958652602086015291968794859391849160400190565b0393165af1908115610dce5750610db3575080f35b610dca9060203d81116102af576102a08183610ed3565b5080f35b513d84823e3d90fd5b600435906001600160a01b0382168203610ded57565b600080fd5b602435906001600160a01b0382168203610ded57565b600554811015610e3f5760056000527f036b6384b5eca791c62761152d0c79bb0604c104a5fb6f4eb0703f3154bb3db00190600090565b634e487b7160e01b600052603260045260246000fd5b15610e5c57565b60405162461bcd60e51b815260206004820152601060248201526f2b20aaa62a1d102737ba1037bbb732b960811b6044820152606490fd5b15610e9b57565b60405162461bcd60e51b815260206004820152601060248201526f15905553150e881499595b9d1c985b9d60821b6044820152606490fd5b90601f8019910116810190811067ffffffffffffffff821117610ef557604052565b634e487b7160e01b600052604160045260246000fd5b90816020910312610ded57518015158103610ded5790565b91908201809211610f3057565b634e487b7160e01b600052601160045260246000fd5b81810292918115918404141715610f3057565b91908203918211610f305756fea26469706673582212207a51c4bf4d94848f44b12f8850a14492e3b50c4f93c6532c61b079a2a4ae576464736f6c63430008130033","opcodes":"PUSH1 0x80 CALLVALUE PUSH2 0x80 JUMPI PUSH1 0x1F PUSH2 0x1038 CODESIZE DUP2 SWAP1 SUB SWAP2 DUP3 ADD PUSH1 0x1F NOT AND DUP4 ADD SWAP2 PUSH1 0x1 PUSH1 0x1 PUSH1 0x40 SHL SUB DUP4 GT DUP5 DUP5 LT OR PUSH2 0x85 JUMPI DUP1 DUP5 SWAP3 PUSH1 0x20 SWAP5 PUSH1 0x40 MSTORE DUP4 CODECOPY DUP2 ADD SUB SLT PUSH2 0x80 JUMPI MLOAD PUSH1 0x1 PUSH1 0x1 PUSH1 0xA0 SHL SUB DUP2 AND SWAP1 DUP2 SWAP1 SUB PUSH2 0x80 JUMPI PUSH2 0x3E8 PUSH1 0x7 SSTORE PUSH1 0x1 DUP1 PUSH1 0xA0 SHL SUB NOT CALLER DUP2 PUSH1 0x0 SLOAD AND OR PUSH1 0x0 SSTORE PUSH1 0x1 SLOAD AND OR PUSH1 0x1 SSTORE PUSH1 0x40 MLOAD PUSH2 0xF9C SWAP1 DUP2 PUSH2 0x9C DUP3 CODECOPY RETURN JUMPDEST PUSH1 0x0 DUP1 REVERT JUMPDEST PUSH4 0x4E487B71 PUSH1 0xE0 SHL PUSH1 0x0 MSTORE PUSH1 0x41 PUSH1 0x4 MSTORE PUSH1 0x24 PUSH1 0x0 REVERT INVALID PUSH1 0x40 PUSH1 0x80 DUP2 MSTORE PUSH1 0x4 SWAP1 DUP2 CALLDATASIZE LT ISZERO PUSH2 0x20 JUMPI JUMPDEST POP POP CALLDATASIZE ISZERO PUSH2 0x1E JUMPI PUSH1 0x0 DUP1 REVERT JUMPDEST STOP JUMPDEST PUSH1 0x0 SWAP1 DUP2 CALLDATALOAD PUSH1 0xE0 SHR DUP1 PUSH4 0x164E68DE EQ PUSH2 0xD28 JUMPI DUP1 PUSH4 0x1C3C0EA8 EQ PUSH2 0xCB0 JUMPI DUP1 PUSH4 0x385DC3DF EQ PUSH2 0xC94 JUMPI DUP1 PUSH4 0x47E7EF24 EQ PUSH2 0xADB JUMPI DUP1 PUSH4 0x4F129C53 EQ PUSH2 0xA9E JUMPI DUP1 PUSH4 0x53055481 EQ PUSH2 0xA67 JUMPI DUP1 PUSH4 0x56B1E812 EQ PUSH2 0xA31 JUMPI DUP1 PUSH4 0x587F5ED7 EQ PUSH2 0xA13 JUMPI DUP1 PUSH4 0x6D69FCAF EQ PUSH2 0x923 JUMPI DUP1 PUSH4 0x6EBDB8EE EQ PUSH2 0x815 JUMPI DUP1 PUSH4 0x70897B23 EQ PUSH2 0x7A1 JUMPI DUP1 PUSH4 0x84DB9E90 EQ PUSH2 0x59F JUMPI DUP1 PUSH4 0x87788782 EQ PUSH2 0x783 JUMPI DUP1 PUSH4 0x8DA5CB5B EQ PUSH2 0x75C JUMPI DUP1 PUSH4 0xC34C08E5 EQ PUSH2 0x734 JUMPI DUP1 PUSH4 0xC6255626 EQ PUSH2 0x6F3 JUMPI DUP1 PUSH4 0xCE67BE26 EQ PUSH2 0x6D5 JUMPI DUP1 PUSH4 0xCF309012 EQ PUSH2 0x6B2 JUMPI DUP1 PUSH4 0xD3D7C002 EQ PUSH2 0x61C JUMPI DUP1 PUSH4 0xDB79CDF5 EQ PUSH2 0x59F JUMPI DUP1 PUSH4 0xEC516C52 EQ PUSH2 0x421 JUMPI PUSH4 0xF3FEF3A3 EQ PUSH2 0x11F JUMPI POP PUSH2 0x11 JUMP JUMPDEST CALLVALUE PUSH2 0x41D JUMPI DUP1 PUSH1 0x3 NOT CALLDATASIZE ADD SLT PUSH2 0x41D JUMPI PUSH2 0x137 PUSH2 0xDD7 JUMP JUMPDEST PUSH1 0x24 SWAP2 DUP3 CALLDATALOAD SWAP1 PUSH1 0x9 SLOAD SWAP4 PUSH2 0x14E PUSH1 0xFF DUP7 AND ISZERO PUSH2 0xE94 JUMP JUMPDEST PUSH1 0xFF NOT SWAP5 DUP6 AND PUSH1 0x1 OR PUSH1 0x9 SSTORE CALLER DUP7 MSTORE PUSH1 0x2 PUSH1 0x20 SWAP1 DUP2 MSTORE DUP3 DUP8 KECCAK256 PUSH1 0x1 PUSH1 0x1 PUSH1 0xA0 SHL SUB SWAP1 SWAP6 AND DUP1 DUP9 MSTORE SWAP5 DUP2 MSTORE DUP3 DUP8 KECCAK256 PUSH1 0x3 DUP2 ADD DUP1 SLOAD SWAP1 SWAP2 SWAP1 PUSH1 0xFF AND ISZERO PUSH2 0x3E7 JUMPI DUP6 DUP2 SLOAD LT PUSH2 0x3A5 JUMPI PUSH1 0x1 DUP2 ADD SLOAD PUSH2 0xE10 DUP2 ADD DUP1 SWAP2 GT PUSH2 0x393 JUMPI TIMESTAMP LT PUSH2 0x351 JUMPI DUP9 SWAP4 DUP8 DUP11 MSTORE DUP11 DUP5 MSTORE DUP6 DUP11 KECCAK256 SLOAD ISZERO ISZERO DUP1 PUSH2 0x341 JUMPI JUMPDEST PUSH2 0x2CC JUMPI JUMPDEST POP SWAP9 DUP3 SWAP2 DUP11 PUSH1 0x2 PUSH2 0x1DA DUP10 PUSH2 0x23C SWAP14 SWAP15 SLOAD PUSH2 0xF59 JUMP JUMPDEST SWAP2 DUP3 DUP2 SSTORE ADD PUSH2 0x1EA DUP8 DUP3 SLOAD PUSH2 0xF23 JUMP JUMPDEST SWAP1 SSTORE ISZERO PUSH2 0x2C0 JUMPI JUMPDEST POP DUP7 DUP11 MSTORE PUSH1 0x3 DUP3 MSTORE DUP5 DUP11 KECCAK256 PUSH2 0x208 DUP8 DUP3 SLOAD PUSH2 0xF59 JUMP JUMPDEST SWAP1 SSTORE PUSH2 0x214 DUP5 DUP8 PUSH2 0xF23 JUMP JUMPDEST DUP6 MLOAD PUSH4 0xA9059CBB PUSH1 0xE0 SHL DUP2 MSTORE CALLER SWAP3 DUP2 ADD SWAP3 DUP4 MSTORE PUSH1 0x20 DUP4 ADD SWAP2 SWAP1 SWAP2 MSTORE SWAP9 DUP10 SWAP2 DUP3 SWAP2 PUSH1 0x40 SWAP1 SWAP2 ADD SWAP1 JUMP JUMPDEST SUB DUP2 DUP12 DUP10 GAS CALL SWAP7 DUP8 ISZERO PUSH2 0x2B6 JUMPI PUSH32 0x91FB9D98B786C57D74C099CCD2BECA1739E9F6A81FB49001CA465C4B7591BBE2 SWAP5 SWAP6 SWAP7 SWAP8 PUSH2 0x289 JUMPI JUMPDEST POP DUP3 MLOAD SWAP5 DUP6 MSTORE DUP5 ADD MSTORE CALLER SWAP3 LOG3 PUSH1 0x9 SLOAD AND PUSH1 0x9 SSTORE DUP1 RETURN JUMPDEST PUSH2 0x2A8 SWAP1 DUP3 RETURNDATASIZE DUP5 GT PUSH2 0x2AF JUMPI JUMPDEST PUSH2 0x2A0 DUP2 DUP4 PUSH2 0xED3 JUMP JUMPDEST DUP2 ADD SWAP1 PUSH2 0xF0B JUMP JUMPDEST POP CODESIZE PUSH2 0x273 JUMP JUMPDEST POP RETURNDATASIZE PUSH2 0x296 JUMP JUMPDEST DUP4 MLOAD RETURNDATASIZE DUP11 DUP3 RETURNDATACOPY RETURNDATASIZE SWAP1 REVERT JUMPDEST DUP9 DUP2 SLOAD AND SWAP1 SSTORE CODESIZE PUSH2 0x1F2 JUMP JUMPDEST SWAP1 SWAP4 POP DUP10 DUP4 MSTORE PUSH2 0x2DF DUP7 DUP7 DUP12 KECCAK256 SLOAD PUSH2 0xF46 JUMP JUMPDEST DUP8 DUP11 MSTORE PUSH1 0x3 DUP5 MSTORE DUP6 DUP11 KECCAK256 SLOAD SWAP2 DUP3 ISZERO PUSH2 0x330 JUMPI POP SWAP2 PUSH2 0x23C SWAP10 SWAP11 SWAP2 DUP5 SWAP4 DIV SWAP5 PUSH2 0x323 PUSH2 0x31A PUSH2 0x2710 PUSH2 0x312 PUSH1 0x7 SLOAD DUP11 PUSH2 0xF46 JUMP JUMPDEST DIV DUP1 SWAP9 PUSH2 0xF59 JUMP JUMPDEST SWAP7 PUSH1 0x8 SLOAD PUSH2 0xF23 JUMP JUMPDEST PUSH1 0x8 SSTORE SWAP2 SWAP11 SWAP10 POP SWAP2 PUSH2 0x1C4 JUMP JUMPDEST PUSH4 0x4E487B71 PUSH1 0xE0 SHL DUP12 MSTORE PUSH1 0x12 DUP13 MSTORE DUP11 REVERT JUMPDEST POP PUSH1 0x3 DUP5 MSTORE DUP6 DUP11 KECCAK256 SLOAD ISZERO ISZERO PUSH2 0x1BF JUMP JUMPDEST DUP5 MLOAD PUSH3 0x461BCD PUSH1 0xE5 SHL DUP2 MSTORE DUP1 DUP12 ADD DUP5 SWAP1 MSTORE PUSH1 0x19 DUP2 DUP7 ADD MSTORE PUSH32 0x5641554C543A204C6F636B20706572696F642061637469766500000000000000 PUSH1 0x44 DUP3 ADD MSTORE PUSH1 0x64 SWAP1 REVERT JUMPDEST PUSH4 0x4E487B71 PUSH1 0xE0 SHL DUP11 MSTORE PUSH1 0x11 DUP12 MSTORE DUP5 DUP11 REVERT JUMPDEST DUP5 MLOAD PUSH3 0x461BCD PUSH1 0xE5 SHL DUP2 MSTORE DUP1 DUP12 ADD DUP5 SWAP1 MSTORE PUSH1 0x1B DUP2 DUP7 ADD MSTORE PUSH32 0x5641554C543A20496E73756666696369656E742062616C616E63650000000000 PUSH1 0x44 DUP3 ADD MSTORE PUSH1 0x64 SWAP1 REVERT JUMPDEST DUP5 MLOAD PUSH3 0x461BCD PUSH1 0xE5 SHL DUP2 MSTORE DUP1 DUP12 ADD DUP5 SWAP1 MSTORE PUSH1 0x11 DUP2 DUP7 ADD MSTORE PUSH17 0x15905553150E88139BC819195C1BDCDA5D PUSH1 0x7A SHL PUSH1 0x44 DUP3 ADD MSTORE PUSH1 0x64 SWAP1 REVERT JUMPDEST POP DUP1 REVERT JUMPDEST POP DUP3 CALLVALUE PUSH2 0x59B JUMPI DUP2 PUSH1 0x3 NOT CALLDATASIZE ADD SLT PUSH2 0x59B JUMPI PUSH2 0x43B PUSH2 0xDD7 JUMP JUMPDEST PUSH1 0x24 CALLDATALOAD SWAP3 PUSH1 0x1 DUP1 PUSH1 0xA0 SHL SUB DUP1 SWAP3 PUSH2 0x456 DUP3 DUP9 SLOAD AND CALLER EQ PUSH2 0xE55 JUMP JUMPDEST AND SWAP3 DUP2 MLOAD SWAP3 PUSH4 0x70A08231 PUSH1 0xE0 SHL DUP5 MSTORE ADDRESS DUP3 DUP6 ADD MSTORE PUSH1 0x20 SWAP4 DUP5 DUP2 PUSH1 0x24 DUP2 DUP10 GAS STATICCALL SWAP1 DUP2 ISZERO PUSH2 0x591 JUMPI SWAP1 DUP8 SWAP2 DUP10 SWAP2 PUSH2 0x55C JUMPI JUMPDEST POP LT PUSH2 0x524 JUMPI PUSH1 0x1 SLOAD DUP4 MLOAD PUSH4 0xA9059CBB PUSH1 0xE0 SHL DUP2 MSTORE SWAP2 AND PUSH1 0x1 PUSH1 0x1 PUSH1 0xA0 SHL SUB AND SWAP2 DUP2 ADD SWAP2 DUP3 MSTORE PUSH1 0x20 DUP3 ADD DUP7 SWAP1 MSTORE SWAP5 SWAP2 SWAP1 DUP4 SWAP1 DUP7 SWAP1 DUP2 SWAP1 PUSH1 0x40 ADD SUB DUP2 DUP10 DUP9 GAS CALL SWAP5 DUP6 ISZERO PUSH2 0x51A JUMPI PUSH32 0xF54CFB5E3C4F276A1A643032DE428D083FBDA0D61FA90223C8FAF6CE5D881767 SWAP5 SWAP6 PUSH2 0x4FD JUMPI JUMPDEST POP MLOAD SWAP1 DUP2 MSTORE LOG2 DUP1 RETURN JUMPDEST PUSH2 0x513 SWAP1 DUP5 RETURNDATASIZE DUP7 GT PUSH2 0x2AF JUMPI PUSH2 0x2A0 DUP2 DUP4 PUSH2 0xED3 JUMP JUMPDEST POP DUP7 PUSH2 0x4F4 JUMP JUMPDEST DUP2 MLOAD RETURNDATASIZE DUP9 DUP3 RETURNDATACOPY RETURNDATASIZE SWAP1 REVERT JUMPDEST POP DUP3 PUSH1 0x64 SWAP3 MLOAD SWAP2 PUSH3 0x461BCD PUSH1 0xE5 SHL DUP4 MSTORE DUP3 ADD MSTORE PUSH1 0x13 PUSH1 0x24 DUP3 ADD MSTORE PUSH19 0x15905553150E88125B9CDD59999A58DA595B9D PUSH1 0x6A SHL PUSH1 0x44 DUP3 ADD MSTORE REVERT JUMPDEST DUP1 SWAP3 POP DUP7 DUP1 SWAP3 POP RETURNDATASIZE DUP4 GT PUSH2 0x58A JUMPI JUMPDEST PUSH2 0x575 DUP2 DUP4 PUSH2 0xED3 JUMP JUMPDEST DUP2 ADD SUB SLT PUSH2 0x586 JUMPI DUP7 SWAP1 MLOAD DUP10 PUSH2 0x486 JUMP JUMPDEST DUP8 DUP1 REVERT JUMPDEST POP RETURNDATASIZE PUSH2 0x56B JUMP JUMPDEST DUP5 MLOAD RETURNDATASIZE DUP11 DUP3 RETURNDATACOPY RETURNDATASIZE SWAP1 REVERT JUMPDEST DUP3 DUP1 REVERT JUMPDEST POP CALLVALUE PUSH2 0x41D JUMPI DUP1 PUSH1 0x3 NOT CALLDATASIZE ADD SLT PUSH2 0x41D JUMPI DUP1 SWAP2 PUSH2 0x5BA PUSH2 0xDD7 JUMP JUMPDEST PUSH2 0x5C2 PUSH2 0xDF2 JUMP JUMPDEST PUSH1 0x1 PUSH1 0x1 PUSH1 0xA0 SHL SUB SWAP2 DUP3 AND DUP4 MSTORE PUSH1 0x2 PUSH1 0x20 DUP2 DUP2 MSTORE DUP6 DUP6 KECCAK256 SWAP3 SWAP1 SWAP4 AND DUP5 MSTORE SWAP1 DUP3 MSTORE SWAP3 SWAP1 SWAP2 KECCAK256 DUP1 SLOAD PUSH1 0x1 DUP3 ADD SLOAD SWAP4 DUP3 ADD SLOAD PUSH1 0x3 SWAP1 SWAP3 ADD SLOAD SWAP5 MLOAD SWAP1 DUP2 MSTORE SWAP2 DUP3 ADD SWAP3 SWAP1 SWAP3 MSTORE PUSH1 0x40 DUP2 ADD SWAP2 SWAP1 SWAP2 MSTORE PUSH1 0xFF SWAP1 SWAP2 AND ISZERO ISZERO PUSH1 0x60 DUP3 ADD MSTORE PUSH1 0x80 SWAP1 RETURN JUMPDEST POP CALLVALUE PUSH2 0x41D JUMPI PUSH1 0x20 SWAP3 DUP4 PUSH1 0x3 NOT CALLDATASIZE ADD SLT PUSH2 0x59B JUMPI DUP4 PUSH1 0x1 PUSH1 0x1 PUSH1 0xA0 SHL SUB PUSH2 0x641 PUSH2 0xDD7 JUMP JUMPDEST AND SWAP2 PUSH1 0x24 DUP5 MLOAD DUP1 SWAP5 DUP2 SWAP4 PUSH4 0x70A08231 PUSH1 0xE0 SHL DUP4 MSTORE ADDRESS SWAP1 DUP4 ADD MSTORE GAS STATICCALL SWAP3 DUP4 ISZERO PUSH2 0x6A7 JUMPI DUP1 SWAP4 PUSH2 0x672 JUMPI JUMPDEST POP POP MLOAD SWAP1 DUP2 MSTORE RETURN JUMPDEST SWAP1 SWAP2 SWAP3 POP DUP4 DUP3 DUP2 RETURNDATASIZE DUP4 GT PUSH2 0x6A0 JUMPI JUMPDEST PUSH2 0x68B DUP2 DUP4 PUSH2 0xED3 JUMP JUMPDEST DUP2 ADD SUB SLT PUSH2 0x69D JUMPI POP MLOAD SWAP1 CODESIZE DUP1 PUSH2 0x66A JUMP JUMPDEST DUP1 REVERT JUMPDEST POP RETURNDATASIZE PUSH2 0x681 JUMP JUMPDEST DUP3 MLOAD SWAP1 RETURNDATASIZE SWAP1 DUP3 RETURNDATACOPY RETURNDATASIZE SWAP1 REVERT JUMPDEST POP CALLVALUE PUSH2 0x41D JUMPI DUP2 PUSH1 0x3 NOT CALLDATASIZE ADD SLT PUSH2 0x41D JUMPI PUSH1 0x20 SWAP1 PUSH1 0xFF PUSH1 0x9 SLOAD AND SWAP1 MLOAD SWAP1 ISZERO ISZERO DUP2 MSTORE RETURN JUMPDEST POP CALLVALUE PUSH2 0x41D JUMPI DUP2 PUSH1 0x3 NOT CALLDATASIZE ADD SLT PUSH2 0x41D JUMPI PUSH1 0x20 SWAP1 PUSH1 0x5 SLOAD SWAP1 MLOAD SWAP1 DUP2 MSTORE RETURN JUMPDEST POP DUP3 CALLVALUE PUSH2 0x59B JUMPI PUSH1 0x20 CALLDATASIZE PUSH1 0x3 NOT ADD SLT PUSH2 0x59B JUMPI CALLDATALOAD SWAP2 PUSH1 0x5 SLOAD DUP4 LT ISZERO PUSH2 0x69D JUMPI POP PUSH2 0x71E PUSH1 0x20 SWAP3 PUSH2 0xE08 JUMP JUMPDEST SWAP1 SLOAD SWAP2 MLOAD SWAP2 PUSH1 0x1 DUP1 PUSH1 0xA0 SHL SUB SWAP2 PUSH1 0x3 SHL SHR AND DUP2 MSTORE RETURN JUMPDEST POP CALLVALUE PUSH2 0x41D JUMPI DUP2 PUSH1 0x3 NOT CALLDATASIZE ADD SLT PUSH2 0x41D JUMPI PUSH1 0x1 SLOAD SWAP1 MLOAD PUSH1 0x1 PUSH1 0x1 PUSH1 0xA0 SHL SUB SWAP1 SWAP2 AND DUP2 MSTORE PUSH1 0x20 SWAP1 RETURN JUMPDEST POP CALLVALUE PUSH2 0x41D JUMPI DUP2 PUSH1 0x3 NOT CALLDATASIZE ADD SLT PUSH2 0x41D JUMPI SWAP1 SLOAD SWAP1 MLOAD PUSH1 0x1 PUSH1 0x1 PUSH1 0xA0 SHL SUB SWAP1 SWAP2 AND DUP2 MSTORE PUSH1 0x20 SWAP1 RETURN JUMPDEST POP CALLVALUE PUSH2 0x41D JUMPI DUP2 PUSH1 0x3 NOT CALLDATASIZE ADD SLT PUSH2 0x41D JUMPI PUSH1 0x20 SWAP1 PUSH1 0x7 SLOAD SWAP1 MLOAD SWAP1 DUP2 MSTORE RETURN JUMPDEST POP DUP3 CALLVALUE PUSH2 0x59B JUMPI PUSH1 0x20 CALLDATASIZE PUSH1 0x3 NOT ADD SLT PUSH2 0x59B JUMPI DUP1 CALLDATALOAD SWAP2 PUSH2 0x7CB PUSH1 0x1 DUP1 PUSH1 0xA0 SHL SUB DUP6 SLOAD AND CALLER EQ PUSH2 0xE55 JUMP JUMPDEST PUSH2 0xBB8 DUP4 GT PUSH2 0x7DC JUMPI POP POP PUSH1 0x7 SSTORE DUP1 RETURN JUMPDEST SWAP1 PUSH1 0x20 PUSH1 0x64 SWAP3 MLOAD SWAP2 PUSH3 0x461BCD PUSH1 0xE5 SHL DUP4 MSTORE DUP3 ADD MSTORE PUSH1 0x13 PUSH1 0x24 DUP3 ADD MSTORE PUSH19 0xAC82AA98A874408CCACA40E8DEDE40D0D2CED PUSH1 0x6B SHL PUSH1 0x44 DUP3 ADD MSTORE REVERT JUMPDEST POP DUP3 CALLVALUE PUSH2 0x59B JUMPI DUP2 PUSH1 0x3 NOT CALLDATASIZE ADD SLT PUSH2 0x59B JUMPI PUSH2 0x891 SWAP2 PUSH2 0x833 PUSH2 0xDD7 JUMP JUMPDEST SWAP2 PUSH1 0x24 CALLDATALOAD SWAP1 PUSH1 0x20 DUP3 PUSH1 0x1 DUP1 PUSH1 0xA0 SHL SUB DUP1 SWAP7 PUSH2 0x852 DUP3 DUP12 SLOAD AND CALLER EQ PUSH2 0xE55 JUMP JUMPDEST PUSH1 0x1 SLOAD DUP8 MLOAD PUSH4 0x23B872DD PUSH1 0xE0 SHL DUP2 MSTORE SWAP9 AND PUSH1 0x1 PUSH1 0x1 PUSH1 0xA0 SHL SUB AND DUP6 DUP10 ADD SWAP1 DUP2 MSTORE ADDRESS PUSH1 0x20 DUP3 ADD MSTORE PUSH1 0x40 DUP2 ADD SWAP4 SWAP1 SWAP4 MSTORE SWAP7 SWAP8 SWAP7 AND SWAP6 DUP8 SWAP2 DUP3 SWAP2 PUSH1 0x60 SWAP1 SWAP2 ADD SWAP1 JUMP JUMPDEST SUB DUP2 DUP10 DUP9 GAS CALL SWAP5 DUP6 ISZERO PUSH2 0x919 JUMPI PUSH32 0x6D3DF9844B6224B91EC53A46DA9DB0BA7E5FA27EE2D61416DCEAFF91331BFF2B SWAP5 SWAP6 PUSH2 0x8FB JUMPI JUMPDEST POP DUP5 DUP7 MSTORE PUSH1 0x20 MSTORE DUP2 DUP6 KECCAK256 PUSH2 0x8DB DUP3 DUP3 SLOAD PUSH2 0xF23 JUMP JUMPDEST SWAP1 SSTORE PUSH2 0x2710 PUSH2 0x8EC PUSH1 0x7 SLOAD DUP4 PUSH2 0xF46 JUMP JUMPDEST DIV DUP3 MLOAD SWAP2 DUP3 MSTORE PUSH1 0x20 DUP3 ADD MSTORE LOG2 DUP1 RETURN JUMPDEST PUSH2 0x912 SWAP1 PUSH1 0x20 RETURNDATASIZE DUP2 GT PUSH2 0x2AF JUMPI PUSH2 0x2A0 DUP2 DUP4 PUSH2 0xED3 JUMP JUMPDEST POP DUP7 PUSH2 0x8C6 JUMP JUMPDEST DUP4 MLOAD RETURNDATASIZE DUP9 DUP3 RETURNDATACOPY RETURNDATASIZE SWAP1 REVERT JUMPDEST POP DUP3 CALLVALUE PUSH2 0x59B JUMPI PUSH1 0x20 CALLDATASIZE PUSH1 0x3 NOT ADD SLT PUSH2 0x59B JUMPI PUSH2 0x93E PUSH2 0xDD7 JUMP JUMPDEST DUP4 SLOAD PUSH1 0x1 PUSH1 0x1 PUSH1 0xA0 SHL SUB SWAP2 DUP3 SWAP2 PUSH2 0x958 SWAP1 DUP4 AND CALLER EQ PUSH2 0xE55 JUMP JUMPDEST AND SWAP2 DUP3 DUP6 MSTORE PUSH1 0x6 PUSH1 0x20 MSTORE PUSH1 0xFF DUP5 DUP7 KECCAK256 SLOAD AND PUSH2 0x9D0 JUMPI PUSH1 0x5 SLOAD SWAP1 PUSH9 0x10000000000000000 DUP3 LT ISZERO PUSH2 0x9BD JUMPI POP DUP1 PUSH1 0x1 PUSH2 0x993 SWAP3 ADD PUSH1 0x5 SSTORE PUSH2 0xE08 JUMP JUMPDEST DUP2 SWAP3 SWAP2 SLOAD SWAP1 PUSH1 0x3 SHL SWAP2 DUP5 DUP4 SHL SWAP3 SHL NOT AND OR SWAP1 SSTORE DUP3 MSTORE PUSH1 0x6 PUSH1 0x20 MSTORE DUP2 KECCAK256 PUSH1 0x1 PUSH1 0xFF NOT DUP3 SLOAD AND OR SWAP1 SSTORE DUP1 RETURN JUMPDEST PUSH4 0x4E487B71 PUSH1 0xE0 SHL DUP7 MSTORE PUSH1 0x41 SWAP1 MSTORE PUSH1 0x24 DUP6 REVERT JUMPDEST PUSH1 0x64 SWAP1 PUSH1 0x20 DUP6 MLOAD SWAP2 PUSH3 0x461BCD PUSH1 0xE5 SHL DUP4 MSTORE DUP3 ADD MSTORE PUSH1 0x18 PUSH1 0x24 DUP3 ADD MSTORE PUSH32 0x5641554C543A20416C726561647920737570706F727465640000000000000000 PUSH1 0x44 DUP3 ADD MSTORE REVERT JUMPDEST POP CALLVALUE PUSH2 0x41D JUMPI DUP2 PUSH1 0x3 NOT CALLDATASIZE ADD SLT PUSH2 0x41D JUMPI PUSH1 0x20 SWAP1 PUSH1 0x8 SLOAD SWAP1 MLOAD SWAP1 DUP2 MSTORE RETURN JUMPDEST POP DUP3 CALLVALUE PUSH2 0x59B JUMPI PUSH1 0x20 CALLDATASIZE PUSH1 0x3 NOT ADD SLT PUSH2 0x59B JUMPI PUSH1 0x20 SWAP3 DUP3 SWAP2 PUSH1 0x1 PUSH1 0x1 PUSH1 0xA0 SHL SUB PUSH2 0xA59 PUSH2 0xDD7 JUMP JUMPDEST AND DUP3 MSTORE DUP5 MSTORE KECCAK256 SLOAD SWAP1 MLOAD SWAP1 DUP2 MSTORE RETURN JUMPDEST POP CALLVALUE PUSH2 0x41D JUMPI PUSH1 0x20 CALLDATASIZE PUSH1 0x3 NOT ADD SLT PUSH2 0x41D JUMPI PUSH1 0x20 SWAP2 DUP2 SWAP1 PUSH1 0x1 PUSH1 0x1 PUSH1 0xA0 SHL SUB PUSH2 0xA8E PUSH2 0xDD7 JUMP JUMPDEST AND DUP2 MSTORE PUSH1 0x3 DUP5 MSTORE KECCAK256 SLOAD SWAP1 MLOAD SWAP1 DUP2 MSTORE RETURN JUMPDEST POP CALLVALUE PUSH2 0x41D JUMPI PUSH1 0x20 CALLDATASIZE PUSH1 0x3 NOT ADD SLT PUSH2 0x41D JUMPI PUSH1 0x20 SWAP2 PUSH1 0xFF SWAP1 DUP3 SWAP1 PUSH1 0x1 PUSH1 0x1 PUSH1 0xA0 SHL SUB PUSH2 0xAC8 PUSH2 0xDD7 JUMP JUMPDEST AND DUP2 MSTORE PUSH1 0x6 DUP6 MSTORE KECCAK256 SLOAD AND SWAP1 MLOAD SWAP1 ISZERO ISZERO DUP2 MSTORE RETURN JUMPDEST POP DUP3 SWAP1 CALLVALUE PUSH2 0x59B JUMPI DUP1 PUSH1 0x3 NOT CALLDATASIZE ADD SLT PUSH2 0x59B JUMPI PUSH2 0xAF6 PUSH2 0xDD7 JUMP JUMPDEST PUSH1 0x9 SLOAD SWAP3 PUSH1 0x24 CALLDATALOAD SWAP2 PUSH2 0xB0B PUSH1 0xFF DUP7 AND ISZERO PUSH2 0xE94 JUMP JUMPDEST PUSH1 0x1 PUSH1 0xFF NOT DUP1 SWAP7 AND OR PUSH1 0x9 SSTORE PUSH1 0x1 DUP1 PUSH1 0xA0 SHL SUB AND SWAP3 DUP4 DUP7 MSTORE PUSH1 0x20 SWAP2 PUSH1 0x6 DUP4 MSTORE PUSH1 0xFF DUP3 DUP9 KECCAK256 SLOAD AND ISZERO PUSH2 0xC53 JUMPI DUP4 ISZERO PUSH2 0xC1D JUMPI DUP2 MLOAD PUSH4 0x23B872DD PUSH1 0xE0 SHL DUP2 MSTORE CALLER SWAP2 DUP2 ADD SWAP2 DUP3 MSTORE ADDRESS PUSH1 0x20 DUP4 ADD MSTORE PUSH1 0x40 DUP3 ADD DUP6 SWAP1 MSTORE SWAP1 DUP4 SWAP1 DUP3 SWAP1 DUP2 SWAP1 PUSH1 0x60 ADD SUB DUP2 DUP11 DUP10 GAS CALL DUP1 ISZERO PUSH2 0xC13 JUMPI SWAP1 PUSH32 0x8752A472E571A816AEA92EEC8DAE9BAF628E840F4929FBCC2D155E6233FF68A7 SWAP4 SWAP3 SWAP2 PUSH2 0xBF6 JUMPI JUMPDEST POP CALLER DUP8 MSTORE PUSH1 0x2 DUP3 MSTORE DUP1 DUP8 KECCAK256 DUP6 DUP9 MSTORE DUP3 MSTORE PUSH1 0x3 DUP2 DUP9 KECCAK256 PUSH2 0xBBC DUP7 DUP3 SLOAD PUSH2 0xF23 JUMP JUMPDEST DUP2 SSTORE TIMESTAMP PUSH1 0x1 DUP3 ADD SSTORE ADD PUSH1 0x1 DUP8 DUP3 SLOAD AND OR SWAP1 SSTORE DUP5 DUP8 MSTORE PUSH1 0x3 DUP3 MSTORE DUP1 DUP8 KECCAK256 PUSH2 0xBE3 DUP6 DUP3 SLOAD PUSH2 0xF23 JUMP JUMPDEST SWAP1 SSTORE MLOAD SWAP3 DUP4 MSTORE CALLER SWAP3 LOG3 PUSH1 0x9 SLOAD AND PUSH1 0x9 SSTORE DUP1 RETURN JUMPDEST PUSH2 0xC0C SWAP1 DUP4 RETURNDATASIZE DUP6 GT PUSH2 0x2AF JUMPI PUSH2 0x2A0 DUP2 DUP4 PUSH2 0xED3 JUMP JUMPDEST POP DUP8 PUSH2 0xB9C JUMP JUMPDEST DUP3 MLOAD RETURNDATASIZE DUP10 DUP3 RETURNDATACOPY RETURNDATASIZE SWAP1 REVERT JUMPDEST DUP3 PUSH1 0x64 SWAP3 MLOAD SWAP2 PUSH3 0x461BCD PUSH1 0xE5 SHL DUP4 MSTORE DUP3 ADD MSTORE PUSH1 0x12 PUSH1 0x24 DUP3 ADD MSTORE PUSH18 0x15905553150E8816995C9BC8185B5BDD5B9D PUSH1 0x72 SHL PUSH1 0x44 DUP3 ADD MSTORE REVERT JUMPDEST DUP3 PUSH1 0x64 SWAP3 MLOAD SWAP2 PUSH3 0x461BCD PUSH1 0xE5 SHL DUP4 MSTORE DUP3 ADD MSTORE PUSH1 0x1A PUSH1 0x24 DUP3 ADD MSTORE PUSH32 0x5641554C543A20546F6B656E206E6F7420737570706F72746564000000000000 PUSH1 0x44 DUP3 ADD MSTORE REVERT JUMPDEST POP CALLVALUE PUSH2 0x41D JUMPI DUP2 PUSH1 0x3 NOT CALLDATASIZE ADD SLT PUSH2 0x41D JUMPI PUSH1 0x20 SWAP1 MLOAD PUSH2 0xE10 DUP2 MSTORE RETURN JUMPDEST POP CALLVALUE PUSH2 0x41D JUMPI PUSH1 0x20 CALLDATASIZE PUSH1 0x3 NOT ADD SLT PUSH2 0x41D JUMPI PUSH2 0xCCA PUSH2 0xDD7 JUMP JUMPDEST SWAP1 PUSH32 0xEF3C7EB9DBCF33DDF032F4CCE366A07EDA85EED03E3172E4A90C4CC16D57886 PUSH1 0x1 DUP1 PUSH1 0xA0 SHL SUB SWAP2 PUSH2 0xD02 DUP4 DUP7 SLOAD AND CALLER EQ PUSH2 0xE55 JUMP JUMPDEST PUSH1 0x1 SLOAD SWAP3 DUP2 MLOAD SWAP5 DUP2 DUP6 AND DUP7 MSTORE AND SWAP4 DUP5 PUSH1 0x20 DUP3 ADD MSTORE LOG1 PUSH1 0x1 PUSH1 0x1 PUSH1 0xA0 SHL SUB NOT AND OR PUSH1 0x1 SSTORE DUP1 RETURN JUMPDEST POP DUP3 SWAP1 CALLVALUE PUSH2 0x59B JUMPI PUSH1 0x20 CALLDATASIZE PUSH1 0x3 NOT ADD SLT PUSH2 0x59B JUMPI PUSH1 0x20 PUSH2 0xD9E SWAP3 PUSH2 0xD4A PUSH2 0xDD7 JUMP JUMPDEST DUP6 SLOAD PUSH1 0x1 PUSH1 0x1 PUSH1 0xA0 SHL SUB SWAP1 DUP2 AND SWAP1 DUP8 SWAP1 PUSH2 0xD65 CALLER DUP5 EQ PUSH2 0xE55 JUMP JUMPDEST PUSH1 0x8 DUP1 SLOAD SWAP1 DUP4 SWAP1 SSTORE DUP8 MLOAD PUSH4 0xA9059CBB PUSH1 0xE0 SHL DUP2 MSTORE PUSH1 0x1 PUSH1 0x1 PUSH1 0xA0 SHL SUB SWAP1 SWAP5 AND SWAP6 DUP5 ADD SWAP6 DUP7 MSTORE PUSH1 0x20 DUP7 ADD MSTORE SWAP2 SWAP7 DUP8 SWAP5 DUP6 SWAP4 SWAP2 DUP5 SWAP2 PUSH1 0x40 ADD SWAP1 JUMP JUMPDEST SUB SWAP4 AND GAS CALL SWAP1 DUP2 ISZERO PUSH2 0xDCE JUMPI POP PUSH2 0xDB3 JUMPI POP DUP1 RETURN JUMPDEST PUSH2 0xDCA SWAP1 PUSH1 0x20 RETURNDATASIZE DUP2 GT PUSH2 0x2AF JUMPI PUSH2 0x2A0 DUP2 DUP4 PUSH2 0xED3 JUMP JUMPDEST POP DUP1 RETURN JUMPDEST MLOAD RETURNDATASIZE DUP5 DUP3 RETURNDATACOPY RETURNDATASIZE SWAP1 REVERT JUMPDEST PUSH1 0x4 CALLDATALOAD SWAP1 PUSH1 0x1 PUSH1 0x1 PUSH1 0xA0 SHL SUB DUP3 AND DUP3 SUB PUSH2 0xDED JUMPI JUMP JUMPDEST PUSH1 0x0 DUP1 REVERT JUMPDEST PUSH1 0x24 CALLDATALOAD SWAP1 PUSH1 0x1 PUSH1 0x1 PUSH1 0xA0 SHL SUB DUP3 AND DUP3 SUB PUSH2 0xDED JUMPI JUMP JUMPDEST PUSH1 0x5 SLOAD DUP2 LT ISZERO PUSH2 0xE3F JUMPI PUSH1 0x5 PUSH1 0x0 MSTORE PUSH32 0x36B6384B5ECA791C62761152D0C79BB0604C104A5FB6F4EB0703F3154BB3DB0 ADD SWAP1 PUSH1 0x0 SWAP1 JUMP JUMPDEST PUSH4 0x4E487B71 PUSH1 0xE0 SHL PUSH1 0x0 MSTORE PUSH1 0x32 PUSH1 0x4 MSTORE PUSH1 0x24 PUSH1 0x0 REVERT JUMPDEST ISZERO PUSH2 0xE5C JUMPI JUMP JUMPDEST PUSH1 0x40 MLOAD PUSH3 0x461BCD PUSH1 0xE5 SHL DUP2 MSTORE PUSH1 0x20 PUSH1 0x4 DUP3 ADD MSTORE PUSH1 0x10 PUSH1 0x24 DUP3 ADD MSTORE PUSH16 0x2B20AAA62A1D102737BA1037BBB732B9 PUSH1 0x81 SHL PUSH1 0x44 DUP3 ADD MSTORE PUSH1 0x64 SWAP1 REVERT JUMPDEST ISZERO PUSH2 0xE9B JUMPI JUMP JUMPDEST PUSH1 0x40 MLOAD PUSH3 0x461BCD PUSH1 0xE5 SHL DUP2 MSTORE PUSH1 0x20 PUSH1 0x4 DUP3 ADD MSTORE PUSH1 0x10 PUSH1 0x24 DUP3 ADD MSTORE PUSH16 0x15905553150E881499595B9D1C985B9D PUSH1 0x82 SHL PUSH1 0x44 DUP3 ADD MSTORE PUSH1 0x64 SWAP1 REVERT JUMPDEST SWAP1 PUSH1 0x1F DUP1 NOT SWAP2 ADD AND DUP2 ADD SWAP1 DUP2 LT PUSH8 0xFFFFFFFFFFFFFFFF DUP3 GT OR PUSH2 0xEF5 JUMPI PUSH1 0x40 MSTORE JUMP JUMPDEST PUSH4 0x4E487B71 PUSH1 0xE0 SHL PUSH1 0x0 MSTORE PUSH1 0x41 PUSH1 0x4 MSTORE PUSH1 0x24 PUSH1 0x0 REVERT JUMPDEST SWAP1 DUP2 PUSH1 0x20 SWAP2 SUB SLT PUSH2 0xDED JUMPI MLOAD DUP1 ISZERO ISZERO DUP2 SUB PUSH2 0xDED JUMPI SWAP1 JUMP JUMPDEST SWAP2 SWAP1 DUP3 ADD DUP1 SWAP3 GT PUSH2 0xF30 JUMPI JUMP JUMPDEST PUSH4 0x4E487B71 PUSH1 0xE0 SHL PUSH1 0x0 MSTORE PUSH1 0x11 PUSH1 0x4 MSTORE PUSH1 0x24 PUSH1 0x0 REVERT JUMPDEST DUP2 DUP2 MUL SWAP3 SWAP2 DUP2 ISZERO SWAP2 DUP5 DIV EQ OR ISZERO PUSH2 0xF30 JUMPI JUMP JUMPDEST SWAP2 SWAP1 DUP3 SUB SWAP2 DUP3 GT PUSH2 0xF30 JUMPI JUMP INVALID LOG2 PUSH5 0x6970667358 0x22 SLT KECCAK256 PUSH27 0x51C4BF4D94848F44B12F8850A14492E3B50C4F93C6532C61B079A2 LOG4 0xAE JUMPI PUSH5 0x64736F6C63 NUMBER STOP ADDMOD SGT STOP CALLER "},"methodIdentifiers":{"MIN_LOCK_PERIOD()":"385dc3df","accumulatedFees()":"587f5ed7","addSupportedToken(address)":"6d69fcaf","collectProfits(address,uint256)":"6ebdb8ee","deposit(address,uint256)":"47e7ef24","depositors(address,address)":"db79cdf5","executor()":"c34c08e5","fundExecutor(address,uint256)":"ec516c52","getDepositorInfo(address,address)":"84db9e90","getSupportedTokenCount()":"ce67be26","getVaultBalance(address)":"d3d7c002","isSupported(address)":"4f129c53","locked()":"cf309012","owner()":"8da5cb5b","performanceFee()":"87788782","setExecutor(address)":"1c3c0ea8","setPerformanceFee(uint256)":"70897b23","supportedTokens(uint256)":"c6255626","totalDeposited(address)":"53055481","totalProfits(address)":"56b1e812","withdraw(address,uint256)":"f3fef3a3","withdrawFees(address)":"164e68de"}}}}}