{"contracts/ArbixPriceOracle.sol":{"ArbixPriceOracle":{"abi":[{"inputs":[],"stateMutability":"nonpayable","type":"constructor"},{"anonymous":false,"inputs":[{"indexed":true,"internalType":"address","name":"tokenA","type":"address"},{"indexed":true,"internalType":"address","name":"tokenB","type":"address"},{"indexed":false,"internalType":"uint256","name":"price","type":"uint256"},{"indexed":false,"internalType":"uint256","name":"median","type":"uint256"},{"indexed":false,"internalType":"uint256","name":"deviationBps","type":"uint256"}],"name":"AnomalyDetected","type":"event"},{"anonymous":false,"inputs":[{"indexed":true,"internalType":"address","name":"tokenA","type":"address"},{"indexed":true,"internalType":"address","name":"tokenB","type":"address"},{"indexed":false,"internalType":"uint256","name":"price","type":"uint256"},{"indexed":false,"internalType":"string","name":"dex","type":"string"}],"name":"PriceRecorded","type":"event"},{"inputs":[],"name":"BISWAP_FACTORY","outputs":[{"internalType":"address","name":"","type":"address"}],"stateMutability":"view","type":"function"},{"inputs":[],"name":"PANCAKE_FACTORY","outputs":[{"internalType":"address","name":"","type":"address"}],"stateMutability":"view","type":"function"},{"inputs":[],"name":"anomalyThresholdBps","outputs":[{"internalType":"uint256","name":"","type":"uint256"}],"stateMutability":"view","type":"function"},{"inputs":[{"internalType":"address","name":"tokenA","type":"address"},{"internalType":"address","name":"tokenB","type":"address"},{"internalType":"uint8","name":"decimalsA","type":"uint8"},{"internalType":"uint8","name":"decimalsB","type":"uint8"}],"name":"getAggregatedPrice","outputs":[{"internalType":"uint256","name":"pancakePrice","type":"uint256"},{"internalType":"uint256","name":"biswapPrice","type":"uint256"},{"internalType":"uint256","name":"medianPrice","type":"uint256"},{"internalType":"uint256","name":"spreadBps","type":"uint256"}],"stateMutability":"view","type":"function"},{"inputs":[{"internalType":"address","name":"factory","type":"address"},{"internalType":"address","name":"tokenA","type":"address"},{"internalType":"address","name":"tokenB","type":"address"},{"internalType":"uint8","name":"decimalsA","type":"uint8"},{"internalType":"uint8","name":"decimalsB","type":"uint8"}],"name":"getPriceFromDex","outputs":[{"internalType":"uint256","name":"price","type":"uint256"}],"stateMutability":"view","type":"function"},{"inputs":[{"internalType":"address","name":"tokenA","type":"address"},{"internalType":"address","name":"tokenB","type":"address"}],"name":"getPriceHistoryLength","outputs":[{"internalType":"uint256","name":"","type":"uint256"}],"stateMutability":"view","type":"function"},{"inputs":[{"internalType":"address","name":"tokenA","type":"address"},{"internalType":"address","name":"tokenB","type":"address"},{"internalType":"uint256","name":"windowSeconds","type":"uint256"}],"name":"getTWAP","outputs":[{"internalType":"uint256","name":"twap","type":"uint256"},{"internalType":"uint256","name":"dataPoints","type":"uint256"}],"stateMutability":"view","type":"function"},{"inputs":[{"internalType":"bytes32","name":"","type":"bytes32"}],"name":"lastUpdate","outputs":[{"internalType":"uint256","name":"","type":"uint256"}],"stateMutability":"view","type":"function"},{"inputs":[],"name":"owner","outputs":[{"internalType":"address","name":"","type":"address"}],"stateMutability":"view","type":"function"},{"inputs":[{"internalType":"bytes32","name":"","type":"bytes32"},{"internalType":"uint256","name":"","type":"uint256"}],"name":"priceHistory","outputs":[{"internalType":"uint256","name":"price","type":"uint256"},{"internalType":"uint256","name":"timestamp","type":"uint256"}],"stateMutability":"view","type":"function"},{"inputs":[{"internalType":"address","name":"tokenA","type":"address"},{"internalType":"address","name":"tokenB","type":"address"},{"internalType":"uint8","name":"decimalsA","type":"uint8"},{"internalType":"uint8","name":"decimalsB","type":"uint8"}],"name":"recordPrice","outputs":[],"stateMutability":"nonpayable","type":"function"},{"inputs":[{"internalType":"uint256","name":"_bps","type":"uint256"}],"name":"setAnomalyThreshold","outputs":[],"stateMutability":"nonpayable","type":"function"}],"evm":{"bytecode":{"linkReferences":{},"object":"6080806040523461002e576101f4600355600080546001600160a01b03191633179055610e0290816100348239f35b600080fdfe608060408181526004918236101561001657600080fd5b600092833560e01c9182630acefb7b14610428575081631758db3a1461040a57816329798846146103ae5781632c0dc14f1461035e5781633692173f146102ec57816358dad490146102b05781635eff5847146101c9575080637aaeffde146101ab5780638b9857951461017d5780638da5cb5b14610156578063dae0e723146100da5763fa81fbbd146100a957600080fd5b346100d657816003193601126100d6576020905173858e3312ed3a876947ea49d572a7c42de08af7ee8152f35b5080fd5b50346100d657806003193601126100d657806020926100f761044d565b610136610144610105610468565b85519283918983019586906028926bffffffffffffffffffffffff19809260601b16835260601b1660148201520190565b03601f1981018352826104fd565b51902081526001845220549051908152f35b50346100d657816003193601126100d657905490516001600160a01b039091168152602090f35b50346100d657816003193601126100d6576020905173ca143ce32fe78f1f7019d7d551a6402fc5350c738152f35b50346100d657816003193601126100d6576020906003549051908152f35b8284346102ad576101fa906101dd3661047e565b90849693969592955084956101f48383838b6105c2565b9761080b565b9284151580806102a4575b1561028a57505061021683856109bb565b60011c918385111561027a5761022c84866109c8565b905b6127109182810292818404149015171561026757506080955082610251916105a2565b925b815194855260208501528301526060820152f35b634e487b7160e01b815260118752602490fd5b61028485856109c8565b9061022e565b60809650909392501561029e578391610253565b81610253565b50841515610205565b80fd5b8284346102ad5760603660031901126102ad57506102e06102cf61044d565b6102d7610468565b60443591610b76565b82519182526020820152f35b5050346100d65760a03660031901126100d65761030761044d565b61030f610468565b604435906001600160a01b038216820361035a576064359260ff84168403610356576084359560ff871687036102ad57509161034f9391602096936108ed565b9051908152f35b8580fd5b8480fd5b9050346103aa57816003193601126103aa5760243590358352600160205281832080548210156103a65790610392916104cb565b506001815491015482519182526020820152f35b8380fd5b8280fd5b919050346103aa5760203660031901126103aa5782546001600160a01b031633036103db57503560035580f35b906020606492519162461bcd60e51b835282015260096024820152682737ba1037bbb732b960b91b6044820152fd5b83346102ad5761042561041c3661047e565b929190916109d5565b80f35b929150346103a65760203660031901126103a657926020933581526002845220548152f35b600435906001600160a01b038216820361046357565b600080fd5b602435906001600160a01b038216820361046357565b6080906003190112610463576001600160a01b0390600435828116810361046357916024359081168103610463579060443560ff81168103610463579060643560ff811681036104635790565b80548210156104e75760005260206000209060011b0190600090565b634e487b7160e01b600052603260045260246000fd5b90601f8019910116810190811067ffffffffffffffff82111761051f57604052565b634e487b7160e01b600052604160045260246000fd5b9081602091031261046357516001600160a01b03811681036104635790565b51906001600160701b038216820361046357565b60ff16604d811161057957600a0a90565b634e487b7160e01b600052601160045260246000fd5b8181029291811591840414171561057957565b81156105ac570490565b634e487b7160e01b600052601260045260246000fd5b6040805163e6a4390560e01b81526001600160a01b03928316600482018190529383166024820152909460209490939091858160448173ca143ce32fe78f1f7019d7d551a6402fc5350c735afa908115610800579084916000916107e3575b50169283156107d7578651630240bc6b60e21b815296606088600481885afa9485156107cc576000988996610772575b506001600160701b038099169788158015610768575b6107595780600492845193848092630dfe168160e01b82525afa92831561074f5750600092610722575b505016036106e957936106a86106af939495610568565b911661058f565b90670de0b6b3a764000091828102928184041490151715610579576106e6926106da6106e092610568565b9061058f565b906105a2565b90565b926106da6106f79294610568565b91670de0b6b3a764000092838102938185041490151715610579576106e6936106a86106e093610568565b6107419250803d10610748575b61073981836104fd565b810190610535565b3880610691565b503d61072f565b513d6000823e3d90fd5b50505050505050505050600090565b5089871615610667565b989095506060893d82116107c4575b8161078e606093836104fd565b810103126102ad5761079f89610554565b90826107ac8a8c01610554565b9a015163ffffffff8116036102ad5750979438610651565b3d9150610781565b50513d6000823e3d90fd5b50505050505050600090565b6107fa9150873d89116107485761073981836104fd565b38610621565b87513d6000823e3d90fd5b6040805163e6a4390560e01b81526001600160a01b03928316600482018190529383166024820152909460209490939091858160448173858e3312ed3a876947ea49d572a7c42de08af7ee5afa908115610800579084916000916107e35750169283156107d7578651630240bc6b60e21b815296606088600481885afa9485156107cc57600098899661077257506001600160701b038099169788158015610768576107595780600492845193848092630dfe168160e01b82525afa92831561074f575060009261072257505016036106e957936106a86106af939495610568565b92939193604094855163e6a4390560e01b815260018060a01b0395868080961693846004850152166024830152816044816020998a94165afa908115610800579084916000916107e35750169283156107d7578651630240bc6b60e21b815296606088600481885afa9485156107cc57600098899661077257506001600160701b038099169788158015610768576107595780600492845193848092630dfe168160e01b82525afa92831561074f575060009261072257505016036106e957936106a86106af939495610568565b9190820180921161057957565b9190820391821161057957565b929091604090610a2e82516020810190610a1681610136898b86906028926bffffffffffffffffffffffff19809260601b16835260601b1660148201520190565b51902093610a268184888a6105c2565b92868861080b565b8115158080610b5e575b15610b4a5750610a47916109bb565b60011c925b8315610b43578260005260016020528160002082519280840184811067ffffffffffffffff82111761051f578152858452602084019142835280546801000000000000000081101561051f57610aa7916001820181556104cb565b959095610b2d57838888610afa937fffb2d1267e244f0d9a9560de555b857c9b86b4e337e5db82c51f70f768d54166996001600a9860809b51835551910155806000526002602052428660002055610c98565b805195865260208601819052850152691859d9dc9959d85d195960b21b60608501526001600160a01b03908116941692a3565b634e487b7160e01b600052600060045260246000fd5b5050505050565b15610b56575092610a4c565b905092610a4c565b50811515610a38565b60001981146105795760010190565b6040516bffffffffffffffffffffffff19606092831b8116602083019081529390921b9091166034820152919291610bb18160488101610136565b51902060009081526001908160205260408120918254948515610c8f57610bdb90939193426109c8565b8293839692835b610c07575b505050508315610c00575082610bfc916105a2565b9190565b9250508190565b90919296946000198801888111610c7b578484610c2483866104cb565b50015410610c7357610c4b91610c3d610c4592856104cb565b5054906109bb565b95610b67565b968015610c5f576000190192919083610be2565b634e487b7160e01b85526011600452602485fd5b509496610be7565b634e487b7160e01b86526011600452602486fd5b50509250508190565b92909192600090815260016020526040812080549060058210610dc45782916005811115610dbd576004198101818111610c5f57915b82905b828210610d9e575050610ce892916106e0916109c8565b9081841115610d8e57610cfb82856109c8565b905b61271091828102928184041490151715610d7a575081610d1c916105a2565b916003548311610d2d575050505050565b7f0f69b391d88779ca000622f755af4b19cdfe0ed4bd2044b4554d06d3fba378f5926060926040519586526020860152604085015260018060a01b03809116941692a33880808080610b43565b634e487b7160e01b81526011600452602490fd5b610d9884836109c8565b90610cfd565b9093610db1610db791610c3d87856104cb565b94610b67565b90610cd1565b8391610cce565b50505050505056fea2646970667358221220d42e2f0d2b5785fea70cbafdbe00bae7d52e8eaeb0d327d1b5b896e370ec0a7864736f6c63430008130033","opcodes":"PUSH1 0x80 DUP1 PUSH1 0x40 MSTORE CALLVALUE PUSH2 0x2E JUMPI PUSH2 0x1F4 PUSH1 0x3 SSTORE PUSH1 0x0 DUP1 SLOAD PUSH1 0x1 PUSH1 0x1 PUSH1 0xA0 SHL SUB NOT AND CALLER OR SWAP1 SSTORE PUSH2 0xE02 SWAP1 DUP2 PUSH2 0x34 DUP3 CODECOPY RETURN JUMPDEST PUSH1 0x0 DUP1 REVERT INVALID PUSH1 0x80 PUSH1 0x40 DUP2 DUP2 MSTORE PUSH1 0x4 SWAP2 DUP3 CALLDATASIZE LT ISZERO PUSH2 0x16 JUMPI PUSH1 0x0 DUP1 REVERT JUMPDEST PUSH1 0x0 SWAP3 DUP4 CALLDATALOAD PUSH1 0xE0 SHR SWAP2 DUP3 PUSH4 0xACEFB7B EQ PUSH2 0x428 JUMPI POP DUP2 PUSH4 0x1758DB3A EQ PUSH2 0x40A JUMPI DUP2 PUSH4 0x29798846 EQ PUSH2 0x3AE JUMPI DUP2 PUSH4 0x2C0DC14F EQ PUSH2 0x35E JUMPI DUP2 PUSH4 0x3692173F EQ PUSH2 0x2EC JUMPI DUP2 PUSH4 0x58DAD490 EQ PUSH2 0x2B0 JUMPI DUP2 PUSH4 0x5EFF5847 EQ PUSH2 0x1C9 JUMPI POP DUP1 PUSH4 0x7AAEFFDE EQ PUSH2 0x1AB JUMPI DUP1 PUSH4 0x8B985795 EQ PUSH2 0x17D JUMPI DUP1 PUSH4 0x8DA5CB5B EQ PUSH2 0x156 JUMPI DUP1 PUSH4 0xDAE0E723 EQ PUSH2 0xDA JUMPI PUSH4 0xFA81FBBD EQ PUSH2 0xA9 JUMPI PUSH1 0x0 DUP1 REVERT JUMPDEST CALLVALUE PUSH2 0xD6 JUMPI DUP2 PUSH1 0x3 NOT CALLDATASIZE ADD SLT PUSH2 0xD6 JUMPI PUSH1 0x20 SWAP1 MLOAD PUSH20 0x858E3312ED3A876947EA49D572A7C42DE08AF7EE DUP2 MSTORE RETURN JUMPDEST POP DUP1 REVERT JUMPDEST POP CALLVALUE PUSH2 0xD6 JUMPI DUP1 PUSH1 0x3 NOT CALLDATASIZE ADD SLT PUSH2 0xD6 JUMPI DUP1 PUSH1 0x20 SWAP3 PUSH2 0xF7 PUSH2 0x44D JUMP JUMPDEST PUSH2 0x136 PUSH2 0x144 PUSH2 0x105 PUSH2 0x468 JUMP JUMPDEST DUP6 MLOAD SWAP3 DUP4 SWAP2 DUP10 DUP4 ADD SWAP6 DUP7 SWAP1 PUSH1 0x28 SWAP3 PUSH12 0xFFFFFFFFFFFFFFFFFFFFFFFF NOT DUP1 SWAP3 PUSH1 0x60 SHL AND DUP4 MSTORE PUSH1 0x60 SHL AND PUSH1 0x14 DUP3 ADD MSTORE ADD SWAP1 JUMP JUMPDEST SUB PUSH1 0x1F NOT DUP2 ADD DUP4 MSTORE DUP3 PUSH2 0x4FD JUMP JUMPDEST MLOAD SWAP1 KECCAK256 DUP2 MSTORE PUSH1 0x1 DUP5 MSTORE KECCAK256 SLOAD SWAP1 MLOAD SWAP1 DUP2 MSTORE RETURN JUMPDEST POP CALLVALUE PUSH2 0xD6 JUMPI DUP2 PUSH1 0x3 NOT CALLDATASIZE ADD SLT PUSH2 0xD6 JUMPI SWAP1 SLOAD SWAP1 MLOAD PUSH1 0x1 PUSH1 0x1 PUSH1 0xA0 SHL SUB SWAP1 SWAP2 AND DUP2 MSTORE PUSH1 0x20 SWAP1 RETURN JUMPDEST POP CALLVALUE PUSH2 0xD6 JUMPI DUP2 PUSH1 0x3 NOT CALLDATASIZE ADD SLT PUSH2 0xD6 JUMPI PUSH1 0x20 SWAP1 MLOAD PUSH20 0xCA143CE32FE78F1F7019D7D551A6402FC5350C73 DUP2 MSTORE RETURN JUMPDEST POP CALLVALUE PUSH2 0xD6 JUMPI DUP2 PUSH1 0x3 NOT CALLDATASIZE ADD SLT PUSH2 0xD6 JUMPI PUSH1 0x20 SWAP1 PUSH1 0x3 SLOAD SWAP1 MLOAD SWAP1 DUP2 MSTORE RETURN JUMPDEST DUP3 DUP5 CALLVALUE PUSH2 0x2AD JUMPI PUSH2 0x1FA SWAP1 PUSH2 0x1DD CALLDATASIZE PUSH2 0x47E JUMP JUMPDEST SWAP1 DUP5 SWAP7 SWAP4 SWAP7 SWAP6 SWAP3 SWAP6 POP DUP5 SWAP6 PUSH2 0x1F4 DUP4 DUP4 DUP4 DUP12 PUSH2 0x5C2 JUMP JUMPDEST SWAP8 PUSH2 0x80B JUMP JUMPDEST SWAP3 DUP5 ISZERO ISZERO DUP1 DUP1 PUSH2 0x2A4 JUMPI JUMPDEST ISZERO PUSH2 0x28A JUMPI POP POP PUSH2 0x216 DUP4 DUP6 PUSH2 0x9BB JUMP JUMPDEST PUSH1 0x1 SHR SWAP2 DUP4 DUP6 GT ISZERO PUSH2 0x27A JUMPI PUSH2 0x22C DUP5 DUP7 PUSH2 0x9C8 JUMP JUMPDEST SWAP1 JUMPDEST PUSH2 0x2710 SWAP2 DUP3 DUP2 MUL SWAP3 DUP2 DUP5 DIV EQ SWAP1 ISZERO OR ISZERO PUSH2 0x267 JUMPI POP PUSH1 0x80 SWAP6 POP DUP3 PUSH2 0x251 SWAP2 PUSH2 0x5A2 JUMP JUMPDEST SWAP3 JUMPDEST DUP2 MLOAD SWAP5 DUP6 MSTORE PUSH1 0x20 DUP6 ADD MSTORE DUP4 ADD MSTORE PUSH1 0x60 DUP3 ADD MSTORE RETURN JUMPDEST PUSH4 0x4E487B71 PUSH1 0xE0 SHL DUP2 MSTORE PUSH1 0x11 DUP8 MSTORE PUSH1 0x24 SWAP1 REVERT JUMPDEST PUSH2 0x284 DUP6 DUP6 PUSH2 0x9C8 JUMP JUMPDEST SWAP1 PUSH2 0x22E JUMP JUMPDEST PUSH1 0x80 SWAP7 POP SWAP1 SWAP4 SWAP3 POP ISZERO PUSH2 0x29E JUMPI DUP4 SWAP2 PUSH2 0x253 JUMP JUMPDEST DUP2 PUSH2 0x253 JUMP JUMPDEST POP DUP5 ISZERO ISZERO PUSH2 0x205 JUMP JUMPDEST DUP1 REVERT JUMPDEST DUP3 DUP5 CALLVALUE PUSH2 0x2AD JUMPI PUSH1 0x60 CALLDATASIZE PUSH1 0x3 NOT ADD SLT PUSH2 0x2AD JUMPI POP PUSH2 0x2E0 PUSH2 0x2CF PUSH2 0x44D JUMP JUMPDEST PUSH2 0x2D7 PUSH2 0x468 JUMP JUMPDEST PUSH1 0x44 CALLDATALOAD SWAP2 PUSH2 0xB76 JUMP JUMPDEST DUP3 MLOAD SWAP2 DUP3 MSTORE PUSH1 0x20 DUP3 ADD MSTORE RETURN JUMPDEST POP POP CALLVALUE PUSH2 0xD6 JUMPI PUSH1 0xA0 CALLDATASIZE PUSH1 0x3 NOT ADD SLT PUSH2 0xD6 JUMPI PUSH2 0x307 PUSH2 0x44D JUMP JUMPDEST PUSH2 0x30F PUSH2 0x468 JUMP JUMPDEST PUSH1 0x44 CALLDATALOAD SWAP1 PUSH1 0x1 PUSH1 0x1 PUSH1 0xA0 SHL SUB DUP3 AND DUP3 SUB PUSH2 0x35A JUMPI PUSH1 0x64 CALLDATALOAD SWAP3 PUSH1 0xFF DUP5 AND DUP5 SUB PUSH2 0x356 JUMPI PUSH1 0x84 CALLDATALOAD SWAP6 PUSH1 0xFF DUP8 AND DUP8 SUB PUSH2 0x2AD JUMPI POP SWAP2 PUSH2 0x34F SWAP4 SWAP2 PUSH1 0x20 SWAP7 SWAP4 PUSH2 0x8ED JUMP JUMPDEST SWAP1 MLOAD SWAP1 DUP2 MSTORE RETURN JUMPDEST DUP6 DUP1 REVERT JUMPDEST DUP5 DUP1 REVERT JUMPDEST SWAP1 POP CALLVALUE PUSH2 0x3AA JUMPI DUP2 PUSH1 0x3 NOT CALLDATASIZE ADD SLT PUSH2 0x3AA JUMPI PUSH1 0x24 CALLDATALOAD SWAP1 CALLDATALOAD DUP4 MSTORE PUSH1 0x1 PUSH1 0x20 MSTORE DUP2 DUP4 KECCAK256 DUP1 SLOAD DUP3 LT ISZERO PUSH2 0x3A6 JUMPI SWAP1 PUSH2 0x392 SWAP2 PUSH2 0x4CB JUMP JUMPDEST POP PUSH1 0x1 DUP2 SLOAD SWAP2 ADD SLOAD DUP3 MLOAD SWAP2 DUP3 MSTORE PUSH1 0x20 DUP3 ADD MSTORE RETURN JUMPDEST DUP4 DUP1 REVERT JUMPDEST DUP3 DUP1 REVERT JUMPDEST SWAP2 SWAP1 POP CALLVALUE PUSH2 0x3AA JUMPI PUSH1 0x20 CALLDATASIZE PUSH1 0x3 NOT ADD SLT PUSH2 0x3AA JUMPI DUP3 SLOAD PUSH1 0x1 PUSH1 0x1 PUSH1 0xA0 SHL SUB AND CALLER SUB PUSH2 0x3DB JUMPI POP CALLDATALOAD PUSH1 0x3 SSTORE DUP1 RETURN JUMPDEST SWAP1 PUSH1 0x20 PUSH1 0x64 SWAP3 MLOAD SWAP2 PUSH3 0x461BCD PUSH1 0xE5 SHL DUP4 MSTORE DUP3 ADD MSTORE PUSH1 0x9 PUSH1 0x24 DUP3 ADD MSTORE PUSH9 0x2737BA1037BBB732B9 PUSH1 0xB9 SHL PUSH1 0x44 DUP3 ADD MSTORE REVERT JUMPDEST DUP4 CALLVALUE PUSH2 0x2AD JUMPI PUSH2 0x425 PUSH2 0x41C CALLDATASIZE PUSH2 0x47E JUMP JUMPDEST SWAP3 SWAP2 SWAP1 SWAP2 PUSH2 0x9D5 JUMP JUMPDEST DUP1 RETURN JUMPDEST SWAP3 SWAP2 POP CALLVALUE PUSH2 0x3A6 JUMPI PUSH1 0x20 CALLDATASIZE PUSH1 0x3 NOT ADD SLT PUSH2 0x3A6 JUMPI SWAP3 PUSH1 0x20 SWAP4 CALLDATALOAD DUP2 MSTORE PUSH1 0x2 DUP5 MSTORE KECCAK256 SLOAD DUP2 MSTORE RETURN JUMPDEST PUSH1 0x4 CALLDATALOAD SWAP1 PUSH1 0x1 PUSH1 0x1 PUSH1 0xA0 SHL SUB DUP3 AND DUP3 SUB PUSH2 0x463 JUMPI JUMP JUMPDEST PUSH1 0x0 DUP1 REVERT JUMPDEST PUSH1 0x24 CALLDATALOAD SWAP1 PUSH1 0x1 PUSH1 0x1 PUSH1 0xA0 SHL SUB DUP3 AND DUP3 SUB PUSH2 0x463 JUMPI JUMP JUMPDEST PUSH1 0x80 SWAP1 PUSH1 0x3 NOT ADD SLT PUSH2 0x463 JUMPI PUSH1 0x1 PUSH1 0x1 PUSH1 0xA0 SHL SUB SWAP1 PUSH1 0x4 CALLDATALOAD DUP3 DUP2 AND DUP2 SUB PUSH2 0x463 JUMPI SWAP2 PUSH1 0x24 CALLDATALOAD SWAP1 DUP2 AND DUP2 SUB PUSH2 0x463 JUMPI SWAP1 PUSH1 0x44 CALLDATALOAD PUSH1 0xFF DUP2 AND DUP2 SUB PUSH2 0x463 JUMPI SWAP1 PUSH1 0x64 CALLDATALOAD PUSH1 0xFF DUP2 AND DUP2 SUB PUSH2 0x463 JUMPI SWAP1 JUMP JUMPDEST DUP1 SLOAD DUP3 LT ISZERO PUSH2 0x4E7 JUMPI PUSH1 0x0 MSTORE PUSH1 0x20 PUSH1 0x0 KECCAK256 SWAP1 PUSH1 0x1 SHL ADD SWAP1 PUSH1 0x0 SWAP1 JUMP JUMPDEST PUSH4 0x4E487B71 PUSH1 0xE0 SHL PUSH1 0x0 MSTORE PUSH1 0x32 PUSH1 0x4 MSTORE PUSH1 0x24 PUSH1 0x0 REVERT JUMPDEST SWAP1 PUSH1 0x1F DUP1 NOT SWAP2 ADD AND DUP2 ADD SWAP1 DUP2 LT PUSH8 0xFFFFFFFFFFFFFFFF DUP3 GT OR PUSH2 0x51F JUMPI PUSH1 0x40 MSTORE JUMP JUMPDEST PUSH4 0x4E487B71 PUSH1 0xE0 SHL PUSH1 0x0 MSTORE PUSH1 0x41 PUSH1 0x4 MSTORE PUSH1 0x24 PUSH1 0x0 REVERT JUMPDEST SWAP1 DUP2 PUSH1 0x20 SWAP2 SUB SLT PUSH2 0x463 JUMPI MLOAD PUSH1 0x1 PUSH1 0x1 PUSH1 0xA0 SHL SUB DUP2 AND DUP2 SUB PUSH2 0x463 JUMPI SWAP1 JUMP JUMPDEST MLOAD SWAP1 PUSH1 0x1 PUSH1 0x1 PUSH1 0x70 SHL SUB DUP3 AND DUP3 SUB PUSH2 0x463 JUMPI JUMP JUMPDEST PUSH1 0xFF AND PUSH1 0x4D DUP2 GT PUSH2 0x579 JUMPI PUSH1 0xA EXP SWAP1 JUMP JUMPDEST PUSH4 0x4E487B71 PUSH1 0xE0 SHL PUSH1 0x0 MSTORE PUSH1 0x11 PUSH1 0x4 MSTORE PUSH1 0x24 PUSH1 0x0 REVERT JUMPDEST DUP2 DUP2 MUL SWAP3 SWAP2 DUP2 ISZERO SWAP2 DUP5 DIV EQ OR ISZERO PUSH2 0x579 JUMPI JUMP JUMPDEST DUP2 ISZERO PUSH2 0x5AC JUMPI DIV SWAP1 JUMP JUMPDEST PUSH4 0x4E487B71 PUSH1 0xE0 SHL PUSH1 0x0 MSTORE PUSH1 0x12 PUSH1 0x4 MSTORE PUSH1 0x24 PUSH1 0x0 REVERT JUMPDEST PUSH1 0x40 DUP1 MLOAD PUSH4 0xE6A43905 PUSH1 0xE0 SHL DUP2 MSTORE PUSH1 0x1 PUSH1 0x1 PUSH1 0xA0 SHL SUB SWAP3 DUP4 AND PUSH1 0x4 DUP3 ADD DUP2 SWAP1 MSTORE SWAP4 DUP4 AND PUSH1 0x24 DUP3 ADD MSTORE SWAP1 SWAP5 PUSH1 0x20 SWAP5 SWAP1 SWAP4 SWAP1 SWAP2 DUP6 DUP2 PUSH1 0x44 DUP2 PUSH20 0xCA143CE32FE78F1F7019D7D551A6402FC5350C73 GAS STATICCALL SWAP1 DUP2 ISZERO PUSH2 0x800 JUMPI SWAP1 DUP5 SWAP2 PUSH1 0x0 SWAP2 PUSH2 0x7E3 JUMPI JUMPDEST POP AND SWAP3 DUP4 ISZERO PUSH2 0x7D7 JUMPI DUP7 MLOAD PUSH4 0x240BC6B PUSH1 0xE2 SHL DUP2 MSTORE SWAP7 PUSH1 0x60 DUP9 PUSH1 0x4 DUP2 DUP9 GAS STATICCALL SWAP5 DUP6 ISZERO PUSH2 0x7CC JUMPI PUSH1 0x0 SWAP9 DUP10 SWAP7 PUSH2 0x772 JUMPI JUMPDEST POP PUSH1 0x1 PUSH1 0x1 PUSH1 0x70 SHL SUB DUP1 SWAP10 AND SWAP8 DUP9 ISZERO DUP1 ISZERO PUSH2 0x768 JUMPI JUMPDEST PUSH2 0x759 JUMPI DUP1 PUSH1 0x4 SWAP3 DUP5 MLOAD SWAP4 DUP5 DUP1 SWAP3 PUSH4 0xDFE1681 PUSH1 0xE0 SHL DUP3 MSTORE GAS STATICCALL SWAP3 DUP4 ISZERO PUSH2 0x74F JUMPI POP PUSH1 0x0 SWAP3 PUSH2 0x722 JUMPI JUMPDEST POP POP AND SUB PUSH2 0x6E9 JUMPI SWAP4 PUSH2 0x6A8 PUSH2 0x6AF SWAP4 SWAP5 SWAP6 PUSH2 0x568 JUMP JUMPDEST SWAP2 AND PUSH2 0x58F JUMP JUMPDEST SWAP1 PUSH8 0xDE0B6B3A7640000 SWAP2 DUP3 DUP2 MUL SWAP3 DUP2 DUP5 DIV EQ SWAP1 ISZERO OR ISZERO PUSH2 0x579 JUMPI PUSH2 0x6E6 SWAP3 PUSH2 0x6DA PUSH2 0x6E0 SWAP3 PUSH2 0x568 JUMP JUMPDEST SWAP1 PUSH2 0x58F JUMP JUMPDEST SWAP1 PUSH2 0x5A2 JUMP JUMPDEST SWAP1 JUMP JUMPDEST SWAP3 PUSH2 0x6DA PUSH2 0x6F7 SWAP3 SWAP5 PUSH2 0x568 JUMP JUMPDEST SWAP2 PUSH8 0xDE0B6B3A7640000 SWAP3 DUP4 DUP2 MUL SWAP4 DUP2 DUP6 DIV EQ SWAP1 ISZERO OR ISZERO PUSH2 0x579 JUMPI PUSH2 0x6E6 SWAP4 PUSH2 0x6A8 PUSH2 0x6E0 SWAP4 PUSH2 0x568 JUMP JUMPDEST PUSH2 0x741 SWAP3 POP DUP1 RETURNDATASIZE LT PUSH2 0x748 JUMPI JUMPDEST PUSH2 0x739 DUP2 DUP4 PUSH2 0x4FD JUMP JUMPDEST DUP2 ADD SWAP1 PUSH2 0x535 JUMP JUMPDEST CODESIZE DUP1 PUSH2 0x691 JUMP JUMPDEST POP RETURNDATASIZE PUSH2 0x72F JUMP JUMPDEST MLOAD RETURNDATASIZE PUSH1 0x0 DUP3 RETURNDATACOPY RETURNDATASIZE SWAP1 REVERT JUMPDEST POP POP POP POP POP POP POP POP POP POP PUSH1 0x0 SWAP1 JUMP JUMPDEST POP DUP10 DUP8 AND ISZERO PUSH2 0x667 JUMP JUMPDEST SWAP9 SWAP1 SWAP6 POP PUSH1 0x60 DUP10 RETURNDATASIZE DUP3 GT PUSH2 0x7C4 JUMPI JUMPDEST DUP2 PUSH2 0x78E PUSH1 0x60 SWAP4 DUP4 PUSH2 0x4FD JUMP JUMPDEST DUP2 ADD SUB SLT PUSH2 0x2AD JUMPI PUSH2 0x79F DUP10 PUSH2 0x554 JUMP JUMPDEST SWAP1 DUP3 PUSH2 0x7AC DUP11 DUP13 ADD PUSH2 0x554 JUMP JUMPDEST SWAP11 ADD MLOAD PUSH4 0xFFFFFFFF DUP2 AND SUB PUSH2 0x2AD JUMPI POP SWAP8 SWAP5 CODESIZE PUSH2 0x651 JUMP JUMPDEST RETURNDATASIZE SWAP2 POP PUSH2 0x781 JUMP JUMPDEST POP MLOAD RETURNDATASIZE PUSH1 0x0 DUP3 RETURNDATACOPY RETURNDATASIZE SWAP1 REVERT JUMPDEST POP POP POP POP POP POP POP PUSH1 0x0 SWAP1 JUMP JUMPDEST PUSH2 0x7FA SWAP2 POP DUP8 RETURNDATASIZE DUP10 GT PUSH2 0x748 JUMPI PUSH2 0x739 DUP2 DUP4 PUSH2 0x4FD JUMP JUMPDEST CODESIZE PUSH2 0x621 JUMP JUMPDEST DUP8 MLOAD RETURNDATASIZE PUSH1 0x0 DUP3 RETURNDATACOPY RETURNDATASIZE SWAP1 REVERT JUMPDEST PUSH1 0x40 DUP1 MLOAD PUSH4 0xE6A43905 PUSH1 0xE0 SHL DUP2 MSTORE PUSH1 0x1 PUSH1 0x1 PUSH1 0xA0 SHL SUB SWAP3 DUP4 AND PUSH1 0x4 DUP3 ADD DUP2 SWAP1 MSTORE SWAP4 DUP4 AND PUSH1 0x24 DUP3 ADD MSTORE SWAP1 SWAP5 PUSH1 0x20 SWAP5 SWAP1 SWAP4 SWAP1 SWAP2 DUP6 DUP2 PUSH1 0x44 DUP2 PUSH20 0x858E3312ED3A876947EA49D572A7C42DE08AF7EE GAS STATICCALL SWAP1 DUP2 ISZERO PUSH2 0x800 JUMPI SWAP1 DUP5 SWAP2 PUSH1 0x0 SWAP2 PUSH2 0x7E3 JUMPI POP AND SWAP3 DUP4 ISZERO PUSH2 0x7D7 JUMPI DUP7 MLOAD PUSH4 0x240BC6B PUSH1 0xE2 SHL DUP2 MSTORE SWAP7 PUSH1 0x60 DUP9 PUSH1 0x4 DUP2 DUP9 GAS STATICCALL SWAP5 DUP6 ISZERO PUSH2 0x7CC JUMPI PUSH1 0x0 SWAP9 DUP10 SWAP7 PUSH2 0x772 JUMPI POP PUSH1 0x1 PUSH1 0x1 PUSH1 0x70 SHL SUB DUP1 SWAP10 AND SWAP8 DUP9 ISZERO DUP1 ISZERO PUSH2 0x768 JUMPI PUSH2 0x759 JUMPI DUP1 PUSH1 0x4 SWAP3 DUP5 MLOAD SWAP4 DUP5 DUP1 SWAP3 PUSH4 0xDFE1681 PUSH1 0xE0 SHL DUP3 MSTORE GAS STATICCALL SWAP3 DUP4 ISZERO PUSH2 0x74F JUMPI POP PUSH1 0x0 SWAP3 PUSH2 0x722 JUMPI POP POP AND SUB PUSH2 0x6E9 JUMPI SWAP4 PUSH2 0x6A8 PUSH2 0x6AF SWAP4 SWAP5 SWAP6 PUSH2 0x568 JUMP JUMPDEST SWAP3 SWAP4 SWAP2 SWAP4 PUSH1 0x40 SWAP5 DUP6 MLOAD PUSH4 0xE6A43905 PUSH1 0xE0 SHL DUP2 MSTORE PUSH1 0x1 DUP1 PUSH1 0xA0 SHL SUB SWAP6 DUP7 DUP1 DUP1 SWAP7 AND SWAP4 DUP5 PUSH1 0x4 DUP6 ADD MSTORE AND PUSH1 0x24 DUP4 ADD MSTORE DUP2 PUSH1 0x44 DUP2 PUSH1 0x20 SWAP10 DUP11 SWAP5 AND GAS STATICCALL SWAP1 DUP2 ISZERO PUSH2 0x800 JUMPI SWAP1 DUP5 SWAP2 PUSH1 0x0 SWAP2 PUSH2 0x7E3 JUMPI POP AND SWAP3 DUP4 ISZERO PUSH2 0x7D7 JUMPI DUP7 MLOAD PUSH4 0x240BC6B PUSH1 0xE2 SHL DUP2 MSTORE SWAP7 PUSH1 0x60 DUP9 PUSH1 0x4 DUP2 DUP9 GAS STATICCALL SWAP5 DUP6 ISZERO PUSH2 0x7CC JUMPI PUSH1 0x0 SWAP9 DUP10 SWAP7 PUSH2 0x772 JUMPI POP PUSH1 0x1 PUSH1 0x1 PUSH1 0x70 SHL SUB DUP1 SWAP10 AND SWAP8 DUP9 ISZERO DUP1 ISZERO PUSH2 0x768 JUMPI PUSH2 0x759 JUMPI DUP1 PUSH1 0x4 SWAP3 DUP5 MLOAD SWAP4 DUP5 DUP1 SWAP3 PUSH4 0xDFE1681 PUSH1 0xE0 SHL DUP3 MSTORE GAS STATICCALL SWAP3 DUP4 ISZERO PUSH2 0x74F JUMPI POP PUSH1 0x0 SWAP3 PUSH2 0x722 JUMPI POP POP AND SUB PUSH2 0x6E9 JUMPI SWAP4 PUSH2 0x6A8 PUSH2 0x6AF SWAP4 SWAP5 SWAP6 PUSH2 0x568 JUMP JUMPDEST SWAP2 SWAP1 DUP3 ADD DUP1 SWAP3 GT PUSH2 0x579 JUMPI JUMP JUMPDEST SWAP2 SWAP1 DUP3 SUB SWAP2 DUP3 GT PUSH2 0x579 JUMPI JUMP JUMPDEST SWAP3 SWAP1 SWAP2 PUSH1 0x40 SWAP1 PUSH2 0xA2E DUP3 MLOAD PUSH1 0x20 DUP2 ADD SWAP1 PUSH2 0xA16 DUP2 PUSH2 0x136 DUP10 DUP12 DUP7 SWAP1 PUSH1 0x28 SWAP3 PUSH12 0xFFFFFFFFFFFFFFFFFFFFFFFF NOT DUP1 SWAP3 PUSH1 0x60 SHL AND DUP4 MSTORE PUSH1 0x60 SHL AND PUSH1 0x14 DUP3 ADD MSTORE ADD SWAP1 JUMP JUMPDEST MLOAD SWAP1 KECCAK256 SWAP4 PUSH2 0xA26 DUP2 DUP5 DUP9 DUP11 PUSH2 0x5C2 JUMP JUMPDEST SWAP3 DUP7 DUP9 PUSH2 0x80B JUMP JUMPDEST DUP2 ISZERO ISZERO DUP1 DUP1 PUSH2 0xB5E JUMPI JUMPDEST ISZERO PUSH2 0xB4A JUMPI POP PUSH2 0xA47 SWAP2 PUSH2 0x9BB JUMP JUMPDEST PUSH1 0x1 SHR SWAP3 JUMPDEST DUP4 ISZERO PUSH2 0xB43 JUMPI DUP3 PUSH1 0x0 MSTORE PUSH1 0x1 PUSH1 0x20 MSTORE DUP2 PUSH1 0x0 KECCAK256 DUP3 MLOAD SWAP3 DUP1 DUP5 ADD DUP5 DUP2 LT PUSH8 0xFFFFFFFFFFFFFFFF DUP3 GT OR PUSH2 0x51F JUMPI DUP2 MSTORE DUP6 DUP5 MSTORE PUSH1 0x20 DUP5 ADD SWAP2 TIMESTAMP DUP4 MSTORE DUP1 SLOAD PUSH9 0x10000000000000000 DUP2 LT ISZERO PUSH2 0x51F JUMPI PUSH2 0xAA7 SWAP2 PUSH1 0x1 DUP3 ADD DUP2 SSTORE PUSH2 0x4CB JUMP JUMPDEST SWAP6 SWAP1 SWAP6 PUSH2 0xB2D JUMPI DUP4 DUP9 DUP9 PUSH2 0xAFA SWAP4 PUSH32 0xFFB2D1267E244F0D9A9560DE555B857C9B86B4E337E5DB82C51F70F768D54166 SWAP10 PUSH1 0x1 PUSH1 0xA SWAP9 PUSH1 0x80 SWAP12 MLOAD DUP4 SSTORE MLOAD SWAP2 ADD SSTORE DUP1 PUSH1 0x0 MSTORE PUSH1 0x2 PUSH1 0x20 MSTORE TIMESTAMP DUP7 PUSH1 0x0 KECCAK256 SSTORE PUSH2 0xC98 JUMP JUMPDEST DUP1 MLOAD SWAP6 DUP7 MSTORE PUSH1 0x20 DUP7 ADD DUP2 SWAP1 MSTORE DUP6 ADD MSTORE PUSH10 0x1859D9DC9959D85D1959 PUSH1 0xB2 SHL PUSH1 0x60 DUP6 ADD MSTORE PUSH1 0x1 PUSH1 0x1 PUSH1 0xA0 SHL SUB SWAP1 DUP2 AND SWAP5 AND SWAP3 LOG3 JUMP JUMPDEST PUSH4 0x4E487B71 PUSH1 0xE0 SHL PUSH1 0x0 MSTORE PUSH1 0x0 PUSH1 0x4 MSTORE PUSH1 0x24 PUSH1 0x0 REVERT JUMPDEST POP POP POP POP POP JUMP JUMPDEST ISZERO PUSH2 0xB56 JUMPI POP SWAP3 PUSH2 0xA4C JUMP JUMPDEST SWAP1 POP SWAP3 PUSH2 0xA4C JUMP JUMPDEST POP DUP2 ISZERO ISZERO PUSH2 0xA38 JUMP JUMPDEST PUSH1 0x0 NOT DUP2 EQ PUSH2 0x579 JUMPI PUSH1 0x1 ADD SWAP1 JUMP JUMPDEST PUSH1 0x40 MLOAD PUSH12 0xFFFFFFFFFFFFFFFFFFFFFFFF NOT PUSH1 0x60 SWAP3 DUP4 SHL DUP2 AND PUSH1 0x20 DUP4 ADD SWAP1 DUP2 MSTORE SWAP4 SWAP1 SWAP3 SHL SWAP1 SWAP2 AND PUSH1 0x34 DUP3 ADD MSTORE SWAP2 SWAP3 SWAP2 PUSH2 0xBB1 DUP2 PUSH1 0x48 DUP2 ADD PUSH2 0x136 JUMP JUMPDEST MLOAD SWAP1 KECCAK256 PUSH1 0x0 SWAP1 DUP2 MSTORE PUSH1 0x1 SWAP1 DUP2 PUSH1 0x20 MSTORE PUSH1 0x40 DUP2 KECCAK256 SWAP2 DUP3 SLOAD SWAP5 DUP6 ISZERO PUSH2 0xC8F JUMPI PUSH2 0xBDB SWAP1 SWAP4 SWAP2 SWAP4 TIMESTAMP PUSH2 0x9C8 JUMP JUMPDEST DUP3 SWAP4 DUP4 SWAP7 SWAP3 DUP4 JUMPDEST PUSH2 0xC07 JUMPI JUMPDEST POP POP POP POP DUP4 ISZERO PUSH2 0xC00 JUMPI POP DUP3 PUSH2 0xBFC SWAP2 PUSH2 0x5A2 JUMP JUMPDEST SWAP2 SWAP1 JUMP JUMPDEST SWAP3 POP POP DUP2 SWAP1 JUMP JUMPDEST SWAP1 SWAP2 SWAP3 SWAP7 SWAP5 PUSH1 0x0 NOT DUP9 ADD DUP9 DUP2 GT PUSH2 0xC7B JUMPI DUP5 DUP5 PUSH2 0xC24 DUP4 DUP7 PUSH2 0x4CB JUMP JUMPDEST POP ADD SLOAD LT PUSH2 0xC73 JUMPI PUSH2 0xC4B SWAP2 PUSH2 0xC3D PUSH2 0xC45 SWAP3 DUP6 PUSH2 0x4CB JUMP JUMPDEST POP SLOAD SWAP1 PUSH2 0x9BB JUMP JUMPDEST SWAP6 PUSH2 0xB67 JUMP JUMPDEST SWAP7 DUP1 ISZERO PUSH2 0xC5F JUMPI PUSH1 0x0 NOT ADD SWAP3 SWAP2 SWAP1 DUP4 PUSH2 0xBE2 JUMP JUMPDEST PUSH4 0x4E487B71 PUSH1 0xE0 SHL DUP6 MSTORE PUSH1 0x11 PUSH1 0x4 MSTORE PUSH1 0x24 DUP6 REVERT JUMPDEST POP SWAP5 SWAP7 PUSH2 0xBE7 JUMP JUMPDEST PUSH4 0x4E487B71 PUSH1 0xE0 SHL DUP7 MSTORE PUSH1 0x11 PUSH1 0x4 MSTORE PUSH1 0x24 DUP7 REVERT JUMPDEST POP POP SWAP3 POP POP DUP2 SWAP1 JUMP JUMPDEST SWAP3 SWAP1 SWAP2 SWAP3 PUSH1 0x0 SWAP1 DUP2 MSTORE PUSH1 0x1 PUSH1 0x20 MSTORE PUSH1 0x40 DUP2 KECCAK256 DUP1 SLOAD SWAP1 PUSH1 0x5 DUP3 LT PUSH2 0xDC4 JUMPI DUP3 SWAP2 PUSH1 0x5 DUP2 GT ISZERO PUSH2 0xDBD JUMPI PUSH1 0x4 NOT DUP2 ADD DUP2 DUP2 GT PUSH2 0xC5F JUMPI SWAP2 JUMPDEST DUP3 SWAP1 JUMPDEST DUP3 DUP3 LT PUSH2 0xD9E JUMPI POP POP PUSH2 0xCE8 SWAP3 SWAP2 PUSH2 0x6E0 SWAP2 PUSH2 0x9C8 JUMP JUMPDEST SWAP1 DUP2 DUP5 GT ISZERO PUSH2 0xD8E JUMPI PUSH2 0xCFB DUP3 DUP6 PUSH2 0x9C8 JUMP JUMPDEST SWAP1 JUMPDEST PUSH2 0x2710 SWAP2 DUP3 DUP2 MUL SWAP3 DUP2 DUP5 DIV EQ SWAP1 ISZERO OR ISZERO PUSH2 0xD7A JUMPI POP DUP2 PUSH2 0xD1C SWAP2 PUSH2 0x5A2 JUMP JUMPDEST SWAP2 PUSH1 0x3 SLOAD DUP4 GT PUSH2 0xD2D JUMPI POP POP POP POP POP JUMP JUMPDEST PUSH32 0xF69B391D88779CA000622F755AF4B19CDFE0ED4BD2044B4554D06D3FBA378F5 SWAP3 PUSH1 0x60 SWAP3 PUSH1 0x40 MLOAD SWAP6 DUP7 MSTORE PUSH1 0x20 DUP7 ADD MSTORE PUSH1 0x40 DUP6 ADD MSTORE PUSH1 0x1 DUP1 PUSH1 0xA0 SHL SUB DUP1 SWAP2 AND SWAP5 AND SWAP3 LOG3 CODESIZE DUP1 DUP1 DUP1 DUP1 PUSH2 0xB43 JUMP JUMPDEST PUSH4 0x4E487B71 PUSH1 0xE0 SHL DUP2 MSTORE PUSH1 0x11 PUSH1 0x4 MSTORE PUSH1 0x24 SWAP1 REVERT JUMPDEST PUSH2 0xD98 DUP5 DUP4 PUSH2 0x9C8 JUMP JUMPDEST SWAP1 PUSH2 0xCFD JUMP JUMPDEST SWAP1 SWAP4 PUSH2 0xDB1 PUSH2 0xDB7 SWAP2 PUSH2 0xC3D DUP8 DUP6 PUSH2 0x4CB JUMP JUMPDEST SWAP5 PUSH2 0xB67 JUMP JUMPDEST SWAP1 PUSH2 0xCD1 JUMP JUMPDEST DUP4 SWAP2 PUSH2 0xCCE JUMP JUMPDEST POP POP POP POP POP POP JUMP INVALID LOG2 PUSH5 0x6970667358 0x22 SLT KECCAK256 0xD4 0x2E 0x2F 0xD 0x2B JUMPI DUP6 INVALID 0xA7 0xC 0xBA REVERT 0xBE STOP 0xBA 0xE7 0xD5 0x2E DUP15 0xAE 0xB0 0xD3 0x27 0xD1 0xB5 0xB8 SWAP7 0xE3 PUSH17 0xEC0A7864736F6C63430008130033000000 "},"methodIdentifiers":{"BISWAP_FACTORY()":"fa81fbbd","PANCAKE_FACTORY()":"8b985795","anomalyThresholdBps()":"7aaeffde","getAggregatedPrice(address,address,uint8,uint8)":"5eff5847","getPriceFromDex(address,address,address,uint8,uint8)":"3692173f","getPriceHistoryLength(address,address)":"dae0e723","getTWAP(address,address,uint256)":"58dad490","lastUpdate(bytes32)":"0acefb7b","owner()":"8da5cb5b","priceHistory(bytes32,uint256)":"2c0dc14f","recordPrice(address,address,uint8,uint8)":"1758db3a","setAnomalyThreshold(uint256)":"29798846"}}}}}