{
  "_format": "hh-sol-artifact-1",
  "contractName": "ArbixPriceOracle",
  "sourceName": "contracts/ArbixPriceOracle.sol",
  "abi": [
    {
      "inputs": [],
      "stateMutability": "nonpayable",
      "type": "constructor"
    },
    {
      "anonymous": false,
      "inputs": [
        {
          "indexed": true,
          "internalType": "address",
          "name": "tokenA",
          "type": "address"
        },
        {
          "indexed": true,
          "internalType": "address",
          "name": "tokenB",
          "type": "address"
        },
        {
          "indexed": false,
          "internalType": "uint256",
          "name": "price",
          "type": "uint256"
        },
        {
          "indexed": false,
          "internalType": "uint256",
          "name": "median",
          "type": "uint256"
        },
        {
          "indexed": false,
          "internalType": "uint256",
          "name": "deviationBps",
          "type": "uint256"
        }
      ],
      "name": "AnomalyDetected",
      "type": "event"
    },
    {
      "anonymous": false,
      "inputs": [
        {
          "indexed": true,
          "internalType": "address",
          "name": "tokenA",
          "type": "address"
        },
        {
          "indexed": true,
          "internalType": "address",
          "name": "tokenB",
          "type": "address"
        },
        {
          "indexed": false,
          "internalType": "uint256",
          "name": "price",
          "type": "uint256"
        },
        {
          "indexed": false,
          "internalType": "string",
          "name": "dex",
          "type": "string"
        }
      ],
      "name": "PriceRecorded",
      "type": "event"
    },
    {
      "inputs": [],
      "name": "BISWAP_FACTORY",
      "outputs": [
        {
          "internalType": "address",
          "name": "",
          "type": "address"
        }
      ],
      "stateMutability": "view",
      "type": "function"
    },
    {
      "inputs": [],
      "name": "PANCAKE_FACTORY",
      "outputs": [
        {
          "internalType": "address",
          "name": "",
          "type": "address"
        }
      ],
      "stateMutability": "view",
      "type": "function"
    },
    {
      "inputs": [],
      "name": "anomalyThresholdBps",
      "outputs": [
        {
          "internalType": "uint256",
          "name": "",
          "type": "uint256"
        }
      ],
      "stateMutability": "view",
      "type": "function"
    },
    {
      "inputs": [
        {
          "internalType": "address",
          "name": "tokenA",
          "type": "address"
        },
        {
          "internalType": "address",
          "name": "tokenB",
          "type": "address"
        },
        {
          "internalType": "uint8",
          "name": "decimalsA",
          "type": "uint8"
        },
        {
          "internalType": "uint8",
          "name": "decimalsB",
          "type": "uint8"
        }
      ],
      "name": "getAggregatedPrice",
      "outputs": [
        {
          "internalType": "uint256",
          "name": "pancakePrice",
          "type": "uint256"
        },
        {
          "internalType": "uint256",
          "name": "biswapPrice",
          "type": "uint256"
        },
        {
          "internalType": "uint256",
          "name": "medianPrice",
          "type": "uint256"
        },
        {
          "internalType": "uint256",
          "name": "spreadBps",
          "type": "uint256"
        }
      ],
      "stateMutability": "view",
      "type": "function"
    },
    {
      "inputs": [
        {
          "internalType": "address",
          "name": "factory",
          "type": "address"
        },
        {
          "internalType": "address",
          "name": "tokenA",
          "type": "address"
        },
        {
          "internalType": "address",
          "name": "tokenB",
          "type": "address"
        },
        {
          "internalType": "uint8",
          "name": "decimalsA",
          "type": "uint8"
        },
        {
          "internalType": "uint8",
          "name": "decimalsB",
          "type": "uint8"
        }
      ],
      "name": "getPriceFromDex",
      "outputs": [
        {
          "internalType": "uint256",
          "name": "price",
          "type": "uint256"
        }
      ],
      "stateMutability": "view",
      "type": "function"
    },
    {
      "inputs": [
        {
          "internalType": "address",
          "name": "tokenA",
          "type": "address"
        },
        {
          "internalType": "address",
          "name": "tokenB",
          "type": "address"
        }
      ],
      "name": "getPriceHistoryLength",
      "outputs": [
        {
          "internalType": "uint256",
          "name": "",
          "type": "uint256"
        }
      ],
      "stateMutability": "view",
      "type": "function"
    },
    {
      "inputs": [
        {
          "internalType": "address",
          "name": "tokenA",
          "type": "address"
        },
        {
          "internalType": "address",
          "name": "tokenB",
          "type": "address"
        },
        {
          "internalType": "uint256",
          "name": "windowSeconds",
          "type": "uint256"
        }
      ],
      "name": "getTWAP",
      "outputs": [
        {
          "internalType": "uint256",
          "name": "twap",
          "type": "uint256"
        },
        {
          "internalType": "uint256",
          "name": "dataPoints",
          "type": "uint256"
        }
      ],
      "stateMutability": "view",
      "type": "function"
    },
    {
      "inputs": [
        {
          "internalType": "bytes32",
          "name": "",
          "type": "bytes32"
        }
      ],
      "name": "lastUpdate",
      "outputs": [
        {
          "internalType": "uint256",
          "name": "",
          "type": "uint256"
        }
      ],
      "stateMutability": "view",
      "type": "function"
    },
    {
      "inputs": [],
      "name": "owner",
      "outputs": [
        {
          "internalType": "address",
          "name": "",
          "type": "address"
        }
      ],
      "stateMutability": "view",
      "type": "function"
    },
    {
      "inputs": [
        {
          "internalType": "bytes32",
          "name": "",
          "type": "bytes32"
        },
        {
          "internalType": "uint256",
          "name": "",
          "type": "uint256"
        }
      ],
      "name": "priceHistory",
      "outputs": [
        {
          "internalType": "uint256",
          "name": "price",
          "type": "uint256"
        },
        {
          "internalType": "uint256",
          "name": "timestamp",
          "type": "uint256"
        }
      ],
      "stateMutability": "view",
      "type": "function"
    },
    {
      "inputs": [
        {
          "internalType": "address",
          "name": "tokenA",
          "type": "address"
        },
        {
          "internalType": "address",
          "name": "tokenB",
          "type": "address"
        },
        {
          "internalType": "uint8",
          "name": "decimalsA",
          "type": "uint8"
        },
        {
          "internalType": "uint8",
          "name": "decimalsB",
          "type": "uint8"
        }
      ],
      "name": "recordPrice",
      "outputs": [],
      "stateMutability": "nonpayable",
      "type": "function"
    },
    {
      "inputs": [
        {
          "internalType": "uint256",
          "name": "_bps",
          "type": "uint256"
        }
      ],
      "name": "setAnomalyThreshold",
      "outputs": [],
      "stateMutability": "nonpayable",
      "type": "function"
    }
  ],
  "bytecode": "0x6080806040523461002e576101f4600355600080546001600160a01b03191633179055610e0290816100348239f35b600080fdfe608060408181526004918236101561001657600080fd5b600092833560e01c9182630acefb7b14610428575081631758db3a1461040a57816329798846146103ae5781632c0dc14f1461035e5781633692173f146102ec57816358dad490146102b05781635eff5847146101c9575080637aaeffde146101ab5780638b9857951461017d5780638da5cb5b14610156578063dae0e723146100da5763fa81fbbd146100a957600080fd5b346100d657816003193601126100d6576020905173858e3312ed3a876947ea49d572a7c42de08af7ee8152f35b5080fd5b50346100d657806003193601126100d657806020926100f761044d565b610136610144610105610468565b85519283918983019586906028926bffffffffffffffffffffffff19809260601b16835260601b1660148201520190565b03601f1981018352826104fd565b51902081526001845220549051908152f35b50346100d657816003193601126100d657905490516001600160a01b039091168152602090f35b50346100d657816003193601126100d6576020905173ca143ce32fe78f1f7019d7d551a6402fc5350c738152f35b50346100d657816003193601126100d6576020906003549051908152f35b8284346102ad576101fa906101dd3661047e565b90849693969592955084956101f48383838b6105c2565b9761080b565b9284151580806102a4575b1561028a57505061021683856109bb565b60011c918385111561027a5761022c84866109c8565b905b6127109182810292818404149015171561026757506080955082610251916105a2565b925b815194855260208501528301526060820152f35b634e487b7160e01b815260118752602490fd5b61028485856109c8565b9061022e565b60809650909392501561029e578391610253565b81610253565b50841515610205565b80fd5b8284346102ad5760603660031901126102ad57506102e06102cf61044d565b6102d7610468565b60443591610b76565b82519182526020820152f35b5050346100d65760a03660031901126100d65761030761044d565b61030f610468565b604435906001600160a01b038216820361035a576064359260ff84168403610356576084359560ff871687036102ad57509161034f9391602096936108ed565b9051908152f35b8580fd5b8480fd5b9050346103aa57816003193601126103aa5760243590358352600160205281832080548210156103a65790610392916104cb565b506001815491015482519182526020820152f35b8380fd5b8280fd5b919050346103aa5760203660031901126103aa5782546001600160a01b031633036103db57503560035580f35b906020606492519162461bcd60e51b835282015260096024820152682737ba1037bbb732b960b91b6044820152fd5b83346102ad5761042561041c3661047e565b929190916109d5565b80f35b929150346103a65760203660031901126103a657926020933581526002845220548152f35b600435906001600160a01b038216820361046357565b600080fd5b602435906001600160a01b038216820361046357565b6080906003190112610463576001600160a01b0390600435828116810361046357916024359081168103610463579060443560ff81168103610463579060643560ff811681036104635790565b80548210156104e75760005260206000209060011b0190600090565b634e487b7160e01b600052603260045260246000fd5b90601f8019910116810190811067ffffffffffffffff82111761051f57604052565b634e487b7160e01b600052604160045260246000fd5b9081602091031261046357516001600160a01b03811681036104635790565b51906001600160701b038216820361046357565b60ff16604d811161057957600a0a90565b634e487b7160e01b600052601160045260246000fd5b8181029291811591840414171561057957565b81156105ac570490565b634e487b7160e01b600052601260045260246000fd5b6040805163e6a4390560e01b81526001600160a01b03928316600482018190529383166024820152909460209490939091858160448173ca143ce32fe78f1f7019d7d551a6402fc5350c735afa908115610800579084916000916107e3575b50169283156107d7578651630240bc6b60e21b815296606088600481885afa9485156107cc576000988996610772575b506001600160701b038099169788158015610768575b6107595780600492845193848092630dfe168160e01b82525afa92831561074f5750600092610722575b505016036106e957936106a86106af939495610568565b911661058f565b90670de0b6b3a764000091828102928184041490151715610579576106e6926106da6106e092610568565b9061058f565b906105a2565b90565b926106da6106f79294610568565b91670de0b6b3a764000092838102938185041490151715610579576106e6936106a86106e093610568565b6107419250803d10610748575b61073981836104fd565b810190610535565b3880610691565b503d61072f565b513d6000823e3d90fd5b50505050505050505050600090565b5089871615610667565b989095506060893d82116107c4575b8161078e606093836104fd565b810103126102ad5761079f89610554565b90826107ac8a8c01610554565b9a015163ffffffff8116036102ad5750979438610651565b3d9150610781565b50513d6000823e3d90fd5b50505050505050600090565b6107fa9150873d89116107485761073981836104fd565b38610621565b87513d6000823e3d90fd5b6040805163e6a4390560e01b81526001600160a01b03928316600482018190529383166024820152909460209490939091858160448173858e3312ed3a876947ea49d572a7c42de08af7ee5afa908115610800579084916000916107e35750169283156107d7578651630240bc6b60e21b815296606088600481885afa9485156107cc57600098899661077257506001600160701b038099169788158015610768576107595780600492845193848092630dfe168160e01b82525afa92831561074f575060009261072257505016036106e957936106a86106af939495610568565b92939193604094855163e6a4390560e01b815260018060a01b0395868080961693846004850152166024830152816044816020998a94165afa908115610800579084916000916107e35750169283156107d7578651630240bc6b60e21b815296606088600481885afa9485156107cc57600098899661077257506001600160701b038099169788158015610768576107595780600492845193848092630dfe168160e01b82525afa92831561074f575060009261072257505016036106e957936106a86106af939495610568565b9190820180921161057957565b9190820391821161057957565b929091604090610a2e82516020810190610a1681610136898b86906028926bffffffffffffffffffffffff19809260601b16835260601b1660148201520190565b51902093610a268184888a6105c2565b92868861080b565b8115158080610b5e575b15610b4a5750610a47916109bb565b60011c925b8315610b43578260005260016020528160002082519280840184811067ffffffffffffffff82111761051f578152858452602084019142835280546801000000000000000081101561051f57610aa7916001820181556104cb565b959095610b2d57838888610afa937fffb2d1267e244f0d9a9560de555b857c9b86b4e337e5db82c51f70f768d54166996001600a9860809b51835551910155806000526002602052428660002055610c98565b805195865260208601819052850152691859d9dc9959d85d195960b21b60608501526001600160a01b03908116941692a3565b634e487b7160e01b600052600060045260246000fd5b5050505050565b15610b56575092610a4c565b905092610a4c565b50811515610a38565b60001981146105795760010190565b6040516bffffffffffffffffffffffff19606092831b8116602083019081529390921b9091166034820152919291610bb18160488101610136565b51902060009081526001908160205260408120918254948515610c8f57610bdb90939193426109c8565b8293839692835b610c07575b505050508315610c00575082610bfc916105a2565b9190565b9250508190565b90919296946000198801888111610c7b578484610c2483866104cb565b50015410610c7357610c4b91610c3d610c4592856104cb565b5054906109bb565b95610b67565b968015610c5f576000190192919083610be2565b634e487b7160e01b85526011600452602485fd5b509496610be7565b634e487b7160e01b86526011600452602486fd5b50509250508190565b92909192600090815260016020526040812080549060058210610dc45782916005811115610dbd576004198101818111610c5f57915b82905b828210610d9e575050610ce892916106e0916109c8565b9081841115610d8e57610cfb82856109c8565b905b61271091828102928184041490151715610d7a575081610d1c916105a2565b916003548311610d2d575050505050565b7f0f69b391d88779ca000622f755af4b19cdfe0ed4bd2044b4554d06d3fba378f5926060926040519586526020860152604085015260018060a01b03809116941692a33880808080610b43565b634e487b7160e01b81526011600452602490fd5b610d9884836109c8565b90610cfd565b9093610db1610db791610c3d87856104cb565b94610b67565b90610cd1565b8391610cce565b50505050505056fea2646970667358221220d42e2f0d2b5785fea70cbafdbe00bae7d52e8eaeb0d327d1b5b896e370ec0a7864736f6c63430008130033",
  "linkReferences": {},
  "deployedLinkReferences": {}
}