{
  "_format": "hh-sol-artifact-1",
  "contractName": "ArbixVault",
  "sourceName": "contracts/ArbixVault.sol",
  "abi": [
    {
      "inputs": [
        {
          "internalType": "address",
          "name": "_executor",
          "type": "address"
        }
      ],
      "stateMutability": "nonpayable",
      "type": "constructor"
    },
    {
      "anonymous": false,
      "inputs": [
        {
          "indexed": true,
          "internalType": "address",
          "name": "user",
          "type": "address"
        },
        {
          "indexed": true,
          "internalType": "address",
          "name": "token",
          "type": "address"
        },
        {
          "indexed": false,
          "internalType": "uint256",
          "name": "amount",
          "type": "uint256"
        }
      ],
      "name": "Deposited",
      "type": "event"
    },
    {
      "anonymous": false,
      "inputs": [
        {
          "indexed": true,
          "internalType": "address",
          "name": "token",
          "type": "address"
        },
        {
          "indexed": false,
          "internalType": "uint256",
          "name": "amount",
          "type": "uint256"
        }
      ],
      "name": "ExecutorFunded",
      "type": "event"
    },
    {
      "anonymous": false,
      "inputs": [
        {
          "indexed": false,
          "internalType": "address",
          "name": "oldExecutor",
          "type": "address"
        },
        {
          "indexed": false,
          "internalType": "address",
          "name": "newExecutor",
          "type": "address"
        }
      ],
      "name": "ExecutorUpdated",
      "type": "event"
    },
    {
      "anonymous": false,
      "inputs": [
        {
          "indexed": true,
          "internalType": "address",
          "name": "token",
          "type": "address"
        },
        {
          "indexed": false,
          "internalType": "uint256",
          "name": "totalProfit",
          "type": "uint256"
        },
        {
          "indexed": false,
          "internalType": "uint256",
          "name": "fee",
          "type": "uint256"
        }
      ],
      "name": "ProfitDistributed",
      "type": "event"
    },
    {
      "anonymous": false,
      "inputs": [
        {
          "indexed": true,
          "internalType": "address",
          "name": "user",
          "type": "address"
        },
        {
          "indexed": true,
          "internalType": "address",
          "name": "token",
          "type": "address"
        },
        {
          "indexed": false,
          "internalType": "uint256",
          "name": "amount",
          "type": "uint256"
        },
        {
          "indexed": false,
          "internalType": "uint256",
          "name": "profit",
          "type": "uint256"
        }
      ],
      "name": "Withdrawn",
      "type": "event"
    },
    {
      "inputs": [],
      "name": "MIN_LOCK_PERIOD",
      "outputs": [
        {
          "internalType": "uint256",
          "name": "",
          "type": "uint256"
        }
      ],
      "stateMutability": "view",
      "type": "function"
    },
    {
      "inputs": [],
      "name": "accumulatedFees",
      "outputs": [
        {
          "internalType": "uint256",
          "name": "",
          "type": "uint256"
        }
      ],
      "stateMutability": "view",
      "type": "function"
    },
    {
      "inputs": [
        {
          "internalType": "address",
          "name": "token",
          "type": "address"
        }
      ],
      "name": "addSupportedToken",
      "outputs": [],
      "stateMutability": "nonpayable",
      "type": "function"
    },
    {
      "inputs": [
        {
          "internalType": "address",
          "name": "token",
          "type": "address"
        },
        {
          "internalType": "uint256",
          "name": "amount",
          "type": "uint256"
        }
      ],
      "name": "collectProfits",
      "outputs": [],
      "stateMutability": "nonpayable",
      "type": "function"
    },
    {
      "inputs": [
        {
          "internalType": "address",
          "name": "token",
          "type": "address"
        },
        {
          "internalType": "uint256",
          "name": "amount",
          "type": "uint256"
        }
      ],
      "name": "deposit",
      "outputs": [],
      "stateMutability": "nonpayable",
      "type": "function"
    },
    {
      "inputs": [
        {
          "internalType": "address",
          "name": "",
          "type": "address"
        },
        {
          "internalType": "address",
          "name": "",
          "type": "address"
        }
      ],
      "name": "depositors",
      "outputs": [
        {
          "internalType": "uint256",
          "name": "depositAmount",
          "type": "uint256"
        },
        {
          "internalType": "uint256",
          "name": "depositTimestamp",
          "type": "uint256"
        },
        {
          "internalType": "uint256",
          "name": "profitShare",
          "type": "uint256"
        },
        {
          "internalType": "bool",
          "name": "active",
          "type": "bool"
        }
      ],
      "stateMutability": "view",
      "type": "function"
    },
    {
      "inputs": [],
      "name": "executor",
      "outputs": [
        {
          "internalType": "address",
          "name": "",
          "type": "address"
        }
      ],
      "stateMutability": "view",
      "type": "function"
    },
    {
      "inputs": [
        {
          "internalType": "address",
          "name": "token",
          "type": "address"
        },
        {
          "internalType": "uint256",
          "name": "amount",
          "type": "uint256"
        }
      ],
      "name": "fundExecutor",
      "outputs": [],
      "stateMutability": "nonpayable",
      "type": "function"
    },
    {
      "inputs": [
        {
          "internalType": "address",
          "name": "user",
          "type": "address"
        },
        {
          "internalType": "address",
          "name": "token",
          "type": "address"
        }
      ],
      "name": "getDepositorInfo",
      "outputs": [
        {
          "internalType": "uint256",
          "name": "amount",
          "type": "uint256"
        },
        {
          "internalType": "uint256",
          "name": "timestamp",
          "type": "uint256"
        },
        {
          "internalType": "uint256",
          "name": "profit",
          "type": "uint256"
        },
        {
          "internalType": "bool",
          "name": "active",
          "type": "bool"
        }
      ],
      "stateMutability": "view",
      "type": "function"
    },
    {
      "inputs": [],
      "name": "getSupportedTokenCount",
      "outputs": [
        {
          "internalType": "uint256",
          "name": "",
          "type": "uint256"
        }
      ],
      "stateMutability": "view",
      "type": "function"
    },
    {
      "inputs": [
        {
          "internalType": "address",
          "name": "token",
          "type": "address"
        }
      ],
      "name": "getVaultBalance",
      "outputs": [
        {
          "internalType": "uint256",
          "name": "",
          "type": "uint256"
        }
      ],
      "stateMutability": "view",
      "type": "function"
    },
    {
      "inputs": [
        {
          "internalType": "address",
          "name": "",
          "type": "address"
        }
      ],
      "name": "isSupported",
      "outputs": [
        {
          "internalType": "bool",
          "name": "",
          "type": "bool"
        }
      ],
      "stateMutability": "view",
      "type": "function"
    },
    {
      "inputs": [],
      "name": "locked",
      "outputs": [
        {
          "internalType": "bool",
          "name": "",
          "type": "bool"
        }
      ],
      "stateMutability": "view",
      "type": "function"
    },
    {
      "inputs": [],
      "name": "owner",
      "outputs": [
        {
          "internalType": "address",
          "name": "",
          "type": "address"
        }
      ],
      "stateMutability": "view",
      "type": "function"
    },
    {
      "inputs": [],
      "name": "performanceFee",
      "outputs": [
        {
          "internalType": "uint256",
          "name": "",
          "type": "uint256"
        }
      ],
      "stateMutability": "view",
      "type": "function"
    },
    {
      "inputs": [
        {
          "internalType": "address",
          "name": "_executor",
          "type": "address"
        }
      ],
      "name": "setExecutor",
      "outputs": [],
      "stateMutability": "nonpayable",
      "type": "function"
    },
    {
      "inputs": [
        {
          "internalType": "uint256",
          "name": "_fee",
          "type": "uint256"
        }
      ],
      "name": "setPerformanceFee",
      "outputs": [],
      "stateMutability": "nonpayable",
      "type": "function"
    },
    {
      "inputs": [
        {
          "internalType": "uint256",
          "name": "",
          "type": "uint256"
        }
      ],
      "name": "supportedTokens",
      "outputs": [
        {
          "internalType": "address",
          "name": "",
          "type": "address"
        }
      ],
      "stateMutability": "view",
      "type": "function"
    },
    {
      "inputs": [
        {
          "internalType": "address",
          "name": "",
          "type": "address"
        }
      ],
      "name": "totalDeposited",
      "outputs": [
        {
          "internalType": "uint256",
          "name": "",
          "type": "uint256"
        }
      ],
      "stateMutability": "view",
      "type": "function"
    },
    {
      "inputs": [
        {
          "internalType": "address",
          "name": "",
          "type": "address"
        }
      ],
      "name": "totalProfits",
      "outputs": [
        {
          "internalType": "uint256",
          "name": "",
          "type": "uint256"
        }
      ],
      "stateMutability": "view",
      "type": "function"
    },
    {
      "inputs": [
        {
          "internalType": "address",
          "name": "token",
          "type": "address"
        },
        {
          "internalType": "uint256",
          "name": "amount",
          "type": "uint256"
        }
      ],
      "name": "withdraw",
      "outputs": [],
      "stateMutability": "nonpayable",
      "type": "function"
    },
    {
      "inputs": [
        {
          "internalType": "address",
          "name": "token",
          "type": "address"
        }
      ],
      "name": "withdrawFees",
      "outputs": [],
      "stateMutability": "nonpayable",
      "type": "function"
    },
    {
      "stateMutability": "payable",
      "type": "receive"
    }
  ],
  "bytecode": "0x60803461008057601f61103838819003918201601f19168301916001600160401b038311848410176100855780849260209460405283398101031261008057516001600160a01b03811690819003610080576103e860075560018060a01b0319338160005416176000556001541617600155604051610f9c908161009c8239f35b600080fd5b634e487b7160e01b600052604160045260246000fdfe60406080815260049081361015610020575b5050361561001e57600080fd5b005b600090813560e01c8063164e68de14610d285780631c3c0ea814610cb0578063385dc3df14610c9457806347e7ef2414610adb5780634f129c5314610a9e5780635305548114610a6757806356b1e81214610a31578063587f5ed714610a135780636d69fcaf146109235780636ebdb8ee1461081557806370897b23146107a157806384db9e901461059f57806387788782146107835780638da5cb5b1461075c578063c34c08e514610734578063c6255626146106f3578063ce67be26146106d5578063cf309012146106b2578063d3d7c0021461061c578063db79cdf51461059f578063ec516c52146104215763f3fef3a31461011f5750610011565b3461041d578060031936011261041d57610137610dd7565b6024918235906009549361014e60ff861615610e94565b60ff19948516600117600955338652600260209081528287206001600160a01b0390951680885294815282872060038101805490919060ff16156103e757858154106103a5576001810154610e108101809111610393574210610351578893878a528a8452858a2054151580610341575b6102cc575b509882918a60026101da8961023c9d9e54610f59565b91828155016101ea878254610f23565b9055156102c0575b50868a5260038252848a20610208878254610f59565b90556102148487610f23565b855163a9059cbb60e01b81523392810192835260208301919091529889918291604090910190565b03818b895af19687156102b6577f91fb9d98b786c57d74c099ccd2beca1739e9f6a81fb49001ca465c4b7591bbe294959697610289575b5082519485528401523392a36009541660095580f35b6102a890823d84116102af575b6102a08183610ed3565b810190610f0b565b5038610273565b503d610296565b83513d8a823e3d90fd5b888154169055386101f2565b9093508983526102df86868b2054610f46565b878a5260038452858a205491821561033057509161023c999a918493049461032361031a6127106103126007548a610f46565b048098610f59565b96600854610f23565b600855919a9950916101c4565b634e487b7160e01b8b5260128c528afd5b5060038452858a205415156101bf565b845162461bcd60e51b8152808b018490526019818601527f5641554c543a204c6f636b20706572696f6420616374697665000000000000006044820152606490fd5b634e487b7160e01b8a5260118b52848afd5b845162461bcd60e51b8152808b01849052601b818601527f5641554c543a20496e73756666696369656e742062616c616e636500000000006044820152606490fd5b845162461bcd60e51b8152808b018490526011818601527015905553150e88139bc819195c1bdcda5d607a1b6044820152606490fd5b5080fd5b50823461059b578160031936011261059b5761043b610dd7565b6024359260018060a01b038092610456828854163314610e55565b16928151926370a0823160e01b845230828501526020938481602481895afa90811561059157908791899161055c575b501061052457600154835163a9059cbb60e01b815291166001600160a01b031691810191825260208201869052949190839086908190604001038189885af194851561051a577ff54cfb5e3c4f276a1a643032de428d083fbda0d61fa90223c8faf6ce5d88176794956104fd575b5051908152a280f35b61051390843d86116102af576102a08183610ed3565b50866104f4565b81513d88823e3d90fd5b5082606492519162461bcd60e51b8352820152601360248201527215905553150e88125b9cdd59999a58da595b9d606a1b6044820152fd5b809250868092503d831161058a575b6105758183610ed3565b810103126105865786905189610486565b8780fd5b503d61056b565b84513d8a823e3d90fd5b8280fd5b503461041d578060031936011261041d5780916105ba610dd7565b6105c2610df2565b6001600160a01b03918216835260026020818152858520929093168452908252929091208054600182015493820154600390920154945190815291820192909252604081019190915260ff90911615156060820152608090f35b503461041d576020928360031936011261059b57836001600160a01b03610641610dd7565b169160248451809481936370a0823160e01b835230908301525afa9283156106a7578093610672575b505051908152f35b909192508382813d83116106a0575b61068b8183610ed3565b8101031261069d57505190388061066a565b80fd5b503d610681565b8251903d90823e3d90fd5b503461041d578160031936011261041d5760209060ff6009541690519015158152f35b503461041d578160031936011261041d576020906005549051908152f35b50823461059b57602036600319011261059b57359160055483101561069d575061071e602092610e08565b905491519160018060a01b039160031b1c168152f35b503461041d578160031936011261041d5760015490516001600160a01b039091168152602090f35b503461041d578160031936011261041d57905490516001600160a01b039091168152602090f35b503461041d578160031936011261041d576020906007549051908152f35b50823461059b57602036600319011261059b578035916107cb60018060a01b038554163314610e55565b610bb883116107dc57505060075580f35b906020606492519162461bcd60e51b835282015260136024820152720ac82aa98a874408ccaca40e8dede40d0d2ced606b1b6044820152fd5b50823461059b578160031936011261059b5761089191610833610dd7565b916024359060208260018060a01b038096610852828b54163314610e55565b60015487516323b872dd60e01b815298166001600160a01b03168589019081523060208201526040810193909352969796169587918291606090910190565b038189885af1948515610919577f6d3df9844b6224b91ec53a46da9db0ba7e5fa27ee2d61416dceaff91331bff2b94956108fb575b508486526020528185206108db828254610f23565b90556127106108ec60075483610f46565b0482519182526020820152a280f35b6109129060203d81116102af576102a08183610ed3565b50866108c6565b83513d88823e3d90fd5b50823461059b57602036600319011261059b5761093e610dd7565b83546001600160a01b039182916109589083163314610e55565b1691828552600660205260ff84862054166109d05760055490680100000000000000008210156109bd57508060016109939201600555610e08565b819291549060031b9184831b921b1916179055825260066020528120600160ff1982541617905580f35b634e487b7160e01b865260419052602485fd5b606490602085519162461bcd60e51b8352820152601860248201527f5641554c543a20416c726561647920737570706f7274656400000000000000006044820152fd5b503461041d578160031936011261041d576020906008549051908152f35b50823461059b57602036600319011261059b5760209282916001600160a01b03610a59610dd7565b168252845220549051908152f35b503461041d57602036600319011261041d5760209181906001600160a01b03610a8e610dd7565b1681526003845220549051908152f35b503461041d57602036600319011261041d5760209160ff9082906001600160a01b03610ac8610dd7565b1681526006855220541690519015158152f35b5082903461059b578060031936011261059b57610af6610dd7565b6009549260243591610b0b60ff861615610e94565b600160ff198096161760095560018060a01b0316928386526020916006835260ff828820541615610c53578315610c1d5781516323b872dd60e01b815233918101918252306020830152604082018590529083908290819060600103818a895af18015610c1357907f8752a472e571a816aea92eec8dae9baf628e840f4929fbcc2d155e6233ff68a7939291610bf6575b503387526002825280872085885282526003818820610bbc868254610f23565b81554260018201550160018782541617905584875260038252808720610be3858254610f23565b9055519283523392a36009541660095580f35b610c0c90833d85116102af576102a08183610ed3565b5087610b9c565b82513d89823e3d90fd5b82606492519162461bcd60e51b8352820152601260248201527115905553150e8816995c9bc8185b5bdd5b9d60721b6044820152fd5b82606492519162461bcd60e51b8352820152601a60248201527f5641554c543a20546f6b656e206e6f7420737570706f727465640000000000006044820152fd5b503461041d578160031936011261041d5760209051610e108152f35b503461041d57602036600319011261041d57610cca610dd7565b907f0ef3c7eb9dbcf33ddf032f4cce366a07eda85eed03e3172e4a90c4cc16d5788660018060a01b0391610d02838654163314610e55565b6001549281519481851686521693846020820152a16001600160a01b0319161760015580f35b5082903461059b57602036600319011261059b576020610d9e92610d4a610dd7565b85546001600160a01b03908116908790610d65338414610e55565b6008805490839055875163a9059cbb60e01b81526001600160a01b03909416958401958652602086015291968794859391849160400190565b0393165af1908115610dce5750610db3575080f35b610dca9060203d81116102af576102a08183610ed3565b5080f35b513d84823e3d90fd5b600435906001600160a01b0382168203610ded57565b600080fd5b602435906001600160a01b0382168203610ded57565b600554811015610e3f5760056000527f036b6384b5eca791c62761152d0c79bb0604c104a5fb6f4eb0703f3154bb3db00190600090565b634e487b7160e01b600052603260045260246000fd5b15610e5c57565b60405162461bcd60e51b815260206004820152601060248201526f2b20aaa62a1d102737ba1037bbb732b960811b6044820152606490fd5b15610e9b57565b60405162461bcd60e51b815260206004820152601060248201526f15905553150e881499595b9d1c985b9d60821b6044820152606490fd5b90601f8019910116810190811067ffffffffffffffff821117610ef557604052565b634e487b7160e01b600052604160045260246000fd5b90816020910312610ded57518015158103610ded5790565b91908201809211610f3057565b634e487b7160e01b600052601160045260246000fd5b81810292918115918404141715610f3057565b91908203918211610f305756fea26469706673582212207a51c4bf4d94848f44b12f8850a14492e3b50c4f93c6532c61b079a2a4ae576464736f6c63430008130033",
  "linkReferences": {},
  "deployedLinkReferences": {}
}